S00D00004E6F6465322E737265635F
S1130000C2C00000E0C00000DEC00000DCC0000090
S1130010DAC00000D8C00000D6C00000D4C0000080
S1130020D2C00000E6C10000CEC00000CCC0000079
S1130030CAC00000C8C00000C6C00000C4C00000A0
S1130040C2C00000C0C00000BEC00000BCC00000B0
S1130050BAC00000B8C00000B6C00000B4C00000C0
S1130060B2C00000B0C00000AEC00000ACC00000D0
S1130070AAC0000016C20000A6C00000A4C0000070
S1130080A2C00000A0C000009EC00000F2C5000095
S11300909AC0000098C0000096C000009EC60000F0
S11300A092C0000090C000008EC000008CC0000010
S11300B08AC0000088C0000086C0000084C0000020
S11300C082C0000080C000007EC000007CC0000030
S11300D07AC0000078C0000076C0000074C0000040
S11300E072C0000008075A075A075A075A075A07E6
S11300F05A075A0708075A075A075A075A075A0746
S11301005A075A070A075A075A075A075A075A0733
S11301105A075A075A075A075A075A075A075A07D3
S11301205A075A070A075A075A075A075A075A0713
S11301305A075A075A075A075A075A075A075A07B3
S11301405A075A0756075A075A075A075A075A07A7
S11301505A075A0733075A075A075A075A075A07BA
S11301605A075A075A075A075A075A075A075A0783
S11301705A075A0727075A075A075A075A075A07A6
S11301805A075A07450711241FBECFEFD1E2DEBF3D
S1130190CDBF00E00CBF12E0A0E0B2E0EEEEFBE168
S11301A000E00BBF02C007900D92AE3AB107D9F739
S11301B022E0AEEAB2E001C01D92A43EB207E1F72C
S11301C013D40C94F50D1CCFCF93DF931F92CDB7AE
S11301D0DEB76DD5C5D38FE99FE00197F1F700C075
S11301E000008EE0C2D389838981807E803839F013
S11301F087E092E00E94EC0981E090E02DC041E0AC
S113020061E08BE2DDD34FEF60E680E6D9D340E0D6
S113021060EE8FE0D5D38EE0A8D389838981807E78
S113022039F082E392E00E94EC0981E090E014C08E
S1130230EBE6F0E0808180648083E8E6F0E0808192
S113024081608083E9E6F0E080818D7F8083808116
S11302508E7F808380E090E00F90DF91CF910895AE
S113026080E383D386958695869591E0892781706E
S113027090E00895EF92FF920F931F93CF93DF9333
S11302807C01EEDF892BB1F1F701608166956695FB
S1130290669581E378D3F70160816295660F607E8D
S11302A082E371D3F70162816F7085E36CD3F70148
S11302B0828193818930910554F088E090E09383A2
S11302C0828387010C5F1F4FC0E0D0E004C0181682
S11302D01906BCF30DC0F80161918F018C2F8A5C63
S11302E052D32196F70122813381C217D3079CF39D
S11302F081E058D3DF91CF911F910F91FF90EF9040
S113030008957F928F929F92AF92BF92CF92DF9285
S1130310EF92FF920F931F93CF93DF93CDB7DEB786
S11303202C970FB6F894DEBF0FBECDBF5C0181E6FB
S11303301CD3882E82E619D3829586958770912CDA
S1130340880C991C880C991C880C991C882A85E6B1
S11303500CD38F70C82ED12C89E0C816D10424F098
S11303606894CC24C3F8D12C1C141D049CF48E0175
S11303700B5F1F4F7801EC0CFD1C0F2EF6E67F2E51
S1130380F02D872DF2D2F80181938F017394EE152D
S1130390FF05B9F71092BC029A828982DC82CB8273
S11303A08CE0FE013196D50101900D928A95E1F71A
S11303B0C5012C960FB6F894DEBF0FBECDBFDF91FA
S11303C0CF911F910F91FF90EF90DF90CF90BF904E
S11303D0AF909F908F907F90089540E061E08CE211
S11303E0EFD240E064E08CE2EBD281E08093BC0287
S11303F008951F920F920FB60F9211240BB60F920D
S11304002F933F934F935F936F937F938F939F9318
S1130410AF93BF93EF93FF93E0DFFF91EF91BF9111
S1130420AF919F918F917F916F915F914F913F9188
S11304302F910F900BBE0F900FBE0F901F90189529
S11304408098EAE7F0E0808180688083808184601E
S11304508083808182608083808181608083ACE737
S1130460B0E08C9180688C938C9180648C938081B3
S1130470886080830895EAE7F0E080818064808367
S11304808091C4029091C502892BD1F31092C502C8
S11304901092C402809178002091790090E0922B10
S11304A008951F920F920FB60F9211248F939F936A
S11304B081E090E09093C5028093C4029F918F9154
S11304C00F900FBE0F901F90189578945AD4F894FB
S11304D0509A519A0895CF93DF9300D0CDB7DEB7E9
S11304E090E599831A828B8363E0CE01019653D4FD
S11304F00F900F900F90DF91CF9108950F931F935A
S1130500CF93DF93C4E0D0E000E010E0B4DF080F45
S1130510191F21972097D1F7C8019695879596952D
S11305208795DF91CF911F910F910895E7DF21E027
S113053030E08A3F910514F020E030E0C9010895CD
S11305408091C802813031F4E2E0F1E080818D7F56
S113055080830895E2E0F1E08081826080830895E1
S1130560CF93C82FEDDF8C2FB6DFCF910895E2E053
S1130570F1E080818F7B80832FEF8AE693E0215026
S113058080409040E1F700C0000080818064808357
S11305900895E2E0F1E080818F7D80838081877F10
S11305A080832FEF39EF40E0215030404040E1F7A5
S11305B000C000008091060190E0982F88272081D8
S11305C0286020832FEF39EF40E021503040404035
S11305D0E1F700C0000020910601308130623083D1
S11305E0822B0895CF92DF92EF92FF92CF93DF9305
S11305F0D0DFEC016091C9027091CA0271956195D6
S11306007109882777FD8095982F6ED59B01AC01E1
S113061060E070E08FE793E4CCD46B017C01F7FADF
S1130620F094F7F8F094BE01882777FD8095982F11
S11306305BD59B01AC01C701B6010AD622D5CB011B
S1130640DF91CF91FF90EF90DF90CF90089581E0FC
S11306508093C80286E990E083DF2FEF8DE292E277
S1130660215080409040E1F700C0000080DF1092EC
S1130670C80286E990E074DF2FEF8DE292E2215008
S113068080409040E1F700C0000083DF9093CA02ED
S11306908093C9027EDF9F938F9381E592E09F93BD
S11306A08F9389D680E090E05BDF81E08093C8027D
S11306B086E990E055DF6DDF9093C7028093C60210
S11306C02FEF87E99AE3215080409040E1F700C082
S11306D000004DDF0F900F900F900F900895F5DEFE
S11306E0E1E0F1E0808180618083A2E0B1E08C915F
S11306F080618C938081826080838081806280832A
S11307008081886080838081806480838C91806212
S11307108C938C9180648C931092070128DF7894D9
S113072096DFF894E0E9F0E080818D7F808380811A
S11307308E7F8083E1E9F0E0808182608083E1E75D
S1130740F0E080818160808308954F925F926F9280
S11307507F928F929F92AF92BF92CF92DF92EF924D
S1130760FF920F931F93CF93DF93EC014A015B0138
S11307702801390137DFC81BD90B1C161D061CF4D0
S11307801092C80203C081E08093C8028E01DD2369
S113079024F4002711270C1B1D0B02301105F4F063
S11307A0BE01882777FD8095982F9ED42FE632E1ED
S11307B043E05DE34DD59B01AC016091AE027091C5
S11307C0AF028091B0029091B1028BD36093AE02DC
S11307D07093AF028093B0029093B102B80188275E
S11307E077FD8095982F80D4A501940131D54B01D4
S11307F05C012091AE023091AF024091B002509161
S1130800B102C301B20124D59B01AC01C501B401FD
S113081068D34B015C018091B2029091B302BE0196
S1130820681B790B882777FD8095982F5DD42FE678
S113083032E143E05DE3BDD39B01AC01C701B601E6
S113084007D59B01AC01C501B4014BD31AD477235E
S113085014F460E070E0D093B302C093B202CB0111
S11308606F3F710519F014F08FEF90E0DF91CF9195
S11308701F910F91FF90EF90DF90CF90BF90AF90BA
S11308809F908F907F906F905F904F9008951ED2AD
S113089066EA7BE984EC9AE340C208958838A8F0BC
S11308A0682F70E064587109882777FD8095982F28
S11308B01BD42DEB37E346E856E3CAD426EA3BE9DA
S11308C044EC5AE30ED329C20895823888F4682F81
S11308D070E080E090E008D42DEB37E346E856E37F
S11308E0B7D42AEF3DEE4BE65AE3FBD216C2089585
S11308F066EA7BE984EC9AE310C20895819A899AA6
S1130900089589982FEF81EE94E021508040904023
S1130910E1F700C00000899A0895E0ECF0E09081CE
S113092095FFFDCF8093C60080E090E00895E0EC51
S1130930F0E080818823ECF78091C60008958093CD
S1130940C40088E18093C10067E974E08DE894E015
S1130950E8D49093CC028093CB0280E090E0089599
S1130960A2D180EC9AD1A1C10895CF93C82F9BD175
S113097083E093D18C2F91D180E08FD1C82F95D172
S11309808C2FCF910895CF93DF93D82FC62F8BD17F
S113099082E083D18D2F81D18C2F7FD186D1DF91BD
S11309A0CF910895CF93C82F7ED1C83020F48C2FD7
S11309B0806873D102C080E870D177D1CF91089557
S11309C01F93CF93DF93182FD62FC42F6CD185E0BC
S11309D064D1812F62D18D2F60D18C2F5ED165D1EE
S11309E0DF91CF911F910895CF93DF93CDB7DEB7F9
S11309F02E970FB6F894DEBF0FBECDBFF89487E6EE
S1130A0090E09DDFE1DB43DF1BDD78DF68DE789477
S1130A100F2EF3E34F2E542CF3E76F2EFFE37F2EBC
S1130A20F02D0F2EFDEC8F2EFCEC9F2EA92CFDE358
S1130A30BF2EF02D6894332432F8CE0101969E87A0
S1130A408D878091B402823009F450C028F4882341
S1130A5051F0813029F1F7CF833009F469C0843033
S1130A6009F48CC0F0CF8091BC02882351F3CE01ED
S1130A70019647DC2885822F90E00197039768F45C
S1130A802093B4021F922F93A9E6B2E0BF93AF93D1
S1130A9092D40F900F900F900F901092BC02D1CF70
S1130AA08CE792E099D486E696E6A6E6BFE38093C7
S1130AB0D6029093D702A093D802B093D90289E2C8
S1130AC09CE5AFE8BDE38093D2029093D302A09358
S1130AD0D402B093D5028092CD029092CE02A0921D
S1130AE0CF02B092D0023092B402ABCF82E892E04F
S1130AF073D44092D6025092D7026092D802709278
S1130B00D9028092D2029092D302A092D402B092DF
S1130B10D5028DEC9CECACE4BDE38093CD029093C4
S1130B20CE02A093CF02B093D0023092B40289CF08
S1130B308AE892E051D480E090E0A0E8BFE380939B
S1130B40D6029093D702A093D802B093D902809290
S1130B50D2029092D302A092D402B092D5028AE03B
S1130B6097EDA3E2BCE38093CD029093CE02A093D1
S1130B70CF02B093D0023092B40263CF8091BC0212
S1130B80882331F1CE010196BCDB1F818D818093D6
S1130B90D1029E819093BB02111104C01092B6023F
S1130BA01092B5027BDE212F30E08091B502909146
S1130BB0B6022817390751F080E992E00DD4A1DE7E
S1130BC0A2E0B0E0B093B602A093B5021092BC02CA
S1130BD08091B9029091BA02019759F5E1E7F0E0EA
S1130BE080818E7F8083C090D202D090D302E09027
S1130BF0D402F090D5020091CD021091CE02209142
S1130C00CF023091D0024091D6025091D702609128
S1130C10D8027091D9028091BB0290E096DDA0DCED
S1130C20A1E7B0E08C9181608C931092BA0210928B
S1130C30B9027CDC9093B8028093B702019791F4D7
S1130C4086E992E0C9D38CE0ED85FE8511928A9500
S1130C50E9F781E090E09C838B83CE0101960ADB67
S1130C601092B402AFE9BFE01197F1F700C00000A1
S1130C70E8CE1F920F920FB60F9211248F939F9379
S1130C8081E090E09093BA028093B9029F918F9192
S1130C900F900FBE0F901F9018958EBD0DB407FED8
S1130CA0FDCF8EB508952F9808952F9A08958CB589
S1130CB080618CBD8CB581608CBD229A219A279A63
S1130CC0209A8CB580648CBDF0CF0895E0E8F0E004
S1130CD080818068808380818F7B80838081826033
S1130CE0808380818E7F8083E1E8F0E0808188606A
S1130CF0808380818061808380818460808380811F
S1130D008D7F808380818E7F8083259A81EE94E01D
S1130D1090938700809386000895CF92DF92EF929C
S1130D20FF92CF936B017C01F894C1E02AEF3DEE72
S1130D304BE65AE389D218160CF0C0E0CC23D1F06C
S1130D4027E230EA49E05BE3C701B6012ED18823EC
S1130D508CF420E034E244E757E4C701B60178D2CA
S1130D6020E030E040E05FE3BBD090D17093890095
S1130D70609388007894CF91FF90EF90DF90CF90AC
S1130D8008958CE08093B8008FEF8093BB0084E0DB
S1130D908093BC000895ECEBF0E0208120FDFDCFB2
S1130DA06093BF02FC0120812093C00220FD0CC08F
S1130DB0623050F0DC011196E1ECF2E081E09D91AB
S1130DC091938F5F8613FBCF1092BE0288EF8093BE
S1130DD0060285EA8093BC0008951F920F920FB615
S1130DE00F9211240BB60F922F933F938F939F93DF
S1130DF0AF93BF93EF93FF938091B90090E0FC0110
S1130E003897E135F10508F055C0EE58FF4F83C21D
S1130E101092BD02E091BD028091BF02E81770F408
S1130E2081E08E0F8093BD02F0E0E054FD4F80819D
S1130E308093BB0085E88093BC0043C08091BE02D0
S1130E4081608093BE0284E98093BC003AC0E09143
S1130E50BD0281E08E0F8093BD028091BB00F0E063
S1130E60E054FD4F80832091BD0230E08091BF02A9
S1130E7090E001972817390724F485EC8093BC008F
S1130E8020C085E88093BC001CC08091BB00E09129
S1130E90BD02F0E0E054FD4F80838091BE0281608A
S1130EA08093BE0284E98093BC000BC085EA8093E2
S1130EB0BC0007C08091B9008093060284E080934F
S1130EC0BC00FF91EF91BF91AF919F918F913F91A2
S1130ED02F910F900BBE0F900FBE0F901F9018957F
S1130EE05058BB27AA270ED075C166D130F06BD1FC
S1130EF020F031F49F3F11F41EF45BC10EF4E09531
S1130F00E7FB51C1E92F77D180F3BA176207730762
S1130F108407950718F071F49EF58FC10EF4E095DF
S1130F200B2EBA2FA02D0B01B90190010C01CA019F
S1130F30A0011124FF27591B99F0593F50F4503E4A
S1130F4068F11A16F040A22F232F342F4427585F3C
S1130F50F3CF469537952795A795F0405395C9F754
S1130F607EF41F16BA0B620B730B840BBAF091500C
S1130F70A1F0FF0FBB1F661F771F881FC2F70EC0AB
S1130F80BA0F621F731F841F48F48795779567957E
S1130F90B795F7959E3F08F0B3CF9395880F08F067
S1130FA09927EE0F979587950895D9D008F481E095
S1130FB008950CD00FC107D140F0FED030F021F4D9
S1130FC05F3F19F0F0C0511139C1F3C014D198F347
S1130FD09923C9F35523B1F3951B550BBB27AA27B6
S1130FE062177307840738F09F5F5F4F220F331F28
S1130FF0441FAA1FA9F333D00E2E3AF0E0E830D0F4
S113100091505040E695001CCAF729D0FE2F27D0F6
S1131010660F771F881FBB1F261737074807AB07C4
S1131020B0E809F0BB0B802DBF01FF2793585F4F39
S11310302AF09E3F510568F0B6C000C15F3FECF353
S1131040983EDCF3869577956795B795F7959F5FFE
S1131050C9F7880F911D9695879597F90895E1E052
S1131060660F771F881FBB1F621773078407BA07B1
S113107020F0621B730B840BBA0BEE1F88F7E0950C
S1131080089504D06894B111D9C00895BCD088F0F3
S11310909F5790F0B92F9927B751A0F0D1F0660F60
S11310A0771F881F991F1AF0BA95C9F712C0B1307B
S11310B081F0C3D0B1E00895C0C0672F782F88278E
S11310C0B85F39F0B93FCCF3869577956795B395BA
S11310D0D9F73EF490958095709561957F4F8F4F29
S11310E09F4F0895E89409C097FB3EF4909580952E
S11310F0709561957F4F8F4F9F4F9923A9F0F92FDA
S113110096E9BB279395F695879577956795B79557
S1131110F111F8CFFAF4BB0F11F460FF1BC06F5F3D
S11311207F4F8F4F9F4F16C0882311F096E911C04F
S1131130772321F09EE8872F762F05C0662371F070
S113114096E8862F70E060E02AF09A95660F771F84
S1131150881FDAF7880F9695879597F90895990F60
S11311600008550FAA0BE0E8FEEF16161706E8076D
S1131170F907C0F012161306E407F50798F0621B8E
S1131180730B840B950B39F40A2661F0232B242B63
S1131190252B21F408950A2609F4A140A6958FEF82
S11311A0811D811D089597F99F6780E870E060E0D4
S11311B008959FEF80EC089500240A9416161706EC
S11311C018060906089500240A9412161306140634
S11311D005060895092E0394000C11F4882352F097
S11311E0BB0F40F4BF2B11F460FF04C06F5F7F4F4F
S11311F08F4F9F4F089557FD9058440F551F59F036
S11312005F3F71F04795880F97FB991F61F09F3FEF
S113121079F087950895121613061406551FF2CF18
S11312204695F1DF08C0161617061806991FF1CF68
S113123086957105610508940895E894BB2766278F
S11312407727CB0197F908958ADF08F48FEF089583
S11312500BD0C0CFB1DF28F0B6DF18F0952309F02A
S1131260A2CFA7CF1124EACFC6DFA0F3959FD1F375
S1131270950F50E0551F629FF001729FBB27F00D40
S1131280B11D639FAA27F00DB11DAA1F649F662795
S1131290B00DA11D661F829F2227B00DA11D621FE4
S11312A0739FB00DA11D621F839FA00D611D221F9E
S11312B0749F3327A00D611D231F849F600D211D82
S11312C0822F762F6A2F11249F5750408AF0E1F025
S11312D088234AF0EE0FFF1FBB1F661F771F881F6E
S11312E091505040A9F79E3F510570F05CCFA6CFB6
S11312F05F3FECF3983EDCF3869577956795B79559
S1131300F795E7959F5FC1F7FE2B880F911D969582
S1131310879597F90895EE0FFF1F0590F491E02D3E
S113132019940F931F93CF93DF93EC018B010097D4
S113133031F46115710519F480E090E037C06EE076
S113134070E081E090E063D2FC010097A9F380E8AB
S113135083830115110571F01387028781E8838364
S11313608091DA029091DB02892B21F4F093DB0265
S1131370E093DA022097C9F0D187C0878381826025
S113138083838091DC029091DD02892B71F4F093C8
S1131390DD02E093DC028091DE029091DF02892B72
S11313A021F4F093DF02E093DE02CF01DF91CF91CD
S11313B01F910F910895CF93DF93CDB7DEB7FE0150
S11313C0369661917191AF018091DC029091DD02BA
S11313D030D0DF91CF9108950F931F93CF93DF9374
S11313E0E091DC02F091DD02238121FF1BC0EC01BE
S11313F000E010E089916091DC027091DD02DB0174
S11314001896ED91FC911997882331F01995892B41
S113141089F30FEF1FEFEECF8AE01995892B11F4B2
S1131420C80102C08FEF9FEFDF91CF911F910F9101
S113143008952F923F924F925F926F927F928F9274
S11314409F92AF92BF92CF92DF92EF92FF920F934F
S11314501F93CF93DF93CDB7DEB72C970FB6F894D5
S1131460DEBF0FBECDBF7C016B018A01FC01178278
S11314701682838181FFB0C1CE0101964C01F70130
S11314809381F60193FD859193FF81916F018823E8
S113149009F49EC1853239F493FD859193FF8191BE
S11314A06F01853221F4B70190E00FD3E8CF512CBE
S11314B0312C20E02032A0F48B3269F030F48032F9
S11314C059F0833269F420612CC08D3239F08033B5
S11314D039F4216026C02260246023C0286021C022
S11314E027FD27C030ED380F3A3078F426FF06C0C8
S11314F0FAE05F9E300D1124532E13C08AE0389E0B
S1131500300D1124332E20620CC08E3221F426FDBE
S11315105FC1206406C08C3611F4206802C088368E
S113152041F4F60193FD859193FF81916F0181113F
S1131530C1CF982F9F7D9554933028F40C5F1F4F93
S1131540FFE3F9830DC0833631F0833771F08335BF
S113155009F057C021C0F801808189830E5F1F4FB5
S113156044244394512C540114C03801F2E06F0E0A
S1131570711CF801A080B18026FF03C0652D70E0C6
S113158002C06FEF7FEFC5012C8794D22C01830139
S11315902C852F77222E16C03801F2E06F0E711CB5
S11315A0F801A080B18026FF03C0652D70E002C061
S11315B06FEF7FEFC5012C876BD22C012C8520683F
S11315C0222E830123FC19C0832D90E0481659066E
S11315D0A0F4B70180E290E078D23A94F5CFF50117
S11315E027FC859127FE81915F01B70190E06DD2C0
S11315F031103A94F1E04F1A51084114510479F72B
S1131600DEC0843611F0893631F5F80127FF07C0B2
S113161060817181828193810C5F1F4F08C060815A
S11316207181882777FD8095982F0E5F1F4F2F7645
S1131630B22E97FF09C090958095709561957F4F64
S11316408F4F9F4F2068B22E2AE030E0A4016FD262
S1131650A82EA81843C0853729F42F7EB22E2AE07D
S113166030E025C0F22FF97FBF2E8F36C1F018F479
S1131670883579F0ADC0803719F0883721F0A8C0DB
S11316802F2F2061B22EB4FE0DC08B2D8460B82E96
S113169009C024FF0AC09F2F9660B92E06C028E017
S11316A030E005C020E130E002C020E132E0F80182
S11316B0B7FE07C060817181828193810C5F1F4FE7
S11316C006C06081718180E090E00E5F1F4FA4012D
S11316D02ED2A82EA818FB2DFF77BF2EB6FE0BC066
S11316E02B2D2E7FA51450F4B4FE0AC0B2FC08C002
S11316F02B2D2E7E05C07A2C2B2D03C07A2C01C0F5
S1131700752C24FF0DC0FE01EA0DF11D808180338C
S113171011F4297E09C022FF06C07394739404C097
S1131720822F867809F0739423FD12C020FF06C02F
S11317305A2C731418F4530C5718732C731460F444
S1131740B70180E290E02C87C0D173942C85F6CF4A
S1131750731410F4371801C0312C24FF11C0B701E1
S113176080E390E02C87B1D12C8522FF16C021FFA5
S113177003C088E590E002C088E790E0B7010CC0A0
S1131780822F867851F021FD02C080E201C08BE2F5
S113179027FD8DE2B70190E098D1A51430F4B7018C
S11317A080E390E092D15A94F8CFAA94F401EA0D20
S11317B0F11D8081B70190E088D1A110F6CF3320CC
S11317C009F45DCEB70180E290E07FD13A94F7CF7F
S11317D0F7018681978102C08FEF9FEF2C960FB699
S11317E0F894DEBF0FBECDBFDF91CF911F910F9153
S11317F0FF90EF90DF90CF90BF90AF909F908F902D
S11318007F906F905F904F903F902F9008950F932B
S11318101F93CF93DF93869F8001879F100D969F20
S1131820100D1124C8010DD0EC01009721F0A8017E
S113183060E070E038D1CE01DF91CF911F910F911C
S11318400895CF93DF938230910510F482E090E005
S1131850E091E202F091E30220E030E0A0E0B0E0A9
S1131860309739F14081518148175907B8F048172A
S1131870590771F482819381109729F013969C93F0
S11318808E9312972CC09093E3028093E20227C0B8
S11318902115310531F04217530718F0A901DB0176
S11318A001C0EF019A01BD01DF010280F381E02D47
S11318B0D7CF21153105F9F0281B390B2430310518
S11318C080F48A819B816115710521F0FB0193836A
S11318D0828304C09093E3028093E202FE01329675
S11318E044C0FE01E20FF31F81939193225031090A
S11318F0398328833AC02091E0023091E102232BFE
S113190041F420910202309103023093E1022093CA
S1131910E00220910002309101022115310541F4C9
S11319202DB73EB74091040250910502241B350B9C
S1131930E091E002F091E102E217F307A0F42E1B1C
S11319403F0B2817390778F0AC014E5F5F4F24171F
S1131950350748F04E0F5F1F5093E1024093E002B9
S11319608193919302C0E0E0F0E0CF01DF91CF9149
S11319700895CF93DF93009709F487C0FC01329751
S113198013821282C091E202D091E302209781F483
S113199020813181280F391F8091E0029091E1026A
S11319A08217930779F5F093E102E093E0026DC0AA
S11319B0DE0120E030E0AE17BF0750F412964D91DF
S11319C05C9113979D014115510509F1DA01F3CF9B
S11319D0B383A28340815181840F951F8A179B078B
S11319E071F48D919C911197840F951F02969183A8
S11319F0808312968D919C911397938382832115F2
S1131A00310529F4F093E302E093E2023EC0D901E8
S1131A101396FC93EE9312974D915D91A40FB51F0D
S1131A20EA17FB0779F480819181840F951F029650
S1131A30D90111969C938E938281938113969C93E2
S1131A408E931297E0E0F0E08A819B81009719F071
S1131A50FE01EC01F9CFCE01029628813981820F73
S1131A60931F2091E0023091E1022817390769F4AD
S1131A70309729F41092E3021092E20202C013821A
S1131A801282D093E102C093E002DF91CF910895D6
S1131A90FC010590615070400110D8F78095909535
S1131AA08E0F9F1F0895DC0101C06D93415050407B
S1131AB0E0F70895FC016150704001900110D8F7DF
S1131AC0809590958E0F9F1F08950F931F93CF932A
S1131AD0DF93182F092FEB018B8181FD03C08FEF5A
S1131AE09FEF20C082FF10C04E815F812C813D8119
S1131AF0421753077CF4E881F9819F012F5F3F4F20
S1131B0039832883108306C0E885F985812F1995C8
S1131B10892B29F72E813F812F5F3F4F3F832E83EF
S1131B20812F902FDF91CF911F910F910895FA018A
S1131B30AA27283051F1203181F1E8946F936E7F08
S1131B406E5F7F4F8F4F9F4FAF4FB1E03ED0B4E0F9
S1131B503CD0670F781F891F9A1FA11D680F791F3A
S1131B608A1F911DA11D6A0F711D811D911DA11D4B
S1131B7020D009F468943F912AE0269F112430195B
S1131B80305D3193DEF6CF010895462F4770405DF6
S1131B904193B3E00FD0C9F7F6CF462F4F70405DA5
S1131BA04A3318F0495D31FD4052419302D0A9F700
S1131BB0EACFB4E0A6959795879577956795BA95FA
S1131BC0C9F700976105710508959B01AC010A2EC0
S1131BD006945795479537952795BA95C9F7620F97
S1111BE0731F841F951FA01D0895F894FFCF56
S1131BEE0000E4022000F84D4350323531352069AF
S1131BFE73204E4F5420696E20636F6E66696720A2
S1131C0E6D6F6465206166746572207265736574A8
S1131C1E21004D435032353135206973204E4F54D7
S1131C2E20696E206E6F726D616C206D6F6465211C
S1131C3E00726967687420656E636F6465722076DE
S1131C4E616C75652025640A0063757272656E7425
S1131C5E207374617465202564200A00454153592C
S1131C6E20004D454449554D200048415244200022
S1131C7E73686F6F740043616E206D656C64696E7A
S1111C8E672C207370696C6C206F7665720091
S9030000FC
