S00D00004E6F6465322E737265635F
S1130000C2C00000E0C00000DEC00000DCC0000090
S1130010DAC00000D8C00000D6C00000D4C0000080
S1130020D2C0000093C10000CEC00000CCC00000CC
S1130030CAC00000C8C00000C6C00000C4C00000A0
S1130040C2C00000C0C00000BEC00000BCC00000B0
S1130050BAC00000B8C00000B6C00000B4C00000C0
S1130060B2C00000B0C00000AEC00000ACC00000D0
S1130070AAC00000A5C10000A6C00000A4C00000E2
S1130080A2C00000A0C000009EC000001FC4000069
S11300909AC0000098C0000096C00000CBC40000C5
S11300A092C0000090C000008EC000008CC0000010
S11300B08AC0000088C0000086C0000084C0000020
S11300C082C0000080C000007EC000007CC0000030
S11300D07AC0000078C0000076C0000074C0000040
S11300E072C00000350587058705870587058705E4
S11300F087058705350587058705870587058705EE
S113010087058705370587058705870587058705DB
S1130110870587058705870587058705870587057B
S113012087058705370587058705870587058705BB
S1130130870587058705870587058705870587055B
S1130140870587058305870587058705870587054F
S11301508705870560058705870587058705870562
S1130160870587058705870587058705870587052B
S1130170870587055405870587058705870587054E
S113018087058705720511241FBECFEFD1E2DEBFBC
S1130190CDBF00E00CBF12E0A0E0B2E0E8E4F8E17B
S11301A000E00BBF02C007900D92A03BB107D9F746
S11301B022E0A0EBB2E001C01D92A13DB207E1F73D
S11301C01CD30C94220C1CCFCF93DF931F92CDB77A
S11301D0DEB79AD3EBD28FE99FE00197F1F700C025
S11301E000008EE0E8D289838981807E803831F0F6
S11301F088E092E01ED781E090E02CC041E061E00D
S11302008BE2E7D24FEF60E680E6E3D240E060EEB7
S11302108FE0DFD28EE0CFD289838981807E31F076
S113022083E392E006D781E090E014C0EBE6F0E0CF
S1130230808180648083E8E6F0E08081816080834F
S1130240E9E6F0E080818D7F808380818E7F8083EA
S113025080E090E00F90DF91CF9108957F928F928C
S11302609F92AF92BF92CF92DF92EF92FF920F9341
S11302701F93CF93DF93CDB7DEB72C970FB6F894C7
S1130280DEBF0FBECDBF5C0181E695D2882E82E62B
S113029092D2829586958770912C880C991C880C33
S11302A0991C880C991C882A85E685D28F70C82EE3
S11302B0D12C89E0C816D10424F06894CC24C3F866
S11302C0D12C1C141D049CF48E010B5F1F4F78016C
S11302D0EC0CFD1C0F2EF6E67F2EF02D872D6BD235
S11302E0F80181938F017394EE15FF05B9F710920D
S11302F0B8029A828982DC82CB828CE0FE0131963C
S1130300D50101900D928A95E1F7C5012C960FB69F
S1130310F894DEBF0FBECDBFDF91CF911F910F9137
S1130320FF90EF90DF90CF90BF90AF909F908F9011
S11303307F90089540E061E08CE24BD240E064E0BD
S11303408CE247D281E08093B80208951F920F9205
S11303500FB60F9211240BB60F922F933F934F9326
S11303605F936F937F938F939F93AF93BF93EF9319
S1130370FF93E0DFFF91EF91BF91AF919F918F9138
S11303807F916F915F914F913F912F910F900BBE91
S11303900F900FBE0F901F9018958098EAE7F0E039
S11303A08081806880838081846080838081826092
S11303B080838081816080838081886080830895C8
S11303C01F920F920FB60F9211248F939F9381E087
S11303D090E09093C1028093C0029F918F910F90FF
S11303E00FBE0F901F9018957894F8D2F894509AF5
S11303F0519A0895CF93DF9300D0CDB7DEB790E53F
S113040099831A828B8363E0CE010196F1D20F9017
S11304100F900F90DF91CF9108958091C2028130A7
S113042031F4E2E0F1E080818D7F80830895E2E0A1
S1130430F1E08081826080830895CF93C82FEDDF3F
S11304408C2FD8DFCF910895E2E0F1E080818F7B9B
S113045080832FEF8AE693E0215080409040E1F7BB
S113046000C000008081806480830895E2E0F1E0B0
S113047080818F7D80838081877F80832FEF89EFC8
S113048090E0215080409040E1F700C0000060916E
S1130490060170E0762F66278081886080832FEFC5
S11304A089EF90E0215080409040E1F700C00000C7
S11304B080910601908190629083682B882777FD54
S11304C08095982F3ED42BE13FE24DED5CEBEDD4CB
S11304D005D4CB01089581E08093C2028FEF90E0B0
S11304E0ACDF2FEF89E698E1215080409040E1F79E
S11304F000C00000A9DFBADF9F938F938BE592E0E1
S11305009F938F9385D51092C2028FEF90E095DF71
S11305102FEF89E698E1215080409040E1F700C038
S11305200000A4DF9093C4028093C30280E090E0B3
S113053084DF8091C4028F938091C3028F938DE6F0
S113054092E09F938F9364D58DB79EB708960FB6AC
S1130550F8949EBF0FBE8DBF089546DFE1E0F1E041
S1130560808180618083A2E0B1E08C9180618C9372
S113057080818260808380818062808380818860C2
S113058080838081806480838C9180628C938C9141
S113059080648C931092070157DF78949CDFF89461
S11305A0E0E9F0E080818D7F808380818E7F80838D
S11305B0E1E9F0E0808182608083E1E7F0E080811E
S11305C0816080830895CF92DF92EF92FF92CF9360
S11305D0DF93EC014BDFC81BD90B1C161D061CF462
S11305E01092C20203C081E08093C2027E01DD2327
S11305F024F4EE24FF24EC1AFD0A83E0E816F10447
S1130600F4F0BE01882777FD8095982F9AD32FE6C2
S113061032E143E05DE349D49B01AC016091B00257
S11306207091B1028091B2029091B30287D260932B
S1130630B0027093B1028093B2029093B302B701F7
S1130640882777FD8095982F7CD36B017C012AE065
S113065037ED43E25CE36091B0027091B1028091A6
S1130660B2029091B30221D49B01AC01C701B6013F
S113067065D26B017C018091B4029091B502BE01F8
S1130680681B790B882777FD8095982F5AD32FE61E
S113069032E143E05DE3BAD22DEC3CEC4CEC5DE39B
S11306A004D49B01AC01C701B60148D217D3772308
S11306B014F460E070E0D093B502C093B402CB01AF
S11306C06F3F710519F014F08FEF90E0DF91CF9137
S11306D0FF90EF90DF90CF90089525D166EA7BE9F3
S11306E084EC9AE347C108958838A8F0682F70E035
S11306F064587109882777FD8095982F22D32DEBB4
S113070037E346E856E3D1D326EA3BE944EC5AE31F
S113071015D230C10895823888F4682F70E080E0E3
S113072090E00FD32DEB37E346E856E3BED32AEF30
S11307303DEE4BE65AE302D21DC1089566EA7BE919
S113074084EC9AE317C10895819A899A0895899847
S11307502FEF80E792E0215080409040E1F700C005
S11307600000899A0895E0ECF0E0908195FFFDCFB8
S11307708093C60080E090E00895E0ECF0E0808192
S11307808823ECF78091C60008958093C40088E123
S11307908093C1006DEB73E083EB93E0EFD3909310
S11307A0C6028093C50280E090E00895A9D080EC51
S11307B0A1D0A8C00895CF93C82FA2D083E09AD027
S11307C08C2F98D080E096D0C82F9CD08C2FCF91BE
S11307D008951F93CF93DF93182FD62FC42F90D053
S11307E085E088D0812F86D08D2F84D08C2F82D025
S11307F089D0DF91CF911F910895CF93DF93CDB727
S1130800DEB72C970FB6F894DEBF0FBECDBFF894B9
S113081087E690E0BADFD8DC60DFBFDD9EDE94DFE0
S113082078940F2EF3E8CF2EF2E0DF2EF02D0F2E6A
S1130830FFE8EF2EF2E0FF2EF02D0CE912E080919C
S1130840B802882369F185E792E0F3D3CE010196DB
S113085005DD8D81809306029E808F80A82CB12CAB
S11308601F929F92DF92CF92D3D31F928F92FF92C7
S1130870EF92CED3809106021F928F931F930F9312
S1130880C7D3892D31DF0FB6F894DEBF0FBECDBFBD
S113089092E0A916B10421F48AEA92E0CAD357DFA0
S11308A08091B6029091B702019749F480910602B3
S11308B090E089DEC2DD1092B7021092B6028FE991
S11308C09FE00197F1F700C00000B9CF1F920F928B
S11308D00FB60F9211248F939F9381E090E0909331
S11308E0B7028093B6029F918F910F900FBE0F9025
S11308F01F9018958EBD0DB407FEFDCF8EB50895DB
S11309002F9808952F9A08958CB580618CBD8CB56D
S113091081608CBD229A219A279A209A8CB5806492
S11309208CBDF0CF0895E0E8F0E08081806880839A
S113093080818F7B808380818260808380818E7FB1
S11309408083E1E8F0E08081886080838081806139
S1130950808380818460808380818D7F8083808197
S11309608E7F8083259A81EE94E090938700809314
S113097086000895CF92DF92EF92FF92CF936B019E
S11309807C01F894C1E02AEF3DEE4BE65AE389D2AC
S113099018160CF0C0E0CC23D1F027E230EA49E08D
S11309A05BE3C701B6012ED188238CF420E034E246
S11309B044E757E4C701B60178D220E030E040E0D4
S11309C05FE3BBD090D170938900609388007894E2
S11309D0CF91FF90EF90DF90CF9008958CE08093BB
S11309E0B8008FEF8093BB0084E08093BC0008952F
S11309F0ECEBF0E0208120FDFDCF6093BB02FC0115
S1130A0020812093BC0220FD0CC0623050F0DC0138
S1130A101196EDEBF2E081E09D9191938F5F861347
S1130A20FBCF1092BA0288EF8093070285EA809385
S1130A30BC0008951F920F920FB60F9211240BB6AB
S1130A400F922F933F938F939F93AF93BF93EF9303
S1130A50FF938091B90090E0FC013897E135F105EE
S1130A6008F055C0EE58FF4F83C21092B902E091CE
S1130A70B9028091BB02E81770F481E08E0F809375
S1130A80B902F0E0E454FD4F80818093BB0085E817
S1130A908093BC0043C08091BA0281608093BA0203
S1130AA084E98093BC003AC0E091B90281E08E0FE2
S1130AB08093B9028091BB00F0E0E454FD4F808341
S1130AC02091B90230E08091BB0290E00197281791
S1130AD0390724F485EC8093BC0020C085E880931A
S1130AE0BC001CC08091BB00E091B902F0E0E4546A
S1130AF0FD4F80838091BA0281608093BA0284E9B9
S1130B008093BC000BC085EA8093BC0007C0809131
S1130B10B9008093070284E08093BC00FF91EF91B9
S1130B20BF91AF919F918F913F912F910F900BBEE9
S1130B300F900FBE0F901F9018955058BB27AA27EF
S1130B400ED075C166D130F06BD120F031F49F3FE7
S1130B5011F41EF45BC10EF4E095E7FB51C1E92FDB
S1130B6077D180F3BA17620773078407950718F0E3
S1130B7071F49EF58FC10EF4E0950B2EBA2FA02DC3
S1130B800B01B90190010C01CA01A0011124FF2736
S1130B90591B99F0593F50F4503E68F11A16F04031
S1130BA0A22F232F342F4427585FF3CF4695379530
S1130BB02795A795F0405395C9F77EF41F16BA0BF5
S1130BC0620B730B840BBAF09150A1F0FF0FBB1FA3
S1130BD0661F771F881FC2F70EC0BA0F621F731FEC
S1130BE0841F48F4879577956795B795F7959E3F49
S1130BF008F0B3CF9395880F08F09927EE0F9795D7
S1130C0087950895D9D008F481E008950CD00FC1D8
S1130C1007D140F0FED030F021F45F3F19F0F0C06E
S1130C20511139C1F3C014D198F39923C9F3552351
S1130C30B1F3951B550BBB27AA27621773078407CB
S1130C4038F09F5F5F4F220F331F441FAA1FA9F381
S1130C5033D00E2E3AF0E0E830D091505040E69573
S1130C60001CCAF729D0FE2F27D0660F771F881FD4
S1130C70BB1F261737074807AB07B0E809F0BB0BC3
S1130C80802DBF01FF2793585F4F2AF09E3F5105E7
S1130C9068F0B6C000C15F3FECF3983EDCF3869584
S1130CA077956795B795F7959F5FC9F7880F911D5D
S1130CB09695879597F90895E1E0660F771F881F49
S1130CC0BB1F621773078407BA0720F0621B730BFC
S1130CD0840BBA0BEE1F88F7E095089504D068944E
S1130CE0B111D9C00895BCD088F09F5790F0B92FA6
S1130CF09927B751A0F0D1F0660F771F881F991F6D
S1130D001AF0BA95C9F712C0B13081F0C3D0B1E07E
S1130D100895C0C0672F782F8827B85F39F0B93F8E
S1130D20CCF3869577956795B395D9F73EF490956E
S1130D308095709561957F4F8F4F9F4F0895E894EC
S1130D4009C097FB3EF490958095709561957F4F0F
S1130D508F4F9F4F9923A9F0F92F96E9BB279395BD
S1130D60F695879577956795B795F111F8CFFAF4CD
S1130D70BB0F11F460FF1BC06F5F7F4F8F4F9F4FFE
S1130D8016C0882311F096E911C0772321F09EE85C
S1130D90872F762F05C0662371F096E8862F70E0C2
S1130DA060E02AF09A95660F771F881FDAF7880F9C
S1130DB09695879597F90895990F0008550FAA0BF2
S1130DC0E0E8FEEF16161706E807F907C0F012165A
S1130DD01306E407F50798F0621B730B840B950B5D
S1130DE039F40A2661F0232B242B252B21F40895B2
S1130DF00A2609F4A140A6958FEF811D811D08954F
S1130E0097F99F6780E870E060E008959FEF80ECB9
S1130E10089500240A94161617061806090608955C
S1130E2000240A9412161306140605060895092EC2
S1130E300394000C11F4882352F0BB0F40F4BF2B31
S1130E4011F460FF04C06F5F7F4F8F4F9F4F089571
S1130E5057FD9058440F551F59F05F3F71F0479567
S1130E60880F97FB991F61F09F3F79F0879508954C
S1130E70121613061406551FF2CF4695F1DF08C06B
S1130E80161617061806991FF1CF86957105610588
S1130E9008940895E894BB2766277727CB0197F930
S1130EA008958ADF08F48FEF08950BD0C0CFB1DF27
S1130EB028F0B6DF18F0952309F0A2CFA7CF1124AC
S1130EC0EACFC6DFA0F3959FD1F3950F50E0551FED
S1130ED0629FF001729FBB27F00DB11D639FAA278B
S1130EE0F00DB11DAA1F649F6627B00DA11D661FDA
S1130EF0829F2227B00DA11D621F739FB00DA11DFB
S1130F00621F839FA00D611D221F749F3327A00DB4
S1130F10611D231F849F600D211D822F762F6A2F50
S1130F2011249F5750408AF0E1F088234AF0EE0FD5
S1130F30FF1FBB1F661F771F881F91505040A9F7E2
S1130F409E3F510570F05CCFA6CF5F3FECF3983E17
S1130F50DCF3869577956795B795F795E7959F5F49
S1130F60C1F7FE2B880F911D9695879597F90895E3
S1130F70EE0FFF1F0590F491E02D19940F931F932A
S1130F80CF93DF93EC018B01009731F46115710568
S1130F9019F480E090E037C06EE070E081E090E00A
S1130FA063D2FC010097A9F380E88383011511053E
S1130FB071F01387028781E883838091C70290913F
S1130FC0C802892B21F4F093C802E093C70220974A
S1130FD0C9F0D187C0878381826083838091C902ED
S1130FE09091CA02892B71F4F093CA02E093C9026A
S1130FF08091CB029091CC02892B21F4F093CC0206
S1131000E093CB02CF01DF91CF911F910F9108950F
S1131010CF93DF93CDB7DEB7FE0136966191719120
S1131020AF018091C9029091CA0230D0DF91CF9173
S113103008950F931F93CF93DF93E091C902F0912A
S1131040CA02238121FF1BC0EC0100E010E089915A
S11310506091C9027091CA02DB011896ED91FC916E
S11310601997882331F01995892B89F30FEF1FEF16
S1131070EECF8AE01995892B11F4C80102C08FEFD5
S11310809FEFDF91CF911F910F9108952F923F927F
S11310904F925F926F927F928F929F92AF92BF9284
S11310A0CF92DF92EF92FF920F931F93CF93DF9330
S11310B0CDB7DEB72C970FB6F894DEBF0FBECDBF09
S11310C07C016B018A01FC0117821682838181FFF6
S11310D0B0C1CE0101964C01F7019381F60193FD55
S11310E0859193FF81916F01882309F49EC1853214
S11310F039F493FD859193FF81916F01853221F439
S1131100B70190E00FD3E8CF512C312C20E02032EE
S1131110A0F48B3269F030F4803259F0833269F4F0
S113112020612CC08D3239F0803339F4216026C01F
S11311302260246023C0286021C027FD27C030ED31
S1131140380F3A3078F426FF06C0FAE05F9E300D7F
S11311501124532E13C08AE0389E300D1124332EEF
S113116020620CC08E3221F426FD5FC1206406C0CB
S11311708C3611F4206802C0883641F4F60193FDE0
S1131180859193FF81916F018111C1CF982F9F7D2C
S11311909554933028F40C5F1F4FFFE3F9830DC07F
S11311A0833631F0833771F0833509F057C021C09D
S11311B0F801808189830E5F1F4F44244394512C8E
S11311C0540114C03801F2E06F0E711CF801A080C4
S11311D0B18026FF03C0652D70E002C06FEF7FEF82
S11311E0C5012C8794D22C0183012C852F77222EC4
S11311F016C03801F2E06F0E711CF801A080B180B6
S113120026FF03C0652D70E002C06FEF7FEFC501BC
S11312102C876BD22C012C852068222E830123FC81
S113122019C0832D90E048165906A0F4B70180E256
S113123090E078D23A94F5CFF50127FC859127FE0A
S113124081915F01B70190E06DD231103A94F1E0E1
S11312504F1A51084114510479F7DEC0843611F055
S1131260893631F5F80127FF07C0608171818281D9
S113127093810C5F1F4F08C060817181882777FDBF
S11312808095982F0E5F1F4F2F76B22E97FF09C0BF
S113129090958095709561957F4F8F4F9F4F2068F3
S11312A0B22E2AE030E0A4016FD2A82EA81843C0C1
S11312B0853729F42F7EB22E2AE030E025C0F22FA4
S11312C0F97FBF2E8F36C1F018F4883579F0ADC0A0
S11312D0803719F0883721F0A8C02F2F2061B22E53
S11312E0B4FE0DC08B2D8460B82E09C024FF0AC043
S11312F09F2F9660B92E06C028E030E005C020E19B
S113130030E002C020E132E0F801B7FE07C060819E
S11313107181828193810C5F1F4F06C0608171814E
S113132080E090E00E5F1F4FA4012ED2A82EA818D3
S1131330FB2DFF77BF2EB6FE0BC02B2D2E7FA514E1
S113134050F4B4FE0AC0B2FC08C02B2D2E7E05C09A
S11313507A2C2B2D03C07A2C01C0752C24FF0DC0D0
S1131360FE01EA0DF11D8081803311F4297E09C04C
S113137022FF06C07394739404C0822F867809F008
S1131380739423FD12C020FF06C05A2C731418F462
S1131390530C5718732C731460F4B70180E290E077
S11313A02C87C0D173942C85F6CF731410F437189E
S11313B001C0312C24FF11C0B70180E390E02C87D9
S11313C0B1D12C8522FF16C021FF03C088E590E02F
S11313D002C088E790E0B7010CC0822F867851F0F4
S11313E021FD02C080E201C08BE227FD8DE2B7013E
S11313F090E098D1A51430F4B70180E390E092D145
S11314005A94F8CFAA94F401EA0DF11D8081B70132
S113141090E088D1A110F6CF332009F45DCEB70156
S113142080E290E07FD13A94F7CFF70186819781EB
S113143002C08FEF9FEF2C960FB6F894DEBF0FBE5D
S1131440CDBFDF91CF911F910F91FF90EF90DF906F
S1131450CF90BF90AF909F908F907F906F905F9050
S11314604F903F902F9008950F931F93CF93DF9346
S1131470869F8001879F100D969F100D1124C8012F
S11314800DD0EC01009721F0A80160E070E038D1A4
S1131490CE01DF91CF911F910F910895CF93DF93E8
S11314A08230910510F482E090E0E091CF02F09157
S11314B0D00220E030E0A0E0B0E0309739F1408184
S11314C0518148175907B8F04817590771F48281B8
S11314D09381109729F013969C938E9312972CC0A6
S11314E09093D0028093CF0227C02115310531F0AB
S11314F04217530718F0A901DB0101C0EF019A015B
S1131500BD01DF010280F381E02DD7CF2115310524
S1131510F9F0281B390B2430310580F48A819B8132
S11315206115710521F0FB019383828304C09093BC
S1131530D0028093CF02FE01329644C0FE01E20F36
S1131540F31F8193919322503109398328833AC040
S11315502091CD023091CE02232B41F4209102023E
S1131560309103023093CE022093CD0220910002E9
S1131570309101022115310541F42DB73EB7409158
S1131580040250910502241B350BE091CD02F09129
S1131590CE02E217F307A0F42E1B3F0B28173907DE
S11315A078F0AC014E5F5F4F2417350748F04E0FBB
S11315B05F1F5093CE024093CD028193919302C05A
S11315C0E0E0F0E0CF01DF91CF910895CF93DF9376
S11315D0009709F487C0FC01329713821282C091EC
S11315E0CF02D091D002209781F420813181280F3D
S11315F0391F8091CD029091CE028217930779F51D
S1131600F093CE02E093CD026DC0DE0120E030E025
S1131610AE17BF0750F412964D915C9113979D013C
S11316204115510509F1DA01F3CFB383A283408157
S11316305181840F951F8A179B0771F48D919C919A
S11316401197840F951F02969183808312968D9132
S11316509C911397938382832115310529F4F09388
S1131660D002E093CF023EC0D9011396FC93EE93CF
S113167012974D915D91A40FB51FEA17FB0779F4FA
S113168080819181840F951F0296D90111969C93B4
S11316908E938281938113969C938E931297E0E0AC
S11316A0F0E08A819B81009719F0FE01EC01F9CFEB
S11316B0CE01029628813981820F931F2091CD0299
S11316C03091CE022817390769F4309729F4109223
S11316D0D0021092CF0202C013821282D093CE02A3
S11316E0C093CD02DF91CF910895FC010590615024
S11316F070400110D8F7809590958E0F9F1F089524
S1131700DC0101C06D9341505040E0F70895FC01A5
S11317106150704001900110D8F7809590958E0F1C
S11317209F1F08950F931F93CF93DF93182F092FB3
S1131730EB018B8181FD03C08FEF9FEF20C082FFFF
S113174010C04E815F812C813D81421753077CF488
S1131750E881F9819F012F5F3F4F398328831083EC
S113176006C0E885F985812F1995892B29F72E81E3
S11317703F812F5F3F4F3F832E83812F902FDF9137
S1131780CF911F910F910895FA01AA27283051F1A2
S1131790203181F1E8946F936E7F6E5F7F4F8F4F9E
S11317A09F4FAF4FB1E03ED0B4E03CD0670F781FFD
S11317B0891F9A1FA11D680F791F8A1F911DA11DE2
S11317C06A0F711D811D911DA11D20D009F468941B
S11317D03F912AE0269F11243019305D3193DEF6C3
S11317E0CF010895462F4770405D4193B3E00FD079
S11317F0C9F7F6CF462F4F70405D4A3318F0495D64
S113180031FD4052419302D0A9F7EACFB4E0A69546
S11318109795879577956795BA95C9F70097610568
S1131820710508959B01AC010A2E069457954795BE
S113183037952795BA95C9F7620F731F841F951FB3
S10B1840A01D0895F894FFCFE8
S11318480000D102200084F84D4350323531352050
S11318586973204E4F5420696E20636F6E66696702
S1131868206D6F64652061667465722072657365A6
S11318787421004D435032353135206973204E4F61
S11318885420696E206E6F726D616C206D6F646593
S1131898210043616E2073656E6400656E636F6436
S11318A865722076616C75652025640A00746F7012
S11318B82025640A0063616E207265636569766534
S11318C8642000785F706F7320256420092000422B
S11318D87574746F6E20256420092000736C696424
S11318E865722072202564200A0073686F6F740083
S9030000FC
