S00D00004E6F6465322E737265635F
S1130000C2C00000E0C00000DEC00000DCC0000090
S1130010DAC00000D8C00000D6C00000D4C0000080
S1130020D2C00000E6C10000CEC00000CCC0000079
S1130030CAC00000C8C00000C6C00000C4C00000A0
S1130040C2C00000C0C00000BEC00000BCC00000B0
S1130050BAC00000B8C00000B6C00000B4C00000C0
S1130060B2C00000B0C00000AEC00000ACC00000D0
S1130070AAC0000016C20000A6C00000A4C0000070
S1130080A2C00000A0C000009EC00000E9C30000A0
S11300909AC0000098C0000096C00000F7C7000096
S11300A092C0000090C000008EC000008CC0000010
S11300B08AC0000088C0000086C0000084C0000020
S11300C082C0000080C000007EC000007CC0000030
S11300D07AC0000078C0000076C0000074C0000040
S11300E072C000006108B308B308B308B308B308CA
S11300F0B308B3086108B308B308B308B308B30876
S1130100B308B3086308B308B308B308B308B30863
S1130110B308B308B308B308B308B308B308B30803
S1130120B308B3086308B308B308B308B308B30843
S1130130B308B308B308B308B308B308B308B308E3
S1130140B308B308AF08B308B308B308B308B308D7
S1130150B308B3088C08B308B308B308B308B308EA
S1130160B308B308B308B308B308B308B308B308B3
S1130170B308B3088008B308B308B308B308B308D6
S1130180B308B3089E0811241FBECFEFD1E2DEBF2F
S1130190CDBF00E00CBF13E0A0E0B2E0E0EAFEE176
S11301A000E00BBF02C007900D92AC33B107D9F742
S11301B023E0ACE3B3E001C01D92AF37B207E1F72F
S11301C023D60C944E0F1CCFCF93DF931F92CDB741
S11301D0DEB7C0D6D5D58FE99FE00197F1F700C00F
S11301E000008EE0D2D589838981807E803839F001
S11301F083E192E00E94450B81E090E02DC041E054
S113020061E08BE2EDD54FEF60E680E6E9D540E0B2
S113021060EE8FE0E5D58EE0B8D589838981807E54
S113022039F08EE392E00E94450B81E090E014C027
S1130230EBE6F0E0808180648083E8E6F0E0808192
S113024081608083E9E6F0E080818D7F8083808116
S11302508E7F808380E090E00F90DF91CF910895AE
S113026080E393D586958695869591E0892781705C
S113027090E00895EF92FF920F931F93CF93DF9333
S11302807C01EEDF892BB1F1F701608166956695FB
S1130290669581E388D5F70160816295660F607E7B
S11302A082E381D5F70162816F7085E37CD5F70124
S11302B0828193818930910554F088E090E09383A2
S11302C0828387010C5F1F4FC0E0D0E004C0181682
S11302D01906BCF30DC0F80161918F018C2F8A5C63
S11302E062D52196F70122813381C217D3079CF38B
S11302F081E068D5DF91CF911F910F91FF90EF902E
S113030008957F928F929F92AF92BF92CF92DF9285
S1130310EF92FF920F931F93CF93DF93CDB7DEB786
S11303202C970FB6F894DEBF0FBECDBF5C0181E6FB
S11303302CD5882E82E629D5829586958770912CB6
S1130340880C991C880C991C880C991C882A85E6B1
S11303501CD58F70C82ED12C89E0C816D10424F086
S11303606894CC24C3F8D12C1C141D049CF48E0175
S11303700B5F1F4F7801EC0CFD1C0F2EF6E67F2E51
S1130380F02D872D02D5F80181938F017394EE151A
S1130390FF05B9F7109249039A828982DC82CB82E5
S11303A08CE0FE013196D50101900D928A95E1F71A
S11303B0C5012C960FB6F894DEBF0FBECDBFDF91FA
S11303C0CF911F910F91FF90EF90DF90CF90BF904E
S11303D0AF909F908F907F90089540E061E08CE211
S11303E0FFD440E064E08CE2FBD481E080934903D5
S11303F008951F920F920FB60F9211240BB60F920D
S11304002F933F934F935F936F937F938F939F9318
S1130410AF93BF93EF93FF93E0DFFF91EF91BF9111
S1130420AF919F918F917F916F915F914F913F9188
S11304302F910F900BBE0F900FBE0F901F90189529
S11304408098EAE7F0E0808180688083808184601E
S11304508083808182608083808181608083ACE737
S1130460B0E08C9180688C938C9180648C938081B3
S1130470886080830895EAE7F0E080818064808367
S11304808091510390915203892BD1F3109252031E
S113049010925103809178002091790090E0922B82
S11304A008951F920F920FB60F9211248F939F936A
S11304B081E090E090935203809351039F918F9138
S11304C00F900FBE0F901F9018957894B3D5F894A1
S11304D0509A519A0895CF93DF9300D0CDB7DEB7E9
S11304E090E599831A828B8363E0CE010196ACD5A3
S11304F00F900F900F90DF91CF910895CF93DF93DA
S1130500CDB7DEB768970FB6F894DEBF0FBECDBF88
S1130510E1E7F0E080818E7F80838DE592E00E94A8
S1130520450BCE010196EDDE89819A81039719F579
S11305308D81809357038E81809358038F8190E03F
S1130540009729F410923D0310923C030EC02091B1
S11305503C0330913D038217930739F0E2D381E0E5
S113056090E090933D0380933C03E1E7F0E08081C9
S11305708160808310C0CE010D962CE0FC011192A5
S11305802A95E9F724E030E03E872D8721E030E02A
S1130590388B2F876FDE68960FB6F894DEBF0FBED8
S11305A0CDBFDF91CF910895CF92DF92EF92FF926A
S11305B00F931F93CF93DF93C1E7D0E088818E7FA1
S11305C08883C0905903D0905A03E0905B03F09065
S11305D05C0300915303109154032091550330910F
S11305E0560340915D0350915E0360915F037091E7
S11305F060038091580390E06AD277D180915703C9
S11306005DD388818160888310923F0310923E03FA
S1130610DF91CF911F910F91FF90EF90DF90CF90DA
S113062008950F931F93CF93DF93CDB7DEB72C9725
S11306300FB6F894DEBF0FBECDBF8E010F5F1F4F04
S11306408CE0F80111928A95E9F781E090E09A83B1
S113065089839C838B8386E792E00E94450BC801C3
S113066009DE2C960FB6F894DEBF0FBECDBFDF9126
S1130670CF911F910F91089511C080914903811169
S11306803DDF80913E0390913F03019709F48CDF95
S11306908FE39FE10197F1F700C000000DD1892B92
S11306A021F480916803813041F3BBDF8EE892E04E
S11306B0ECD7109268030895811125C086E696E66A
S11306C0A6E6BFE380935D0390935E03A0935F036C
S11306D0B093600389E29CE5AFE8BDE380935903DE
S11306E090935A03A0935B03B0935C038DEC9CEC52
S11306F0ACECBDE38093530390935403A093550350
S1130700B09356030895813029F583E393E3A3E777
S1130710BFE380935D0390935E03A0935F03B09364
S113072060038DEC9CECACECBDE380935903909397
S11307305A03A0935B03B0935C038DEC9CECACE494
S1130740BDE38093530390935403A0935503B09354
S113075056030895823021F580E090E0A0E8BFE3DD
S113076080935D0390935E03A0935F03B093600353
S11307708DEC9CECACECBDE38093590390935A034D
S1130780A0935B03B0935C038AE097EDA3E2BCE320
S11307908093530390935403A0935503B09356034B
S11307A00895811107C086E990E0909347038093F0
S11307B046030895813039F484EB90E09093470325
S11307C0809346030895823031F481EE90E0909353
S11307D04703809346030895CF93DF93C1E7D0E0A6
S11307E088818E7F88838091580390E012D2809113
S11307F0570364D288818160888310923F031092EA
S11308003E03DF91CF91089511C080914903811176
S113081075DE80913E0390913F03019709F4DCDF7C
S11308208FE39FE10197F1F700C0000045D0892BC9
S113083021F480916803823041F31DDE9F938F93EE
S113084089E992E09F938F930FD7EBDE82EA92E0DF
S11308501CD7109268030F900F900F900F9008957B
S11308601F920F920FB60F9211248F939F9381E0E2
S113087090E090933F0380933E039F918F910F905C
S11308800FBE0F901F9018950F931F93CF93DF9374
S1130890C4E0D0E000E010E0EEDD080F191F21975E
S11308A02097D1F7C8019695879596958795DF91FE
S11308B0CF911F910F910895E7DF21E030E04E972B
S11308C014F020E030E0C901089580916303813081
S11308D031F4E2E0F1E080818D7F80830895E2E0ED
S11308E0F1E08081826080830895CF93C82FEDDF8B
S11308F08C2FF1DDCF910895E2E0F1E080818F7BD0
S113090080832FEF8AE693E0215080409040E1F706
S113091000C000008081806480830895D6DDE1E01A
S1130920F1E0808180618083A2E0B1E08C918061FC
S11309308C938081826080838081806280838081C7
S1130940886080838081806480838C9180628C93B2
S11309508C9180648C9310920701CEDFE0E9F0E083
S113096080818D7F808380818E7F8083E1E9F0E0C8
S1130970808182608083E1E7F0E080818160808310
S11309800895E2E0F1E080818F7D80838081877F1C
S113099080832FEF39EF40E0215030404040E1F7B1
S11309A000C000008091060190E0982F88272081E4
S11309B0286020832FEF39EF40E021503040404041
S11309C0E1F700C0000020910601308130623083DD
S11309D0822B0895CF92DF92EF92FF92CF93DF9311
S11309E0D0DFEC01609164037091650371956195AA
S11309F07109882777FD8095982FCFD49B01AC018E
S1130A0060E070E08FE793E42DD46B017C01F7FA8A
S1130A10F094F7F8F094BE01882777FD8095982F1D
S1130A20BCD49B01AC01C701B6016BD583D4CB0107
S1130A30DF91CF91FF90EF90DF90CF90089581E008
S1130A408093630386E990E050DF2FEF8DE292E21A
S1130A50215080409040E1F700C000004DDF10922B
S1130A60630386E990E041DF2FEF8DE292E22150AB
S1130A7080409040E1F700C0000083DF909365035D
S1130A80809364037EDF9F938F938BEA92E09F931E
S1130A908F93EAD580E090E028DF81E080936303C0
S1130AA086E990E022DF6DDF909362038093610317
S1130AB02FEF87E99AE3215080409040E1F700C08E
S1130AC000001ADF0F900F900F900F9008954F922F
S1130AD05F926F927F928F929F92AF92BF92CF92CA
S1130AE0DF92EF92FF920F931F93CF93DF93EC016A
S1130AF04A015B01280139016DDFC81BD90B1C16A3
S1130B001D061CF41092630303C081E08093630309
S1130B108E01DD2324F4002711270C1B1D0B02304A
S1130B201105F4F0BE01882777FD8095982F35D400
S1130B302FE632E143E05DE3E4D49B01AC01609134
S1130B40400370914103809142039091430322D367
S1130B506093400370934103809342039093430353
S1130B60B801882777FD8095982F17D4A5019401A3
S1130B70C8D44B015C012091400330914103409162
S1130B80420350914303C301B201BBD49B01AC01A6
S1130B90C501B401FFD24B015C01809144039091E3
S1130BA04503BE01681B790B882777FD8095982F34
S1130BB0F4D32FE632E143E05DE354D39B01AC016F
S1130BC0C701B6019ED49B01AC01C501B401E2D2B8
S1130BD0B1D3772314F460E070E0D0934503C0935D
S1130BE04403CB016F3F710519F014F08FEF90E0CF
S1130BF0DF91CF911F910F91FF90EF90DF90CF90F5
S1130C00BF90AF909F908F907F906F905F904F9028
S1130C100895CF93DF93EC01803A910524F481E0A9
S1130C208093630305C08B35910514F01092630320
S1130C304CDEC13AD1058CF0BE0167587109882792
S1130C4077FD8095982FA9D320E030E048E050E468
S1130C5058D470D3562F472F1CC0CA35D105BCF4C5
S1130C6062E870E06C1B7D0B882777FD8095982FD8
S1130C7094D320E030E04FE753E443D420E030E065
S1130C8042E053E4EFD256D3562F472F02C050E030
S1130C9040E02091460330914703852F942F281775
S1130CA039070CF4C90117DCDF91CF91089567D19E
S1130CB066EA7BE984EC9AE389C108958838A8F050
S1130CC0682F70E064587109882777FD8095982F04
S1130CD064D32DEB37E346E856E313D426EA3BE925
S1130CE044EC5AE357D272C10895823888F4682FCD
S1130CF070E080E090E051D32DEB37E346E856E313
S1130D0000D42AEF3DEE4BE65AE344D25FC1089586
S1130D1066EA7BE984EC9AE359C10895829A8A9A37
S1130D2008958A982FEF81EE94E0215080409040FE
S1130D30E1F700C000008A9A0895E0ECF0E09081A9
S1130D4095FFFDCF8093C60080E090E00895E0EC2D
S1130D50F0E080818823ECF78091C60008958093A9
S1130D60C40088E18093C10067EA76E08DE996E0EB
S1130D7031D4909367038093660380E090E00895F4
S1130D80E5D080ECDDD0E4C00895CF93C82FDED049
S1130D9083E0D6D08C2FD4D080E0D2D0C82FD8D046
S1130DA08C2FCF910895CF93DF93D82FC62FCED019
S1130DB082E0C6D08D2FC4D08C2FC2D0C9D0DF9191
S1130DC0CF910895CF93C82FC1D0C83020F48C2F71
S1130DD08068B6D002C080E8B3D0BAD0CF9108956D
S1130DE01F93CF93DF93182FD62FC42FAFD085E056
S1130DF0A7D0812FA5D08D2FA3D08C2FA1D0A8D080
S1130E00DF91CF911F910895CF93DF93CDB7DEB7D4
S1130E102C970FB6F894DEBF0FBECDBFF89487E6CB
S1130E2090E09DDFD1D943DF0BDB78DF77DD789469
S1130E3083EC92E02AD410926803662463940F2E04
S1130E40F0E3EF2EF3E0FF2EF02D0F2EFCE05F2EEB
S1130E50F02D0F2EFEE68F2EF3E09F2EF02D0F2E99
S1130E60FDE6AF2EF3E0BF2EF02D0F2EF9E1CF2ECD
S1130E70F3E0DF2EF02D6894772471F806E313E095
S1130E8080916803813009F43FC020F0823009F476
S1130E9049C0F8CF80914903882391F3CE0101968C
S1130EA030DAFE013196A9E6B3E0852D01900D926A
S1130EB08A95E1F78091690390916A03029709F595
S1130EC0BEDD80E093E0E1D3F40180811F928F9333
S1130ED0F50180811F928F93DF92CF92C5D386E074
S1130EE092E0C8D9F501808180936803F401808180
S1130EF0809348030F900F900F900F900F900F90D6
S1130F00BFCF10926803BCCF1F926F92FF92EF92F3
S1130F10ABD380914803D0DBAFDB0F900F900F90E1
S1130F200F90AECF1F927F921F930F939DD380910A
S1130F30480337DC69DC0F900F900F900F90A0CF1F
S1130F408EBD0DB407FEFDCF8EB508952F9808957C
S1130F502F9A08958CB580618CBD8CB581608CBD51
S1130F608CB588608CBD8CB584608CBD229A219A26
S1130F70279A209A8CB580648CBDEACF0895E0E866
S1130F80F0E080818068808380818F7B8083808192
S1130F908260808380818E7F8083E1E8F0E08081BD
S1130FA08860808380818061808380818460808385
S1130FB080818D7F808380818E7F8083259A81EEDE
S1130FC094E090938700809386000895CF92DF92F7
S1130FD0EF92FF92CF936B017C01F894C1E02AEF6A
S1130FE03DEE4BE65AE389D218160CF0C0E0CC2350
S1130FF0D1F027E230EA49E05BE3C701B6012ED124
S113100088238CF420E034E244E757E4C701B601B6
S113101078D220E030E040E05FE3BBD090D1709321
S11310208900609388007894CF91FF90EF90DF90CF
S1131030CF9008958CE08093B8008FEF8093BB002D
S113104084E08093BC000895ECEBF0E0208120FD67
S1131050FDCF60934C03FC01208120934D0320FDC0
S11310600CC0623050F0DC011196EEE4F3E081E054
S11310709D9191938F5F8613FBCF10924B0388EF62
S11310808093120285EA8093BC0008951F920F9208
S11310900FB60F9211240BB60F922F933F938F9399
S11310A09F93AF93BF93EF93FF938091B90090E028
S11310B0FC013897E135F10508F055C0EE58FF4FB3
S11310C083C210924A03E0914A0380914C03E817CB
S11310D070F481E08E0F80934A03F0E0E35BFC4FF1
S11310E080818093BB0085E88093BC0043C08091DD
S11310F04B03816080934B0384E98093BC003AC026
S1131100E0914A0381E08E0F80934A038091BB00F3
S1131110F0E0E35BFC4F808320914A0330E0809150
S11311204C0390E001972817390724F485EC809349
S1131130BC0020C085E88093BC001CC08091BB002B
S1131140E0914A03F0E0E35BFC4F808380914B0322
S1131150816080934B0384E98093BC000BC085EAD3
S11311608093BC0007C08091B9008093120284E090
S11311708093BC00FF91EF91BF91AF919F918F91AC
S11311803F912F910F900BBE0F900FBE0F901F90A9
S113119018955058BB27AA270ED075C166D130F0D8
S11311A06BD120F031F49F3F11F41EF45BC10EF4B7
S11311B0E095E7FB51C1E92F77D180F3BA176207B5
S11311C073078407950718F071F49EF58FC10EF428
S11311D0E0950B2EBA2FA02D0B01B90190010C0143
S11311E0CA01A0011124FF27591B99F0593F50F45B
S11311F0503E68F11A16F040A22F232F342F4427B3
S1131200585FF3CF469537952795A795F0405395AA
S1131210C9F77EF41F16BA0B620B730B840BBAF07A
S11312209150A1F0FF0FBB1F661F771F881FC2F7E5
S11312300EC0BA0F621F731F841F48F487957795F9
S11312406795B795F7959E3F08F0B3CF9395880FB0
S113125008F09927EE0F979587950895D9D008F44B
S113126081E008950CD00FC107D140F0FED030F0DA
S113127021F45F3F19F0F0C0511139C1F3C014D10A
S113128098F39923C9F35523B1F3951B550BBB2749
S1131290AA2762177307840738F09F5F5F4F220FF6
S11312A0331F441FAA1FA9F333D00E2E3AF0E0E8EF
S11312B030D091505040E695001CCAF729D0FE2F3B
S11312C027D0660F771F881FBB1F261737074807CD
S11312D0AB07B0E809F0BB0B802DBF01FF27935883
S11312E05F4F2AF09E3F510568F0B6C000C15F3FD2
S11312F0ECF3983EDCF3869577956795B795F7956B
S11313009F5FC9F7880F911D9695879597F9089562
S1131310E1E0660F771F881FBB1F621773078407FE
S1131320BA0720F0621B730B840BBA0BEE1F88F70D
S1131330E095089504D06894B111D9C00895BCD043
S113134088F09F5790F0B92F9927B751A0F0D1F0AA
S1131350660F771F881F991F1AF0BA95C9F712C034
S1131360B13081F0C3D0B1E00895C0C0672F782FA9
S11313708827B85F39F0B93FCCF3869577956795A0
S1131380B395D9F73EF490958095709561957F4F0C
S11313908F4F9F4F0895E89409C097FB3EF49095B2
S11313A08095709561957F4F8F4F9F4F9923A9F03A
S11313B0F92F96E9BB279395F695879577956795C9
S11313C0B795F111F8CFFAF4BB0F11F460FF1BC00D
S11313D06F5F7F4F8F4F9F4F16C0882311F096E9A0
S11313E011C0772321F09EE8872F762F05C066234E
S11313F071F096E8862F70E060E02AF09A95660F07
S1131400771F881FDAF7880F9695879597F90895BF
S1131410990F0008550FAA0BE0E8FEEF1616170601
S1131420E807F907C0F012161306E407F50798F069
S1131430621B730B840B950B39F40A2661F0232B82
S1131440242B252B21F408950A2609F4A140A695FE
S11314508FEF811D811D089597F99F6780E870E0E3
S113146060E008959FEF80EC089500240A94161616
S1131470170618060906089500240A94121613067E
S1131480140605060895092E0394000C11F488230C
S113149052F0BB0F40F4BF2B11F460FF04C06F5F28
S11314A07F4F8F4F9F4F089557FD9058440F551FFE
S11314B059F05F3F71F04795880F97FB991F61F0D2
S11314C09F3F79F087950895121613061406551F49
S11314D0F2CF4695F1DF08C0161617061806991FB5
S11314E0F1CF86957105610508940895E894BB27AA
S11314F066277727CB0197F908958ADF08F48FEFE1
S113150008950BD0C0CFB1DF28F0B6DF18F09523D3
S113151009F0A2CFA7CF1124EACFC6DFA0F3959F8D
S1131520D1F3950F50E0551F629FF001729FBB27C6
S1131530F00DB11D639FAA27F00DB11DAA1F649F72
S11315406627B00DA11D661F829F2227B00DA11D25
S1131550621F739FB00DA11D621F839FA00D611DAB
S1131560221F749F3327A00D611D231F849F600DCC
S1131570211D822F762F6A2F11249F5750408AF005
S1131580E1F088234AF0EE0FFF1FBB1F661F771F91
S1131590881F91505040A9F79E3F510570F05CCFD1
S11315A0A6CF5F3FECF3983EDCF38695779567957D
S11315B0B795F795E7959F5FC1F7FE2B880F911DAF
S11315C09695879597F90895EE0FFF1F0590F4916E
S11315D0E02D19940F931F93CF93DF93EC018B01AC
S11315E0009731F46115710519F480E090E037C07B
S11315F06EE070E081E090E063D2FC010097A9F313
S113160080E883830115110571F01387028781E84F
S113161083838091750390917603892B21F4F09351
S11316207603E09375032097C9F0D187C08783813F
S1131630826083838091770390917803892B71F47E
S1131640F0937803E09377038091790390917A0380
S1131650892B21F4F0937A03E0937903CF01DF918E
S1131660CF911F910F910895CF93DF93CDB7DEB73C
S1131670FE01369661917191AF018091770390914B
S1131680780330D0DF91CF9108950F931F93CF93B8
S1131690DF93E0917703F0917803238121FF1BC04E
S11316A0EC0100E010E08991609177037091780378
S11316B0DB011896ED91FC911997882331F0199567
S11316C0892B89F30FEF1FEFEECF8AE01995892B51
S11316D011F4C80102C08FEF9FEFDF91CF911F91EA
S11316E00F9108952F923F924F925F926F927F9243
S11316F08F929F92AF92BF92CF92DF92EF92FF921E
S11317000F931F93CF93DF93CDB7DEB72C970FB60C
S1131710F894DEBF0FBECDBF7C016B018A01FC01D2
S113172017821682838181FFB0C1CE0101964C01DC
S1131730F7019381F60193FD859193FF81916F01E8
S1131740882309F49EC1853239F493FD859193FF72
S113175081916F01853221F4B70190E00FD3E8CF76
S1131760512C312C20E02032A0F48B3269F030F47B
S1131770803259F0833269F420612CC08D3239F003
S1131780803339F4216026C02260246023C028609D
S113179021C027FD27C030ED380F3A3078F426FFFA
S11317A006C0FAE05F9E300D1124532E13C08AE068
S11317B0389E300D1124332E20620CC08E3221F459
S11317C026FD5FC1206406C08C3611F4206802C077
S11317D0883641F4F60193FD859193FF81916F0161
S11317E08111C1CF982F9F7D9554933028F40C5FBD
S11317F01F4FFFE3F9830DC0833631F0833771F057
S1131800833509F057C021C0F801808189830E5FB8
S11318101F4F44244394512C540114C03801F2E066
S11318206F0E711CF801A080B18026FF03C0652DE6
S113183070E002C06FEF7FEFC5012C8794D22C01BA
S113184083012C852F77222E16C03801F2E06F0E0B
S1131850711CF801A080B18026FF03C0652D70E0E3
S113186002C06FEF7FEFC5012C876BD22C012C8552
S11318702068222E830123FC19C0832D90E0481692
S11318805906A0F4B70180E290E078D23A94F5CFFB
S1131890F50127FC859127FE81915F01B70190E056
S11318A06DD231103A94F1E04F1A510841145104A9
S11318B079F7DEC0843611F0893631F5F80127FF57
S11318C007C060817181828193810C5F1F4F08C0C2
S11318D060817181882777FD8095982F0E5F1F4F57
S11318E02F76B22E97FF09C09095809570956195DB
S11318F07F4F8F4F9F4F2068B22E2AE030E0A40123
S11319006FD2A82EA81843C0853729F42F7EB22E93
S11319102AE030E025C0F22FF97FBF2E8F36C1F0C8
S113192018F4883579F0ADC0803719F0883721F084
S1131930A8C02F2F2061B22EB4FE0DC08B2D846061
S1131940B82E09C024FF0AC09F2F9660B92E06C086
S113195028E030E005C020E130E002C020E132E0C0
S1131960F801B7FE07C060817181828193810C5FA9
S11319701F4F06C06081718180E090E00E5F1F4FB1
S1131980A4012ED2A82EA818FB2DFF77BF2EB6FED9
S11319900BC02B2D2E7FA51450F4B4FE0AC0B2FC4C
S11319A008C02B2D2E7E05C07A2C2B2D03C07A2C3B
S11319B001C0752C24FF0DC0FE01EA0DF11D8081CC
S11319C0803311F4297E09C022FF06C073947394F6
S11319D004C0822F867809F0739423FD12C020FF7F
S11319E006C05A2C731418F4530C5718732C731420
S11319F060F4B70180E290E02C87C0D173942C8509
S1131A00F6CF731410F4371801C0312C24FF11C021
S1131A10B70180E390E02C87B1D12C8522FF16C05A
S1131A2021FF03C088E590E002C088E790E0B70199
S1131A300CC0822F867851F021FD02C080E201C0E3
S1131A408BE227FD8DE2B70190E098D1A51430F424
S1131A50B70180E390E092D15A94F8CFAA94F401AC
S1131A60EA0DF11D8081B70190E088D1A110F6CF75
S1131A70332009F45DCEB70180E290E07FD13A943F
S1131A80F7CFF7018681978102C08FEF9FEF2C96E5
S1131A900FB6F894DEBF0FBECDBFDF91CF911F917B
S1131AA00F91FF90EF90DF90CF90BF90AF909F90F9
S1131AB08F907F906F905F904F903F902F900895FC
S1131AC00F931F93CF93DF93869F8001879F100D01
S1131AD0969F100D1124C8010DD0EC01009721F040
S1131AE0A80160E070E038D1CE01DF91CF911F9161
S1131AF00F910895CF93DF938230910510F482E023
S1131B0090E0E0917D03F0917E0320E030E0A0E0DE
S1131B10B0E0309739F14081518148175907B8F046
S1131B204817590771F482819381109729F013960D
S1131B309C938E9312972CC090937E0380937D0385
S1131B4027C02115310531F04217530718F0A901B8
S1131B50DB0101C0EF019A01BD01DF010280F381C5
S1131B60E02DD7CF21153105F9F0281B390B24308E
S1131B70310580F48A819B816115710521F0FB0197
S1131B809383828304C090937E0380937D03FE013C
S1131B90329644C0FE01E20FF31F819391932250C9
S1131BA03109398328833AC020917B0330917C0327
S1131BB0232B41F4209102023091030230937C03E1
S1131BC020937B03209100023091010221153105FD
S1131BD041F42DB73EB74091040250910502241BF5
S1131BE0350BE0917B03F0917C03E217F307A0F43B
S1131BF02E1B3F0B2817390778F0AC014E5F5F4F5F
S1131C002417350748F04E0F5F1F50937C03409311
S1131C107B038193919302C0E0E0F0E0CF01DF9178
S1131C20CF910895CF93DF93009709F487C0FC0107
S1131C30329713821282C0917D03D0917E03209744
S1131C4081F420813181280F391F80917B03909189
S1131C507C038217930779F5F0937C03E0937B036D
S1131C606DC0DE0120E030E0AE17BF0750F41296DD
S1131C704D915C9113979D014115510509F1DA01CC
S1131C80F3CFB383A28340815181840F951F8A17B8
S1131C909B0771F48D919C911197840F951F029667
S1131CA09183808312968D919C9113979383828361
S1131CB02115310529F4F0937E03E0937D033EC0A2
S1131CC0D9011396FC93EE9312974D915D91A40F55
S1131CD0B51FEA17FB0779F480819181840F951F62
S1131CE00296D90111969C938E93828193811396C7
S1131CF09C938E931297E0E0F0E08A819B81009799
S1131D0019F0FE01EC01F9CFCE0102962881398148
S1131D10820F931F20917B0330917C03281739078E
S1131D2069F4309729F410927E0310927D0302C067
S1131D3013821282D0937C03C0937B03DF91CF91F3
S1131D400895FC010590615070400110D8F780950A
S1131D5090958E0F9F1F0895DC0101C06D93415033
S1131D605040E0F70895FC0161507040019001106B
S1131D70D8F7809590958E0F9F1F08950F931F930A
S1131D80CF93DF93182F092FEB018B8181FD03C0C3
S1131D908FEF9FEF20C082FF10C04E815F812C81A6
S1131DA03D81421753077CF4E881F9819F012F5F3D
S1131DB03F4F39832883108306C0E885F985812F36
S1131DC01995892B29F72E813F812F5F3F4F3F8340
S1131DD02E83812F902FDF91CF911F910F91089522
S1131DE0FA01AA27283051F1203181F1E8946F9348
S1131DF06E7F6E5F7F4F8F4F9F4FAF4FB1E03ED0EE
S1131E00B4E03CD0670F781F891F9A1FA11D680F8B
S1131E10791F8A1F911DA11D6A0F711D811D911DBE
S1131E20A11D20D009F468943F912AE0269F112433
S1131E303019305D3193DEF6CF010895462F477097
S1131E40405D4193B3E00FD0C9F7F6CF462F4F70F2
S1131E50405D4A3318F0495D31FD4052419302D050
S1131E60A9F7EACFB4E0A6959795879577956795F6
S1131E70BA95C9F700976105710508959B01AC01F6
S1131E800A2E06945795479537952795BA95C9F71D
S1131E90620F731F841F951FA01D0895F894FFCF30
S1131EA000007F0320000200010000000000000089
S1131EB00000F84D435032353135206973204E4FC0
S1131EC05420696E20636F6E666967206D6F646568
S1131ED020616674657220726573657421004D43D8
S1131EE05032353135206973204E4F5420696E20AD
S1131EF06E6F726D616C206D6F6465210075706426
S1131F006174696E6720636F6E74726F6C207661A2
S1131F106C756573200053656E646572206D656C25
S1131F2064696E67206F6D2053434F5245004944E6
S1131F304C45205354415445004144433A202564C0
S1131F400A00454E442047414D4500726967687454
S1131F5020656E636F6465722076616C75652025FB
S1131F60640A000A2D2D2D2D2D2D2D2D2D2D2D2DD9
S1131F702D2D2D2D2D2D2D2D2D2D0A0A4E4F444561
S1131F802032200A0A202D2D2D2D2D2D2D2D2D2DE5
S1131F902D2D2D2D2D2D2D2D2D2D2D2D2D2D2D009A
S1131FA0494E4954206D6573736167652066726F8D
S1131FB06D204E6F6465203100436F6E66696775EE
S1131FC0726174696F6E202564092025643A0A00E1
S10F1FD0555342200A00505332200A00EE
S9030000FC
