S00D00004E6F6465322E737265635F
S1130000C2C00000E0C00000DEC00000DCC0000090
S1130010DAC00000D8C00000D6C00000D4C0000080
S1130020D2C00000E5C10000CEC00000CCC000007A
S1130030CAC00000C8C00000C6C00000C4C00000A0
S1130040C2C00000C0C00000BEC00000BCC00000B0
S1130050BAC00000B8C00000B6C00000B4C00000C0
S1130060B2C00000B0C00000AEC00000ACC00000D0
S1130070AAC0000015C20000A6C00000A4C0000071
S1130080A2C00000A0C000009EC0000018C500006F
S11300909AC0000098C0000096C00000C4C50000CB
S11300A092C0000090C000008EC000008CC0000010
S11300B08AC0000088C0000086C0000084C0000020
S11300C082C0000080C000007EC000007CC0000030
S11300D07AC0000078C0000076C0000074C0000040
S11300E072C000002E068006800680068006800608
S11300F0800680062E06800680068006800680061E
S1130100800680063006800680068006800680060B
S113011080068006800680068006800680068006AB
S113012080068006300680068006800680068006EB
S1130130800680068006800680068006800680068B
S1130140800680067C06800680068006800680067F
S11301508006800659068006800680068006800692
S1130160800680068006800680068006800680065B
S1130170800680064D06800680068006800680067E
S1130180800680066B0611241FBECFEFD1E2DEBFCE
S1130190CDBF00E00CBF12E0A0E0B2E0EAE3FAE178
S11301A000E00BBF02C007900D92A239B107D9F746
S11301B022E0A2E9B2E001C01D92A93BB207E1F737
S11301C00AD40C941B0D1CCFCF93DF931F92CDB791
S11301D0DEB793D4BCD38FE99FE00197F1F700C059
S11301E000008EE0B9D389838981807E803839F01C
S11301F087E092E00E94120981E090E02CC041E087
S113020061E08BE2D4D34FEF60E680E6D0D340E0E8
S113021060EE8FE0CCD38EE09FD389838981807E8A
S113022031F082E392E0FED781E090E014C0EBE687
S1130230F0E0808180648083E8E6F0E08081816082
S11302408083E9E6F0E080818D7F808380818E7FEA
S1130250808380E090E00F90DF91CF91089580E358
S11302607BD386958695869591E08927817090E069
S11302700895EF92FF920F931F93CF93DF937C0126
S1130280EEDF892BB1F1F70160816695669566957D
S113029081E370D3F70160816295660F607E82E32B
S11302A069D3F70162816F7085E364D3F7018281BA
S11302B093818930910554F088E090E093838283A0
S11302C087010C5F1F4FC0E0D0E004C01816190668
S11302D0BCF30DC0F80161918F018C2F8A5C4AD365
S11302E02196F70122813381C217D3079CF381E061
S11302F050D3DF91CF911F910F91FF90EF9008950C
S11303007F928F929F92AF92BF92CF92DF92EF92A1
S1130310FF920F931F93CF93DF93CDB7DEB72C9744
S11303200FB6F894DEBF0FBECDBF5C0181E614D3D7
S1130330882E82E611D3829586958770912C880C3D
S1130340991C880C991C880C991C882A85E604D36E
S11303508F70C82ED12C89E0C816D10424F068947B
S1130360CC24C3F8D12C1C141D049CF48E010B5F07
S11303701F4F7801EC0CFD1C0F2EF6E67F2EF02D9E
S1130380872DEAD2F80181938F017394EE15FF054E
S1130390B9F710929D029A828982DC82CB828CE02A
S11303A0FE013196D50101900D928A95E1F7C501C0
S11303B02C960FB6F894DEBF0FBECDBFDF91CF9160
S11303C01F910F91FF90EF90DF90CF90BF90AF906F
S11303D09F908F907F90089540E061E08CE2E7D297
S11303E040E064E08CE2E3D281E080939D020895D2
S11303F01F920F920FB60F9211240BB60F922F93E8
S11304003F934F935F936F937F938F939F93AF9398
S1130410BF93EF93FF93E0DFFF91EF91BF91AF9113
S11304209F918F917F916F915F914F913F912F9108
S11304300F900BBE0F900FBE0F901F9018958098D1
S1130440EAE7F0E080818068808380818460808333
S1130450808182608083808181608083ACE7B0E0AA
S11304608C9180688C938C9180648C93808188605B
S113047080830895EAE7F0E080818064808380913E
S1130480A5029091A602892BD1F31092A602109294
S1130490A502809178002091790090E0922B089534
S11304A01F920F920FB60F9211248F939F9381E0A6
S11304B090E09093A6028093A5029F918F910F9054
S11304C00FBE0F901F901895789481D3F894509A8A
S11304D0519A0895CF93DF9300D0CDB7DEB790E55E
S11304E099831A828B8363E0CE0101967AD30F90AD
S11304F00F900F90DF91CF9108950F931F93CF9397
S1130500DF93C4E0D0E000E010E0B4DF080F191F6F
S113051021972097D1F7C801969587959695879549
S1130520DF91CF911F910F910895E7DF21E030E033
S11305308A3F910514F020E030E0C90108958091CC
S1130540A902813031F4E2E0F1E080818D7F808383
S11305500895E2E0F1E08081826080830895CF9382
S1130560C82FEDDF8C2FB6DFCF910895E2E0F1E0E4
S113057080818F7B80832FEF8AE693E02150804037
S11305809040E1F700C0000080818064808308957A
S1130590E2E0F1E080818F7D80838081877F8083AA
S11305A02FEF39EF40E0215030404040E1F700C0E8
S11305B000008091060190E0982F88272081286010
S11305C020832FEF39EF40E0215030404040E1F7E5
S11305D000C0000020910601308130623083822BFC
S11305E00895CF92DF92EF92FF92CF93DF93D0DF03
S11305F0EC016091AA027091AB0271956195710949
S1130600882777FD8095982F95D49B01AC0160E0F5
S113061070E08FE793E4F3D36B017C01F7FAF09475
S1130620F7F8F094BE01882777FD8095982F82D43F
S11306309B01AC01C701B60131D549D4CB01DF918F
S1130640CF91FF90EF90DF90CF90089581E0809359
S1130650A90286E990E083DF2FEF8DE292E2215038
S113066080409040E1F700C0000080DF1092A902B2
S113067086E990E074DF2FEF8DE292E22150804012
S11306809040E1F700C0000083DF9093AB028093B9
S1130690AA027EDF9F938F9381E592E09F938F93CD
S11306A0B0D580E090E05BDF81E08093A90286E929
S11306B090E055DF6DDF9093A8028093A7022FEF9F
S11306C087E99AE3215080409040E1F700C00000A0
S11306D04DDF0F900F900F900F900895F5DEE1E03D
S11306E0F1E0808180618083A2E0B1E08C9180613F
S11306F08C9380818260808380818062808380810A
S1130700886080838081806480838C9180628C93F4
S11307108C9180648C931092070128DF789496DF83
S1130720F894E0E9F0E080818D7F808380818E7F82
S11307308083E1E9F0E0808182608083E1E7F0E09A
S11307408081816080830895CF92DF92EF92FF923F
S11307500F931F93CF93DF93EC0143DFC81BD90B97
S11307601C161D061CF41092A90203C081E080939C
S1130770A9027E01DD2324F4EE24FF24EC1AFD0AF1
S113078083E0E816F104F4F0BE01882777FD809534
S1130790982FD0D32FE632E143E05DE37FD49B0171
S11307A0AC016091920270919302809194029091B5
S11307B09502BDD260939202709393028093940247
S11307C090939502B701882777FD8095982FB2D32F
S11307D06B017C012AE037ED43E25CE36091920215
S11307E070919302809194029091950257D49B0149
S11307F0AC01C701B6019BD26B017C0180919602CA
S113080090919702BE01681B790B882777FD80952C
S1130810982F90D32FE632E143E05DE3F0D22DEC44
S11308203CEC4CEC5DE33AD49B01AC01C701B6014E
S11308307ED24DD3772314F460E070E08B016F3FD8
S1130840710519F014F00FEF10E01F930F9389E670
S113085092E09F938F93D5D4D0939702C09396023E
S11308600F900F900F900F90C801DF91CF911F91BF
S11308700F91FF90EF90DF90CF9008954DD166EAED
S11308807BE984EC9AE36FC108958838A8F0682F57
S113089070E064587109882777FD8095982F4AD3B2
S11308A02DEB37E346E856E3F9D326EA3BE944EC7B
S11308B05AE33DD258C10895823888F4682F70E015
S11308C080E090E037D32DEB37E346E856E3E6D3F8
S11308D02AEF3DEE4BE65AE32AD245C1089566EA73
S11308E07BE984EC9AE33FC10895819A899A08953B
S11308F089982FEF81EE94E0215080409040E1F7F9
S113090000C00000899A0895E0ECF0E0908195FF22
S1130910FDCF8093C60080E090E00895E0ECF0E025
S113092080818823ECF78091C60008958093C400E9
S113093088E18093C1006EE874E084E894E017D401
S11309409093AD028093AC0280E090E00895D1D002
S113095080ECC9D0D0C00895CF93C82FCAD083E00B
S1130960C2D08C2FC0D080E0BED0C82FC4D08C2F72
S1130970CF910895CF93DF93D82FC62FBAD082E0BA
S1130980B2D08D2FB0D08C2FAED0B5D0DF91CF9117
S11309900895CF93C82FADD0C83020F48C2F806831
S11309A0A2D002C080E89FD0A6D0CF9108951F9313
S11309B0CF93DF93182FD62FC42F9BD085E093D0ED
S11309C0812F91D08D2F8FD08C2F8DD094D0DF910B
S11309D0CF911F910895CF93DF93CDB7DEB72C97B6
S11309E00FB6F894DEBF0FBECDBFF89487E690E053
S11309F09DDFEADB43DF23DD78DF70DE78948E0150
S1130A000F5F1F4F0F2EF1E7CF2ED12CF02D0F2E9D
S1130A10FCE0AF2EF02DEE24E394F12C80919D02A6
S1130A20882399F0C8016CDC8D818093AE029E818D
S1130A3090939C02BF8029DF82E0B81204C084E74F
S1130A4092E0F0D355DF10929D0220919A023091EA
S1130A509B022130310589F4F60180818E7F8083E9
S1130A6080919C0290E070DE7ADDF60180818160E5
S1130A70808310929B0210929A0257DD9093990200
S1130A80809398020197A1F48AE792E0CBD3F8010E
S1130A908A2D11928A95E9F7FA82E982FC82EB8227
S1130AA0C801E7DB80919D028823E1F310929D0247
S1130AB0EFE9FFE03197F1F700C00000AFCF1F92DC
S1130AC00F920FB60F9211248F939F9381E090E0C1
S1130AD090939B0280939A029F918F910F900FBEE7
S1130AE00F901F9018958EBD0DB407FEFDCF8EB5E7
S1130AF008952F9808952F9A08958CB580618CBD20
S1130B008CB581608CBD229A219A279A209A8CB543
S1130B1080648CBDF0CF0895E0E8F0E080818068C7
S1130B20808380818F7B80838081826080838081C9
S1130B308E7F8083E1E8F0E080818860808380811B
S1130B408061808380818460808380818D7F8083C5
S1130B5080818E7F8083259A81EE94E09093870034
S1130B60809386000895CF92DF92EF92FF92CF9305
S1130B706B017C01F894C1E02AEF3DEE4BE65AE3A9
S1130B8089D218160CF0C0E0CC23D1F027E230EA69
S1130B9049E05BE3C701B6012ED188238CF420E041
S1130BA034E244E757E4C701B60178D220E030E0EC
S1130BB040E05FE3BBD090D17093890060938800DC
S1130BC07894CF91FF90EF90DF90CF9008958CE0D0
S1130BD08093B8008FEF8093BB0084E08093BC00C7
S1130BE00895ECEBF0E0208120FDFDCF6093A0029E
S1130BF0FC0120812093A10220FD0CC0623050F042
S1130C00DC011196E2EAF2E081E09D9191938F5F1D
S1130C108613FBCF10929F0288EF8093060285EA29
S1130C208093BC0008951F920F920FB60F92112467
S1130C300BB60F922F933F938F939F93AF93BF93D2
S1130C40EF93FF938091B90090E0FC013897E13570
S1130C50F10508F055C0EE58FF4F83C210929E0272
S1130C60E0919E028091A002E81770F481E08E0F5B
S1130C7080939E02F0E0EF55FD4F80818093BB008E
S1130C8085E88093BC0043C080919F02816080937B
S1130C909F0284E98093BC003AC0E0919E0281E007
S1130CA08E0F80939E028091BB00F0E0EF55FD4FC4
S1130CB0808320919E0230E08091A00290E0019711
S1130CC02817390724F485EC8093BC0020C085E8FC
S1130CD08093BC001CC08091BB00E0919E02F0E0B8
S1130CE0EF55FD4F808380919F02816080939F0226
S1130CF084E98093BC000BC085EA8093BC0007C0E4
S1130D008091B9008093060284E08093BC00FF9137
S1130D10EF91BF91AF919F918F913F912F910F9040
S1130D200BBE0F900FBE0F901F9018955058BB2705
S1130D30AA270ED075C166D130F06BD120F031F402
S1130D409F3F11F41EF45BC10EF4E095E7FB51C123
S1130D50E92F77D180F3BA176207730784079507E1
S1130D6018F071F49EF58FC10EF4E0950B2EBA2F96
S1130D70A02D0B01B90190010C01CA01A00111249D
S1130D80FF27591B99F0593F50F4503E68F11A1649
S1130D90F040A22F232F342F4427585FF3CF4695DA
S1130DA037952795A795F0405395C9F77EF41F16FC
S1130DB0BA0B620B730B840BBAF09150A1F0FF0FC6
S1130DC0BB1F661F771F881FC2F70EC0BA0F621FB2
S1130DD0731F841F48F4879577956795B795F795A2
S1130DE09E3F08F0B3CF9395880F08F09927EE0F34
S1130DF0979587950895D9D008F481E008950CD08B
S1130E000FC107D140F0FED030F021F45F3F19F05C
S1130E10F0C0511139C1F3C014D198F39923C9F327
S1130E205523B1F3951B550BBB27AA2762177307EC
S1130E30840738F09F5F5F4F220F331F441FAA1FA0
S1130E40A9F333D00E2E3AF0E0E830D09150504060
S1130E50E695001CCAF729D0FE2F27D0660F771F0E
S1130E60881FBB1F261737074807AB07B0E809F0F0
S1130E70BB0B802DBF01FF2793585F4F2AF09E3F85
S1130E80510568F0B6C000C15F3FECF3983EDCF357
S1130E90869577956795B795F7959F5FC9F7880FFE
S1130EA0911D9695879597F90895E1E0660F771F50
S1130EB0881FBB1F621773078407BA0720F0621BE1
S1130EC0730B840BBA0BEE1F88F7E095089504D0DA
S1130ED06894B111D9C00895BCD088F09F5790F0A0
S1130EE0B92F9927B751A0F0D1F0660F771F881F4B
S1130EF0991F1AF0BA95C9F712C0B13081F0C3D066
S1130F00B1E00895C0C0672F782F8827B85F39F003
S1130F10B93FCCF3869577956795B395D9F73EF4A9
S1130F2090958095709561957F4F8F4F9F4F089551
S1130F30E89409C097FB3EF490958095709561956F
S1130F407F4F8F4F9F4F9923A9F0F92F96E9BB2725
S1130F509395F695879577956795B795F111F8CFA1
S1130F60FAF4BB0F11F460FF1BC06F5F7F4F8F4F0C
S1130F709F4F16C0882311F096E911C0772321F002
S1130F809EE8872F762F05C0662371F096E8862F9A
S1130F9070E060E02AF09A95660F771F881FDAF7F1
S1130FA0880F9695879597F90895990F0008550F1E
S1130FB0AA0BE0E8FEEF16161706E807F907C0F0DB
S1130FC012161306E407F50798F0621B730B840BE3
S1130FD0950B39F40A2661F0232B242B252B21F4BD
S1130FE008950A2609F4A140A6958FEF811D811D5D
S1130FF0089597F99F6780E870E060E008959FEF97
S113100080EC089500240A9416161706180609069B
S1131010089500240A94121613061406050608956A
S1131020092E0394000C11F4882352F0BB0F40F4F2
S1131030BF2B11F460FF04C06F5F7F4F8F4F9F4F32
S1131040089557FD9058440F551F59F05F3F71F0B4
S11310504795880F97FB991F61F09F3F79F087951B
S11310600895121613061406551FF2CF4695F1DFA4
S113107008C0161617061806991FF1CF8695710534
S1131080610508940895E894BB2766277727CB0168
S113109097F908958ADF08F48FEF08950BD0C0CF35
S11310A0B1DF28F0B6DF18F0952309F0A2CFA7CF5F
S11310B01124EACFC6DFA0F3959FD1F3950F50E03A
S11310C0551F629FF001729FBB27F00DB11D639FF6
S11310D0AA27F00DB11DAA1F649F6627B00DA11D9C
S11310E0661F829F2227B00DA11D621F739FB00D42
S11310F0A11D621F839FA00D611D221F749F3327B2
S1131100A00D611D231F849F600D211D822F762F4A
S11311106A2F11249F5750408AF0E1F088234AF047
S1131120EE0FFF1FBB1F661F771F881F9150504093
S1131130A9F79E3F510570F05CCFA6CF5F3FECF35B
S1131140983EDCF3869577956795B795F795E7957F
S11311509F5FC1F7FE2B880F911D9695879597F990
S11311600895EE0FFF1F0590F491E02D19940F934D
S11311701F93CF93DF93EC018B01009731F461153A
S1131180710519F480E090E037C06EE070E081E012
S113119090E063D2FC010097A9F380E883830115F2
S11311A0110571F01387028781E883838091AF0270
S11311B09091B002892B21F4F093B002E093AF0236
S11311C02097C9F0D187C08783818260838380910F
S11311D0B1029091B202892B71F4F093B202E093C0
S11311E0B1028091B3029091B402892B21F4F0935F
S11311F0B402E093B302CF01DF91CF911F910F911D
S11312000895CF93DF93CDB7DEB7FE013696619193
S11312107191AF018091B1029091B20230D0DF910F
S1131220CF9108950F931F93CF93DF93E091B10271
S1131230F091B202238121FF1BC0EC0100E010E019
S113124089916091B1027091B202DB011896ED911F
S1131250FC911997882331F01995892B89F30FEFA5
S11312601FEFEECF8AE01995892B11F4C80102C053
S11312708FEF9FEFDF91CF911F910F9108952F92E0
S11312803F924F925F926F927F928F929F92AF9212
S1131290BF92CF92DF92EF92FF920F931F93CF935F
S11312A0DF93CDB7DEB72C970FB6F894DEBF0FBE31
S11312B0CDBF7C016B018A01FC01178216828381F8
S11312C081FFB0C1CE0101964C01F7019381F60173
S11312D093FD859193FF81916F01882309F49EC149
S11312E0853239F493FD859193FF81916F018532A5
S11312F021F4B70190E00FD3E8CF512C312C20E03A
S11313002032A0F48B3269F030F4803259F0833209
S113131069F420612CC08D3239F0803339F42160B6
S113132026C02260246023C0286021C027FD27C076
S113133030ED380F3A3078F426FF06C0FAE05F9EAD
S1131340300D1124532E13C08AE0389E300D112421
S1131350332E20620CC08E3221F426FD5FC120643E
S113136006C08C3611F4206802C0883641F4F601B8
S113137093FD859193FF81916F018111C1CF982FC6
S11313809F7D9554933028F40C5F1F4FFFE3F9833E
S11313900DC0833631F0833771F0833509F057C0BF
S11313A021C0F801808189830E5F1F4F4424439438
S11313B0512C540114C03801F2E06F0E711CF80175
S11313C0A080B18026FF03C0652D70E002C06FEFDE
S11313D07FEFC5012C8794D22C0183012C852F77B4
S11313E0222E16C03801F2E06F0E711CF801A080A5
S11313F0B18026FF03C0652D70E002C06FEF7FEF60
S1131400C5012C876BD22C012C852068222E8301E8
S113141023FC19C0832D90E048165906A0F4B701A7
S113142080E290E078D23A94F5CFF50127FC8591DB
S113143027FE81915F01B70190E06DD231103A949B
S1131440F1E04F1A51084114510479F7DEC0843693
S113145011F0893631F5F80127FF07C060817181E9
S1131460828193810C5F1F4F08C06081718188273E
S113147077FD8095982F0E5F1F4F2F76B22E97FF22
S113148009C090958095709561957F4F8F4F9F4FC0
S11314902068B22E2AE030E0A4016FD2A82EA8184A
S11314A043C0853729F42F7EB22E2AE030E025C0D0
S11314B0F22FF97FBF2E8F36C1F018F4883579F0FA
S11314C0ADC0803719F0883721F0A8C02F2F2061D4
S11314D0B22EB4FE0DC08B2D8460B82E09C024FF3B
S11314E00AC09F2F9660B92E06C028E030E005C0E0
S11314F020E130E002C020E132E0F801B7FE07C08D
S113150060817181828193810C5F1F4F06C060816D
S1131510718180E090E00E5F1F4FA4012ED2A82EAF
S1131520A818FB2DFF77BF2EB6FE0BC02B2D2E7FE8
S1131530A51450F4B4FE0AC0B2FC08C02B2D2E7EB4
S113154005C07A2C2B2D03C07A2C01C0752C24FFE6
S11315500DC0FE01EA0DF11D8081803311F4297E56
S113156009C022FF06C07394739404C0822F867846
S113157009F0739423FD12C020FF06C05A2C731483
S113158018F4530C5718732C731460F4B70180E2E9
S113159090E02C87C0D173942C85F6CF731410F48B
S11315A0371801C0312C24FF11C0B70180E390E04B
S11315B02C87B1D12C8522FF16C021FF03C088E5FA
S11315C090E002C088E790E0B7010CC0822F8678D3
S11315D051F021FD02C080E201C08BE227FD8DE2C3
S11315E0B70190E098D1A51430F4B70180E390E0FE
S11315F092D15A94F8CFAA94F401EA0DF11D808196
S1131600B70190E088D1A110F6CF332009F45DCE64
S1131610B70180E290E07FD13A94F7CFF701868159
S1131620978102C08FEF9FEF2C960FB6F894DEBF20
S11316300FBECDBFDF91CF911F910F91FF90EF901F
S1131640DF90CF90BF90AF909F908F907F906F90DE
S11316505F904F903F902F9008950F931F93CF93D7
S1131660DF93869F8001879F100D969F100D112494
S1131670C8010DD0EC01009721F0A80160E070E0F2
S113168038D1CE01DF91CF911F910F910895CF935F
S1131690DF938230910510F482E090E0E091B7028C
S11316A0F091B80220E030E0A0E0B0E0309739F1EA
S11316B04081518148175907B8F04817590771F408
S11316C082819381109729F013969C938E9312979D
S11316D02CC09093B8028093B70227C0211531051E
S11316E031F04217530718F0A901DB0101C0EF01E3
S11316F09A01BD01DF010280F381E02DD7CF2115CE
S11317003105F9F0281B390B2430310580F48A8126
S11317109B816115710521F0FB019383828304C0D1
S11317209093B8028093B702FE01329644C0FE0142
S1131730E20FF31F81939193225031093983288357
S11317403AC02091B5023091B602232B41F4209186
S11317500202309103023093B6022093B502209125
S11317600002309101022115310541F42DB73EB735
S11317704091040250910502241B350BE091B502FF
S1131780F091B602E217F307A0F42E1B3F0B2817C3
S1131790390778F0AC014E5F5F4F2417350748F0E6
S11317A04E0F5F1F5093B6024093B50281939193FD
S11317B002C0E0E0F0E0CF01DF91CF910895CF9334
S11317C0DF93009709F487C0FC01329713821282D9
S11317D0C091B702D091B802209781F42081318161
S11317E0280F391F8091B5029091B6028217930792
S11317F079F5F093B602E093B5026DC0DE0120E006
S113180030E0AE17BF0750F412964D915C911397D8
S11318109D014115510509F1DA01F3CFB383A28388
S113182040815181840F951F8A179B0771F48D9114
S11318309C911197840F951F029691838083129631
S11318408D919C911397938382832115310529F4FB
S1131850F093B802E093B7023EC0D9011396FC930B
S1131860EE9312974D915D91A40FB51FEA17FB07F4
S113187079F480819181840F951F0296D901119684
S11318809C938E938281938113969C938E9312974B
S1131890E0E0F0E08A819B81009719F0FE01EC0101
S11318A0F9CFCE01029628813981820F931F2091AE
S11318B0B5023091B6022817390769F4309729F434
S11318C01092B8021092B70202C013821282D0930F
S11318D0B602C093B502DF91CF910895FC01059043
S11318E0615070400110D8F7809590958E0F9F1F1E
S11318F00895DC0101C06D9341505040E0F7089514
S1131900FC016150704001900110D8F780959095CA
S11319108E0F9F1F08950F931F93CF93DF93182F5C
S1131920092FEB018B8181FD03C08FEF9FEF20C056
S113193082FF10C04E815F812C813D814217530785
S11319407CF4E881F9819F012F5F3F4F398328831D
S1131950108306C0E885F985812F1995892B29F70D
S11319602E813F812F5F3F4F3F832E83812F902F06
S1131970DF91CF911F910F910895FA01AA27283082
S113198051F1203181F1E8946F936E7F6E5F7F4F48
S11319908F4F9F4FAF4FB1E03ED0B4E03CD0670FC4
S11319A0781F891F9A1FA11D680F791F8A1F911D17
S11319B0A11D6A0F711D811D911DA11D20D009F467
S11319C068943F912AE0269F11243019305D3193A9
S11319D0DEF6CF010895462F4770405D4193B3E092
S11319E00FD0C9F7F6CF462F4F70405D4A3318F039
S11319F0495D31FD4052419302D0A9F7EACFB4E0EA
S1131A00A6959795879577956795BA95C9F70097A1
S1131A106105710508959B01AC010A2E0694579542
S1131A20479537952795BA95C9F7620F731F841F99
S10D1A30951FA01D0895F894FFCF40
S1131A3A0000B9022000F84D43503235313520698F
S1131A4A73204E4F5420696E20636F6E6669672057
S1131A5A6D6F64652061667465722072657365745E
S1131A6A21004D435032353135206973204E4F548D
S1131A7A20696E206E6F726D616C206D6F646521D2
S1131A8A00726967687420656E636F646572207694
S1131A9A616C75652025640A004F555450555420CD
S1131AAA25640A0073686F6F740043616E206D6564
S1131ABA6C64696E672C207370696C6C206F766530
S1051ACA7200A4
S9030000FC
