S00D00004E6F6465312E7372656360
S11300000C94B4010C949E030C94D1010C94010241
S11300100C94D1010C94D1010C94D1010C94D10114
S11300200C94D1010C941A050C94D1010C94D101B7
S11300300C94D1010C94D1010C94D1010C94FD04C5
S11300400C94D1010C94D1010C94D1010C94D101E4
S11300500C94D1010C94D1010C94D1010C94D101D4
S11300600C94D1010C94D1010C94D1010C94D101C4
S1130070000000000000000000065F5F06000000B2
S11300800007070007070000147F7F147F7F140018
S1130090242E6B6B3A120000466630180C66620020
S11300A0307A4F5D377A48000407030000000000EF
S11300B0001C3E63410000000041633E1C00000040
S11300C0082A3E1C1C3E2A0808083E3E0808000078
S11300D000A0E0600000000008080808080800000C
S11300E000006060000000006030180C060301008E
S11300F03E7F594D7F3E000042427F7F40400000DA
S1130100627359496F660000226349497F360000D3
S1130110181C16137F7F1000276745457D390000A2
S11301203C7E4B4979300000036371190F070000CE
S1130130367F49497F360000064F49693F1E00005B
S113014000006C6C0000000000A0EC6C00000000DB
S1130150081C366341000000141414141414000025
S1130160004163361C080000020351590F060000C9
S11301703E7F415D5D1F1E007C7E13137E7C00006C
S1130180417F7F49497F36001C3E63414163220021
S1130190417F7F41637F1C00417F7F495D41630054
S11301A0417F7F491D0103001C3E6341517372006E
S11301B07F7F08087F7F000000417F7F41000000AF
S11301C0307040417F3F0100417F7F081C7763000E
S11301D0417F7F41406070007F7F060C067F7F0077
S11301E07F7F060C187F7F001C3E6341633E1C002A
S11301F0417F7F49090F06001E3F21717F5E000089
S1130200417F7F19396F460026674D597B320000C4
S113021003417F7F410300007F7F40407F7F0000D8
S11302201F3F60603F1F00007F7F3018307F7F00DA
S113023063771C081C776300074F78784F0700002A
S11302406773594D47637100007F7F41410000008F
S11302500103060C183060000041417F7F0000005C
S1130260080C0603060C0800808080808080808053
S11302700000030704000000207454543C7840003C
S1130280413F7F44447C3800387C44446C2800005F
S1130290307848493F7F4000387C54545C18000053
S11302A0487E7F490302000098BCA4A4F87C0400A3
S11302B0417F7F08047C780000447D7D400000007D
S11302C040C484FD7D000000417F7F10386C4400F1
S11302D000417F7F400000007C7C0C180C7C78007F
S11302E07C7C04047C780000387C44447C38000026
S11302F084FCF8A4243C1800183C24A4F8FC8400D2
S1130300447C78441C180000485C54547424000055
S113031000043E7F442400003C7C40403C7C400080
S11303201C3C60603C1C00003C7C6030607C3C00F9
S1130330446C3810386C44009CBCA0A0FC7C0000C9
S11303404C64745C4C64000008083E774141000032
S113035000000077770000004141773E0808000064
S1130360020301030203010011241FBECFEFD4E0F6
S1130370DEBFCDBF13E0A0E0B1E0E2E7F6E202C0E9
S113038005900D92A437B107D9F723E0A4E7B3E0B1
S113039001C01D92A83CB207E1F70E94030E0C9421
S11303A037130C94000086B7816086BF8BB78062D8
S11303B08BBF309885B7806885BF80B7806280BF67
S11303C03098B898B998BA9880E090E00895E9E92F
S11303D0F9E03197F1F700C08460809300148091B4
S11303E0900390919103892BD1F389E999E00197C6
S11303F0F1F700C0109291031092900380910014C1
S113040008951F920F920FB60F9211248F939F930A
S113041081E090E090939103809390039F918F915A
S11304200F900FBE0F901F901895CF93DF931F92DC
S1130430CDB7DEB70E94FA068CEC94E00197F1F791
S113044000C000008EE00E94FF0689838981807EBF
S1130450803839F089E191E00E94281081E090E031
S11304601FC041E061E08BE20E9438074FEF60E675
S113047080E60E94380740E060EE8FE00E94380773
S11304808EE00E94FF0689838981807E39F084E4AE
S113049091E00E94281081E090E002C080E090E0AA
S11304A00F90DF91CF91089580E30E94FF06869517
S11304B08695869591E08927817090E00895EF9262
S11304C0FF920F931F93CF93DF937C010E945402FA
S11304D0892BD9F1F701608166956695669581E36C
S11304E00E941207F70160816295660F607E82E3C5
S11304F00E941207F70162816F7085E30E94120760
S1130500F701828193818930910554F088E090E06D
S11305109383828387010C5F1F4FC0E0D0E004C047
S113052018161906BCF30EC0F80161918F018C2FC7
S11305308A5C0E9412072196F70122813381C21737
S1130540D30794F381E00E942607DF91CF911F9196
S11305500F91FF90EF9008957F928F929F92AF92A8
S1130560BF92CF92DF92EF92FF920F931F93CF939C
S1130570DF93CDB7DEB72C970FB6F894DEBF0FBE6E
S1130580CDBF5C0181E60E94FF06882E82E60E94B0
S1130590FF06829586958770912C880C991C880C8F
S11305A0991C880C991C882A85E60E94FF068F7086
S11305B0C82ED12C89E0C816D10424F06894CC2428
S11305C0C3F8D12C1C141D04A4F48E010B5F1F4F1F
S11305D07801EC0CFD1C0F2EF6E67F2EF02D872DF6
S11305E00E94FF06F80181938F017394EE15FF05B5
S11305F0B1F7109274039A828982DC82CB828CE0F8
S1130600FE013196D50101900D928A95E1F7C5015D
S11306102C960FB6F894DEBF0FBECDBFDF91CF91FD
S11306201F910F91FF90EF90DF90CF90BF90AF900C
S11306309F908F907F90089540E061E08CE20E944B
S1130640380740E064E08CE20E94380781E0809340
S1130650740308950F931F93CF93DF93CDB7DEB741
S11306602C970FB6F894DEBF0FBECDBF85E090E0A7
S11306700E946C07082F87E090E00E947007182FF3
S113068081E090E00E947407FE0131969CE0DF0156
S11306901D929A95E9F723E030E03A8329833C835D
S11306A02B830D831E838F83CF010E945F022C96C0
S11306B00FB6F894DEBF0FBECDBFDF91CF911F916F
S11306C00F9108950F931F93CF93DF93CDB7DEB7A8
S11306D02C970FB6F894DEBF0FBECDBF60E080E06C
S11306E00E94D40C83E691E00E9428100E942A0301
S11306F00E949F0D162F082F0E94970DFE01319620
S11307009CE0DF011D929A95E9F723E030E03A83FB
S113071029833C832B830D831E838F8381E0888709
S1130720CF010E945F022C960FB6F894DEBF0FBE75
S1130730CDBFDF91CF911F910F9108951F920F921A
S11307400FB60F9211242F933F934F935F936F93A0
S11307507F938F939F93AF93BF93EF93FF930E94E5
S11307601C03FF91EF91BF91AF919F918F917F9166
S11307706F915F914F913F912F910F900FBE0F900A
S11307801F9018958F929F92AF92BF92CF92DF9253
S1130790EF92FF920F931F93CF93DF93CDB7DEB702
S11307A0A4970FB6F894DEBF0FBECDBF8091860329
S11307B08F93809185038F938091B7038F9380915A
S11307C0B6038F938EE691E09F938F930E940D1052
S11307D0CE0101962CE0FC0111922A95E9F722E062
S11307E030E03A8329833C832B832091B6032D8305
S11307F0209185032E830E945F0283E090E0909312
S1130800B9038093B80310927803109277030E947F
S1130810A80A0F900F900F900F900F900F90809157
S113082074038823E1F3CE0149960E94AC0210922E
S11308307A031092790388E891E00E942810E12C51
S1130840F12C0DE710E00F2EFCEACF2EF1E0DF2EA5
S1130850F02DBB24B394A12C80918D0390918E0331
S1130860892B71F06091790370917A038091B803B8
S11308709091B9030E941D0C10928E0310928D0367
S11308808091750390917603892BB9F0F8018081EA
S11308908B7F80838091B6039091B703029719F4FC
S11308A00E94620302C00E942A03109276031092EF
S11308B07503F801808184608083809174038823A8
S11308C009F47DC06091790370917A038091B80333
S11308D09091B9030E941D0CCE010D960E94AC02AA
S11308E08D859E858430910519F410928F036BC019
S11308F0019709F05FC08CE991E00E942810809173
S1130900B8039091B90301979093B9038093B80306
S11309102091790330917A034091770350917803C1
S11309204217530724F430937803209377039F935B
S11309308F93DF92CF920E940D100F900F900F9023
S11309400F908091B8039091B903892B19F40E94F8
S11309505B0C39C00E94AF0C81E090E00E947407E8
S11309604C0182E090E00E9474072B2D892B09F042
S11309702A2D222331F08B2D892809F08A2D81110B
S1130980EBCF82E090E00E947407892BE1F4FFEF43
S11309902FE787E0F15020408040E1F700C00000DD
S11309A00E94A80ACE0101960E945F0210927A0367
S11309B010927903E114F10409F44ECF04C0E11458
S11309C0F10409F449CF86EB91E00E94281084E0F9
S11309D080938F03A4960FB6F894DEBF0FBECDBFED
S11309E0DF91CF911F910F91FF90EF90DF90CF9007
S11309F0BF90AF909F908F9008951F920F920FB663
S1130A000F9211248F939F9381E090E090938E0333
S1130A1080938D038091790390917A03019690934A
S1130A207A03809379039F918F910F900FBE0F905B
S1130A301F9018951F920F920FB60F9211248F9347
S1130A409F9381E090E090937603809375039F9148
S1130A508F910F900FBE0F901F90189520917B03DC
S1130A6030917C03281739077CF0EDE7F3E021E0AF
S1130A7030E041915191481759074CF02F5F3F4F97
S1130A8025303105B1F706C080E090E00895822F4B
S1130A90932F08958FEF9FEF0895E199FECFF89477
S1130AA07FBB6EBB8DBBE29AE19A78940895AF92B6
S1130AB0BF92CF92DF92EF92FF920F931F93CF9347
S1130AC0DF9381EC91E09F938F930E940D1006E0D9
S1130AD011E00F900F90C12CD12CA12CB12C0F2E12
S1130AE0F7EDEF2EF1E0FF2EF02D2CC0D801ED91A3
S1130AF0FC91EC0FFD1F80811F928F93FF92EF9268
S1130B000E940D10BE016C0D7D1DD801ED91FC916C
S1130B10EC0FFD1F80810E944D0521960F900F90D0
S1130B200F900F90C330D10509F78AE090E00E943E
S1130B3021100E5F1F4FB3E0CB0ED11CEFE0CE1699
S1130B40D10419F0CA2DDB2DD1CF0BE713E0CFE090
S1130B50D0E00F2EF0EEEF2EF1E0FF2EF02DD801B5
S1130B60DC901196CC900E5F1F4FBE018D2D0E941C
S1130B704D05CF92DF92FF92EF920E940D102196C5
S1130B800F900F900F900F90C431D10541F7DF9172
S1130B90CF911F910F91FF90EF90DF90CF90BF9076
S1130BA0AF900895CF93DF9384309105ACF4A3E81C
S1130BB0B3E0EEE0F1E024E030E021503109DE91D1
S1130BC0CE911396DC93CE931297D291C291D38394
S1130BD0C2832817390789F7880F991FFC01E55844
S1130BE0FC4F71836083FC01EA5FFE4F51834083B5
S1130BF00E945705DF91CF910895E199FECF9FBBE5
S1130C008EBBE09A8DB30895AF92BF92CF92DF92DC
S1130C10EF92FF920F931F93CF93DF930F2EF6E083
S1130C20CF2EF1E0DF2EF02D00E010E0A12CB12C4E
S1130C3018C0F601E080F180EC0EFD1ECE01800F9D
S1130C40911F0E94FD05F70180832196C330D105D1
S1130C5081F7F2E0CF0ED11C0D5F1F4F0F3011054D
S1130C6019F0CA2DDB2DE5CF0BE713E0CFE0D0E080
S1130C70CE010E94FD0590E0F801819391938F01CC
S1130C802196C431D105A1F7DF91CF911F910F9126
S1130C90FF90EF90DF90CF90BF90AF900895CF92E8
S1130CA0DF92EF92FF920F931F93CF93DF930E94F3
S1130CB0950943E050E060E070E08DE892E00E9426
S1130CC0210A0E9404060F2EF6E0CF2EF1E0DF2E5B
S1130CD0F02D0F2EFBE7EF2EF3E0FF2EF02DC0E0FA
S1130CE0D0E08E010E5F1F4F43E050E0B801F601E3
S1130CF0819191916F010E94210A2196CE010E9457
S1130D00CC0C40E050E0B8010E94210A41E050E0E0
S1130D10B80184EE91E00E94210AF701819191913A
S1130D207F010E94CC0C4AE050E0B8010E94210AE5
S1130D30C530D105B1F60E94830ADF91CF911F918E
S1130D400F91FF90EF90DF90CF900895AF92BF92F4
S1130D50CF92DF92EF92FF920F931F93CF93DF9383
S1130D600F2EF6E0EF2EF1E0FF2EF02D00E010E064
S1130D700F2EFCE6CF2EF3E0DF2EF02DA12CB12CAC
S1130D80F701C192D1927F01CA2DDB2DB8016C0FFE
S1130D907D1F8DE20E944D052196C330D105B1F728
S1130DA00D5F1F4F0F30110559F70BE713E0CFE02C
S1130DB0D0E0BE0180E00E944D05F801119211922D
S1130DC08F012196C431D105A1F70E945705DF9107
S1130DD0CF911F910F91FF90EF90DF90CF90BF9034
S1130DE0AF9008950E94B80D80EC0E94A80D0E9457
S1130DF0BA0D08950E94C20D0E94F2060895CF9381
S1130E00C82F0E94B80D83E00E94A80D8C2F0E9469
S1130E10A80D80E00E94A80DC82F0E94BA0D8C2F47
S1130E20CF910895CF93DF93D82FC62F0E94B80D8A
S1130E3082E00E94A80D8D2F0E94A80D8C2F0E9485
S1130E40A80D0E94BA0DDF91CF910895CF93C82FBA
S1130E500E94B80DC83028F48C2F80680E94A80D19
S1130E6003C080E80E94A80D0E94BA0DCF91089596
S1130E701F93CF93DF93182FD62FC42F0E94B80D42
S1130E8085E00E94A80D812F0E94A80D8D2F0E943D
S1130E90A80D8C2F0E94A80D0E94BA0DDF91CF914E
S1130EA01F9108955D9BFECF8CB980E090E008957A
S1130EB05F9BFECF8CB1089589B988E18AB968E552
S1130EC077E082E597E00E94C20F9093BB03809382
S1130ED0BA0380E090E008950E94E70190E008954D
S1130EE00E94E70190E008958130910529F486B3CA
S1130EF08695817090E00895029721F486B38170FD
S1130F0090E008958FEF9FEF0895CF9385E00E94BE
S1130F10E701C82F84E00E94E701282F30E0273939
S1130F2031056CF42E36310564F08C2F90E087394E
S1130F3091054CF48E36910544F483E007C080E0BB
S1130F4005C081E003C082E001C084E0CF91089530
S1130F50EF92FF920F931F93CF93DF938C017B014A
S1130F600E949509F801C681D78140E050E060E015
S1130F7070E0808191810E94210A40E050E061E0AC
S1130F8070E08FE593E00E94210A209781F002E04F
S1130F9010E042E050E0B801888199810E94210A62
S1130FA00A80DB81C02D0F5F1F4F209791F7B70197
S1130FB06F5F7F4F40E050E08AE20E94650ADF9154
S1130FC0CF911F910F91FF90EF900895CF93DF93EE
S1130FD0EC018CE090E00E94760EFC01009741F455
S1130FE08AEE91E00E94281081E090E00E9437137D
S1130FF0D183C083138212821582148211861086D3
S11310001782168213861286DF91CF910895DC0130
S11310101696ED91FC911797309729F417967C93C7
S11310206E9316970EC0228133812115310511F07C
S1131030F901F9CF73836283DB011596FC93EE9378
S11310401497FC01228533852F5F3F4F3387228716
S1131050DB0119969C938E93189708952F923F92D3
S11310604F925F926F927F928F929F92AF92BF92B4
S1131070CF92DF92EF92FF920F931F93CF93DF9360
S1131080CDB7DEB72E970FB6F894DEBF0FBECDBF37
S113109085EF91E00E94E6075C019093BD03809385
S11310A0BC0382E092E00E94E6076C0181E192E0D9
S11310B00E94E6077C018BE192E00E94E6078C0126
S11310C088E292E00E94E6079E878D8785E392E09E
S11310D00E94E6073C018AE392E00E94E6072C01A5
S11310E081E492E00E94E6071C0185E392E00E94FD
S11310F0E6079A8389838AE392E00E94E6079C8349
S11311008B8381E492E00E94E6079E838D8386E4CC
S113111092E00E94E60798878F838BE492E00E9416
S1131120E6074C0181E592E00E94E6079A878987E9
S113113085E592E00E94E6079C878B87B601C5018E
S11311400E940708B701C5010E940708B801C6013B
S11311500E9407086D857E85C6010E940708B301B9
S1131160C8010E940708B201C8010E940708B10122
S1131170C8010E94070869817A818D859E850E9435
S113118007086B817C818D859E850E9407086D818F
S11311907E818D859E850E9407086F817885C701B1
S11311A00E940708B401C7010E94070869857A856F
S11311B0C4010E9407086B857C85C4010E9407084E
S11311C00E94D50960911001709111018091BC03B6
S11311D09091BD030E94A8070E94830AE091BC037A
S11311E0F091BD0386819781909388038093870350
S11311F02E960FB6F894DEBF0FBECDBFDF91CF9110
S11312001F910F91FF90EF90DF90CF90BF90AF9020
S11312109F908F907F906F905F904F903F902F9012
S11312200895E0911701F09118018EEA8083E0910E
S11312301701F091180181EA8083E0911701F09180
S113124018018AED8083E0911701F091180182E181
S11312508083E0911701F091180188EC8083E0917C
S11312601701F091180188EA8083E0911701F09149
S113127018018FE38083E0911701F091180185ED47
S11312808083E0911701F091180180E88083E09158
S11312901701F091180181E88083E0911701F09122
S11312A0180180E58083E0911701F091180189ED20
S11312B08083E0911701F091180181E28083E0912D
S11312C01701F091180180E28083E0911701F091F9
S11312D0180182E08083E0911701F09118018BEDF1
S11312E08083E0911701F091180180E38083E091FD
S11312F01701F09118018DEA8083E0911701F091B4
S113130018011082E0911701F091180184EA80839A
S1131310E0911701F091180186EA8083E0911701AA
S1131320F09118018FEA8083089580E090E020E234
S1131330E0911301F0911401E80FF91F2083019645
S1131340811534E09307A1F70895E0911701F09116
S11313501801982F906B908380938A030895E091ED
S11313601701F0911801282F2F702083E0911701A5
S1131370F09118019C01207F3327359527953595E9
S1131380279535952795359527952061208380935A
S113139089030895CF93DF93EB010E94A509CE0141
S11313A00E94AF09DF91CF9108950F931F93CF93BC
S11313B0DF93C0E0D0E000E810E060E070E0CE0130
S11313C00E94CA09202F312FE0911501F0911601D6
S11313D010822150310921153105B1F72196C83009
S11313E0D10559F7DF91CF911F910F91089560E0D6
S11313F070E080E090E00E94CA09089570E090E0F7
S11314000E94CA0987E090E02FEFE0911501F09166
S11314101601208301970097C1F7089528E0829F61
S1131420C0011124FC01E059F04080E0A0911501B5
S1131430B091160194919C938F5F31968830B1F7E7
S113144008950F931F93CF93DF93DC019A01C0E0BB
S1131450142FD52F29C0FA01EC0FF11D709771F4E8
S11314606F5F7F4F67707078772334F46150710930
S1131470686F7F6F6F5F7F4F212F3D2FFD01E80F56
S1131480F91F0081FB01F695FE2FEE27F795E795EE
S1131490E20FF31F8091130190911401E80FF91FDB
S11314A000832F5F3F4FCF5F8C2F90E0FD010190B1
S11314B00020E9F73197EA1BFB0B8E179F0758F2C0
S11314C0DF91CF911F910F9108957695762F66271E
S11314D077956795640F751FE0911301F0911401DE
S11314E0E60FF71F808308959695982F8827979580
S11314F08795680F791FE0911301F0911401E60FAD
S1131500F71F808108950F931F93CF93DF930E9459
S1131510D5090E94F70900E010E060E070E0C8011E
S11315200E94CA09C0E0D0E0BE01C8010E94740A4A
S11315300E940E0A2196C031D105B1F70F5F1F4FEB
S11315400830110551F7DF91CF911F910F91089544
S11315501F93CF93DF930E94950940E050E060E031
S113156070E08EE792E00E94210A44E050E062E0DD
S113157070E081EE92E00E94210A43E050E063E0D3
S113158070E087E892E00E94210A43E050E064E0C2
S113159070E087E892E00E94210A4CE050E063E0AA
S11315A070E087E892E00E94210A4CE050E064E099
S11315B070E087E892E00E94210A44E050E064E091
S11315C070E081EE92E00E94210A0E94830AC8EB37
S11315D0D1E01C2F1859612F83E00E94FE09612F6E
S11315E084E00E94FE09BE0180E090E00E94CA09E6
S11315F08EE20E940E0A2FEF8FE794E02150804084
S11316009040E1F700C000002896C83F21E0D207CF
S113161001F70E94830ADF91CF911F9108958F9261
S11316209F92AF92BF92CF92DF92EF92FF920F936D
S11316301F93CF93DF93EC010E94950940E050E0A3
S113164060E070E089E892E00E94210A40E050E006
S113165063E070E087E992E00E94210A40E050E0F4
S113166064E070E089E992E00E94210A40E050E0E1
S113167065E070E08DE992E00E94210A4AE050E0C2
S113168064E070E0CE010E94210A0E94830A0F2EBA
S1131690F1E48F2EF02DC0E0D0E00F2EF6E0AF2E57
S11316A0F3E0BF2EF02D0F2EF0E1CF2EF3E0DF2E6E
S11316B0F02D0F2EFFE9EF2EF2E0FF2EF02D81E04A
S11316C090E00E947407892B09F0A8C00E94850746
S11316D0982E80911201891509F49CC081E0981616
S11316E079F0981638F0E2E09E1699F0F3E09F1630
S11316F0C9F164C081E4881609F45CC08A945EC0B0
S1131700EAE58E1611F0839459C00F2EF1E48F2E62
S1131710F02DC230D1050CF051C08E010F5F1F4F68
S1131720A80163E070E087E992E00E94210AA80121
S113173065E070E08DE992E00E94210AAE0163E069
S113174070E085ED91E00E94210AAE0165E070E051
S113175085ED91E00E94210AE8010F2EF1E48F2E1D
S1131760F02D2CC01C161D064CF5FE01E856FD4F4D
S113177080808E0101501109A80163E070E087E9BF
S113178092E00E94210AA80165E070E08DE992E0F0
S11317900E94210AAE0163E070E085ED91E00E94B1
S11317A0210AAE0165E070E085ED91E00E94210A16
S11317B0E80104C00F2EFAE58F2EF02D8501F80103
S11317C0808191810E5F1F4F9F938F93FF92EF92C1
S11317D00E940D100F900F900F900F900C151D0587
S11317E071F78AEA92E00E94281090921201FE0199
S11317F0E756FD4F808240E050E064E070E089E904
S113180092E00E94210A0E94830AC330D1050CF49D
S113181056CF04C0C330D1050CF451CF89E992E00E
S1131820DF91CF911F910F91FF90EF90DF90CF90B8
S1131830BF90AF909F908F900895CF93C82FCB0106
S11318404AE067E871E00E949D0F0E94950940E01C
S113185050E060E070E08EEC92E00E94210A41E0EA
S113186050E060E070E08CED92E00E94210A40E0DC
S113187050E064E070E08AEE92E00E94210A49E0C0
S113188050E064E070E081E992E00E94210AC05DCA
S1131890E0911301F0911401EE5FFC4FC0834AE024
S11318A050E066E070E087E891E00E94210A0E941F
S11318B0830ACF9108950E94950940E050E060E0CA
S11318C070E088E592E00E94210A40E050E064E084
S11318D070E080EF92E00E94210A40E050E068E06E
S11318E070E088E592E00E94210A0E94830A2FEFAB
S11318F08FE794E0215080409040E1F700C0000061
S11319000E9495092FEF8FEB93E021508040904087
S1131910E1F700C0000040E050E060E070E088E5DE
S113192092E00E94210A40E050E064E070E080EF21
S113193092E00E94210A40E050E068E070E088E50F
S113194092E00E94210A0E94830A2FEF8FE794E01D
S1131950215080409040E1F700C0000008950E94AB
S1131960950940E050E060E070E08AEF92E00E9468
S1131970210A40E050E064E070E081E592E00E94DA
S1131980210A49E050E064E070E085E592E00E94BD
S1131990210A0E94830A08954AE067E871E00E94E0
S11319A09D0F87E891E00895CF93DF93C82FD62F3A
S11319B0C59AC79A0E94BC0D81E00E94B00D809325
S11319C0A20382E40E94B00D8093A30380E00E94EE
S11319D0B00D8093A4038D2F0E94B00D8093A503B6
S11319E08C2F0E94B00D8093A60380E00E94B00D5E
S11319F08093A00380E00E94B00D8093A10380E057
S1131A000E94B00D80939E0380E00E94B00D8093ED
S1131A109F038CEC94E00197F1F700C000000E9452
S1131A20BF0DDF91CF910895CF92DF92EF92FF9295
S1131A300F931F93CF93DF93EC01162F0E94BC0DDD
S1131A401123A9F06E017E018FEFE81AF80A1150F4
S1131A50E10EF11C8E010C191D0989910E94B00D33
S1131A60F801EE55FC4F8083CE15DF0599F70E94EF
S1131A70BF0DDF91CF911F910F91FF90EF90DF90F9
S1131A80CF90089565E084E393E00E94140D0895D7
S1131A9069E08BE293E00E94140D089569E082E20C
S1131AA093E00E94140D089569E089E193E00E9497
S1131AB0140D089569E080E193E00E94140D0895E7
S1131AC08FEF9FE20197F1F700C000000E94420DE2
S1131AD09FEF2FEB83E0915020408040E1F700C05E
S1131AE000000E94480D9FEF2FEB83E091502040AF
S1131AF08040E1F700C000000E944E0D9FEF2FEBE5
S1131B0083E0915020408040E1F700C000000E9433
S1131B10540D9FEF2FEB83E0915020408040E1F77C
S1131B2000C000000E945A0D0E94BF0D08958091CC
S1131B30A603869591E08927817090E008956091CD
S1131B409E0370919F038091A0039091A103089537
S1131B508FB9779BFECF84EA8A95F1F78FB1089508
S1131B608FB9779BFECF84EA8A95F1F78FB10895F8
S1131B70C4980895C49A08956D9AC3980895C39A11
S1131B806D9808956E9A6C9A699A709A6B9A6A9A8B
S1131B90BD9ABF9ABC9ABB9A0E94BF0D0E94BA0D0F
S1131BA0089585B7806885BF80B7806280BF85B798
S1131BB08E7F85BF85B7826085BF8BB780648BBFFE
S1131BC08A988FB58D7F8FBD8FB58E7F8FBDEBE8E3
S1131BD0F0E080818D7F808380818E7F80838EB5CD
S1131BE082608EBD8EB581608EBDEAE8F0E08081B2
S1131BF08260808389B7806889BFEDE7F0E08081E7
S1131C00846080830895F8948FE190E00E945C07DB
S1131C100E94D10D0E9411090E94D3010E94150255
S1131C200E94600D789489E393E00E9428100E943A
S1131C302E080E9404060E94040684E080938F0309
S1131C4084E690E09093780380937703C2E080E782
S1131C5093E00E94281080918F03823099F118F448
S1131C60813031F0F4CF833031F0843049F0EFCF5C
S1131C700E94C203ECCF0E94A606C0938F03E7CF55
S1131C8080917703909178030E942E0590938C03A2
S1131C9080938B0399239CF0809177039091780330
S1131CA00E94CC0C0E940F0B609177037091780313
S1131CB0AC0180918B0390918C030E94D205C09358
S1131CC08F03C5CF0E948507833011F410928F03D0
S1131CD080918D0390918E03892B09F4B8CF0E94D3
S1131CE04F0610928E0310928D03B1CFCF93DF93E2
S1131CF08230910510F482E090E0E091C003F0910D
S1131D00C10320E030E0A0E0B0E0309739F1408139
S1131D10518148175907B8F04817590771F482815F
S1131D209381109729F013969C938E9312972CC04D
S1131D309093C1038093C00327C02115310531F06E
S1131D404217530718F0A901DB0101C0EF019A0102
S1131D50BD01DF010280F381E02DD7CF21153105CC
S1131D60F9F0281B390B2430310580F48A819B81DA
S1131D706115710521F0FB019383828304C0909364
S1131D80C1038093C003FE01329644C0FE01E20FFA
S1131D90F31F8193919322503109398328833AC0E8
S1131DA02091BE033091BF03232B41F42091020103
S1131DB0309103013093BF032093BE0320910001AF
S1131DC0309101012115310541F42DB73EB7409101
S1131DD0040150910501241B350BE091BE03F091E1
S1131DE0BF03E217F307A0F42E1B3F0B2817390794
S1131DF078F0AC014E5F5F4F2417350748F04E0F63
S1131E005F1F5093BF034093BE038193919302C01D
S1131E10E0E0F0E0CF01DF91CF910895CF93DF931D
S1131E20009709F487C0FC01329713821282C09193
S1131E30C003D091C103209781F420813181280F00
S1131E40391F8091BE039091BF038217930779F5E0
S1131E50F093BF03E093BE036DC0DE0120E030E0E9
S1131E60AE17BF0750F412964D915C9113979D01E4
S1131E704115510509F1DA01F3CFB383A2834081FF
S1131E805181840F951F8A179B0771F48D919C9142
S1131E901197840F951F02969183808312968D91DA
S1131EA09C911397938382832115310529F4F09330
S1131EB0C103E093C0033EC0D9011396FC93EE9393
S1131EC012974D915D91A40FB51FEA17FB0779F4A2
S1131ED080819181840F951F0296D90111969C935C
S1131EE08E938281938113969C938E931297E0E054
S1131EF0F0E08A819B81009719F0FE01EC01F9CF93
S1131F00CE01029628813981820F931F2091BE034E
S1131F103091BF032817390769F4309729F41092D8
S1131F20C1031092C00302C013821282D093BF0374
S1131F30C093BE03DF91CF910895BB274A3031F49B
S1131F40992322F4BDE2909581959F4F0C94A90F9B
S1131F50BB27FB015527AA27880F991FAA1FA4177F
S1131F6010F0A41B83955051B9F7A05DAA3308F073
S1131F70A95DA193009779F7B111B1931192CB01A7
S1131F800C9460120F931F93CF93DF93EC018B019A
S1131F90009731F46115710519F480E090E038C0C0
S1131FA06EE070E081E090E00E942712FC0100974F
S1131FB0A1F380E883830115110571F0138702876B
S1131FC081E883838091C2039091C303892B21F418
S1131FD0F093C303E093C2032097C9F0D187C0876D
S1131FE08381826083838091C4039091C503892B8C
S1131FF071F4F093C503E093C4038091C6039091F8
S1132000C703892B21F4F093C703E093C603CF01E0
S1132010DF91CF911F910F910895A0E0B0E0E3E12B
S1132020F0E10C941013FE01359661917191AF01AA
S11320308091C4039091C5030E945510E2E00C9472
S11320402C136091C4037091C5030E94701208950B
S11320500F931F93CF93DF93E091C403F091C503D3
S1132060238121FF1BC0EC0100E010E08991609105
S1132070C4037091C503DB011896ED91FC91199787
S1132080882331F00995892B89F30FEF1FEFEECFE9
S11320908AE00995892B11F4C80102C08FEF9FEFE4
S11320A0DF91CF911F910F910895ACE0B0E0EBE583
S11320B0F0E10C9400137C016B018A01FC0117828E
S11320C01682838181FFBDC1CE0101964C01F701C7
S11320D09381F60193FD859193FF81916F0188238C
S11320E009F4ABC1853239F493FD859193FF819155
S11320F06F01853229F4B70190E00E947012E7CF96
S1132100512C312C20E02032A0F48B3269F030F4D1
S1132110803259F0833269F420612CC08D3239F059
S1132120803339F4216026C02260246023C02860F3
S113213021C027FD27C030ED380F3A3078F426FF50
S113214006C0FAE05F9E300D1124532E13C08AE0BE
S1132150389E300D1124332E20620CC08E3221F4AF
S113216026FD6BC1206406C08C3611F4206802C0C1
S1132170883641F4F60193FD859193FF81916F01B7
S11321808111C1CF982F9F7D9554933028F40C5F13
S11321901F4FFFE3F9830DC0833631F0833771F0AD
S11321A0833509F05BC022C0F801808189830E5F0A
S11321B01F4F44244394512C540115C03801F2E0BC
S11321C06F0E711CF801A080B18026FF03C0652D3D
S11321D070E002C06FEF7FEFC5012C870E9455129B
S11321E02C0183012C852F77222E17C03801F2E0B1
S11321F06F0E711CF801A080B18026FF03C0652D0D
S113220070E002C06FEF7FEFC5012C870E9443127C
S11322102C012C852068222E830123FC1BC0832DD6
S113222090E048165906B0F4B70180E290E00E94AD
S113223070123A94F4CFF50127FC859127FE819121
S11322405F01B70190E00E94701231103A94F1E0FE
S11322504F1A51084114510471F7E5C0843611F046
S1132260893639F5F80127FF07C0608171818281C1
S113227093810C5F1F4F08C060817181882777FDAF
S11322808095982F0E5F1F4F2F76B22E97FF09C0AF
S113229090958095709561957F4F8F4F9F4F2068E3
S11322A0B22E2AE030E0A4010E94A212A82EA8189F
S11322B044C0853729F42F7EB22E2AE030E025C0B1
S11322C0F22FF97FBF2E8F36C1F018F4883579F0DC
S11322D0B4C0803719F0883721F0AFC02F2F2061A8
S11322E0B22EB4FE0DC08B2D8460B82E09C024FF1D
S11322F00AC09F2F9660B92E06C028E030E005C0C2
S113230020E130E002C020E132E0F801B7FE07C06E
S113231060817181828193810C5F1F4F06C060814F
S1132320718180E090E00E5F1F4FA4010E94A21211
S1132330A82EA818FB2DFF77BF2EB6FE0BC02B2DA1
S11323402E7FA51450F4B4FE0AC0B2FC08C02B2D95
S11323502E7E05C07A2C2B2D03C07A2C01C0752C3F
S113236024FF0DC0FE01EA0DF11D8081803311F4BC
S1132370297E09C022FF06C07394739404C0822F7F
S1132380867809F0739423FD13C020FF06C05A2CED
S1132390731418F4530C5718732C731468F4B7019E
S11323A080E290E02C870E94701273942C85F5CF04
S11323B0731410F4371801C0312C24FF12C0B70174
S11323C080E390E02C870E9470122C8522FF17C0B6
S11323D021FF03C088E590E002C088E790E0B701E0
S11323E00CC0822F867859F021FD02C080E201C022
S11323F08BE227FD8DE2B70190E00E947012A514D4
S113240038F4B70180E390E00E9470125A94F7CF39
S1132410AA94F401EA0DF11D8081B70190E00E94B5
S11324207012A110F5CF332009F451CEB70180E228
S113243090E00E9470123A94F6CFF701868197815A
S113244002C08FEF9FEF2C96E2E10C941C130F93C4
S11324501F93CF93DF93869F8001879F100D969FD4
S1132460100D1124C8010E94760EEC01009729F08A
S1132470A80160E070E00E944E12CE01DF91CF917E
S11324801F910F910895FC01059061507040011057
S1132490D8F7809590958E0F9F1F0895DC0101C099
S11324A06D9341505040E0F70895FC016150704035
S11324B001900110D8F7809590958E0F9F1F089575
S11324C0DC01FC01672F71917723E1F7329704C097
S11324D07C916D9370836291AE17BF07C8F3089522
S11324E00F931F93CF93DF93182F092FEB018B8149
S11324F081FD03C08FEF9FEF20C082FF10C04E818B
S11325005F812C813D81421753077CF4E881F98176
S11325109F012F5F3F4F39832883108306C0E885CE
S1132520F985812F0995892B29F72E813F812F5F0A
S11325303F4F3F832E83812F902FDF91CF911F91A7
S11325400F910895FA01AA27283051F1203181F121
S1132550E8946F936E7F6E5F7F4F8F4F9F4FAF4FA7
S1132560B1E03ED0B4E03CD0670F781F891F9A1FBA
S1132570A11D680F791F8A1F911DA11D6A0F711D6E
S1132580811D911DA11D20D009F468943F912AE07A
S1132590269F11243019305D3193DEF6CF01089562
S11325A0462F4770405D4193B3E00FD0C9F7F6CF93
S11325B0462F4F70405D4A3318F0495D31FD40525B
S11325C0419302D0A9F7EACFB4E0A69597958795F1
S11325D077956795BA95C9F70097610571050895D0
S11325E09B01AC010A2E069457954795379527957C
S11325F0BA95C9F7620F731F841F951FA01D089514
S11326002F923F924F925F926F927F928F929F92FE
S1132610AF92BF92CF92DF92EF92FF920F931F93EC
S1132620CF93DF93CDB7DEB7CA1BDB0B0FB6F8949D
S1132630DEBF0FBECDBF09942A88398848885F84DD
S11326406E847D848C849B84AA84B984C884DF804E
S1132650EE80FD800C811B81AA81B981CE0FD11D32
S11326600FB6F894DEBF0FBECDBFED010895F89408
S1052670FFCF96
S11326720000C8032000E601E601E601E601E601E6
S11326820100040018001200104D43503235313558
S1132692206973204E4F5420696E20636F6E666901
S11326A267206D6F6465206166746572207265735C
S11326B2657421004D435032353135206973204E03
S11326C24F5420696E206E6F726D616C206D6F6461
S11326D265210053656E6465722043414E00436F69
S11326E26E74726F6C6C657220256409204D4F44C0
S11326F2453A202564090A004E4F44452032206998
S11327026E697469616C697A656420006D6F7474B2
S113271261722053636F7265203220006C696665B2
S11327223A2025640A0045584954205748494C45E3
S11327320055706461746572206869676873636FB9
S113274272653A200A20004E616D6573202563008C
S1132752202564002E00303030004F7574206F66DF
S1132762206D656D0050696E67506F6E6753686FB8
S113277277005374617274206E65772067616D65AA
S1132782004869676873636F726500436F6E7472A1
S11327926F6C3A2055534200436F6E74726F6C3AF9
S11327A2205053320045617379004D656469756D3B
S11327B200486172640056696577005265736574F6
S11327C200594553004E4F002A2A2A2A2A2A2A2A25
S11327D22A2A2A2A2A2A2A2A004869676873636FDE
S11327E27265206C697374007265736574004C4F72
S11327F24144494E4720007C004E455720484947F2
S11328024853434F5245005E004141410076004E19
S1132812414D45533A2025730A002D2D2D2D2D2D82
S11328222D2D2D2D2D2D2D2D2D2D2D2D2D2D2D2DD2
S11328322D2D2D2D2D2D2D2D2D2D2D2D20005049BD
S11328424E47504F4E472047414D45005F5F5F5F03
S11328525F5F5F5F5F5F5F5F5F004C495645530098
S1132862594F55204C4F53452100506C61792061DA
S11328726761696E3F00E601E601E601E601E601F1
S1132882014300005A5A5A5A5A014F00FFFF0300EB
S11328920000014D000001FFFFFFFF01440001039E
S11328A20000000001430001000A2D2D2D2D2D2DC5
S11328B22D2D2D2D2D2D2D2D2D2D2D2D2D2D0A0A88
S11328C24E4F44452031200A0A202D2D2D2D2D2D29
S11328D22D2D2D2D2D2D2D2D2D2D2D2D2D2D2D004F
S10728E268656900B8
S9030000FC
