:100000000C94B4010C94D1010C94D1010C94020510
:100010000C94D1010C94D1010C94D1010C94D10118
:100020000C94D1010C94D1010C94D1010C94D10108
:100030000C94D1010C94D1010C94D1010C94D101F8
:100040000C94D1010C94D1010C94D1010C94D101E8
:100050000C94D1010C94D1010C94D1010C94D101D8
:100060000C94D1010C94D1010C94D1010C94D101C8
:10007000000000000000000000065F5F06000000B6
:100080000007070007070000147F7F147F7F14001C
:10009000242E6B6B3A120000466630180C66620024
:1000A000307A4F5D377A48000407030000000000F3
:1000B000001C3E63410000000041633E1C00000044
:1000C000082A3E1C1C3E2A0808083E3E080800007C
:1000D00000A0E06000000000080808080808000010
:1000E00000006060000000006030180C0603010092
:1000F0003E7F594D7F3E000042427F7F40400000DE
:10010000627359496F660000226349497F360000D7
:10011000181C16137F7F1000276745457D390000A6
:100120003C7E4B4979300000036371190F070000D2
:10013000367F49497F360000064F49693F1E00005F
:1001400000006C6C0000000000A0EC6C00000000DF
:10015000081C366341000000141414141414000029
:10016000004163361C080000020351590F060000CD
:100170003E7F415D5D1F1E007C7E13137E7C000070
:10018000417F7F49497F36001C3E63414163220025
:10019000417F7F41637F1C00417F7F495D41630058
:1001A000417F7F491D0103001C3E63415173720072
:1001B0007F7F08087F7F000000417F7F41000000B3
:1001C000307040417F3F0100417F7F081C77630012
:1001D000417F7F41406070007F7F060C067F7F007B
:1001E0007F7F060C187F7F001C3E6341633E1C002E
:1001F000417F7F49090F06001E3F21717F5E00008D
:10020000417F7F19396F460026674D597B320000C8
:1002100003417F7F410300007F7F40407F7F0000DC
:100220001F3F60603F1F00007F7F3018307F7F00DE
:1002300063771C081C776300074F78784F0700002E
:100240006773594D47637100007F7F414100000093
:100250000103060C183060000041417F7F00000060
:10026000080C0603060C0800808080808080808057
:100270000000030704000000207454543C78400040
:10028000413F7F44447C3800387C44446C28000063
:10029000307848493F7F4000387C54545C18000057
:1002A000487E7F490302000098BCA4A4F87C0400A7
:1002B000417F7F08047C780000447D7D4000000081
:1002C00040C484FD7D000000417F7F10386C4400F5
:1002D00000417F7F400000007C7C0C180C7C780083
:1002E0007C7C04047C780000387C44447C3800002A
:1002F00084FCF8A4243C1800183C24A4F8FC8400D6
:10030000447C78441C180000485C54547424000059
:1003100000043E7F442400003C7C40403C7C400084
:100320001C3C60603C1C00003C7C6030607C3C00FD
:10033000446C3810386C44009CBCA0A0FC7C0000CD
:100340004C64745C4C64000008083E774141000036
:1003500000000077770000004141773E0808000068
:10036000020301030203010011241FBECFEFD4E0FA
:10037000DEBFCDBF11E0A0E0B1E0E4E0F7E102C0F4
:1003800005900D92A439B107D9F721E0A4E9B1E0B5
:1003900001C01D92A33AB207E1F70E942D040C940C
:1003A000800B0C940000846080930014809196016F
:1003B0008111FCCF8091001408955D9BFECF8CB914
:1003C00080E090E008955F9BFECF8CB1089589B9DD
:1003D00088E18AB963EE71E08DED91E00E944F08EB
:1003E000909398018093970180E090E008950F9397
:1003F0001F93CF93DF930E94D301682F70E080E0BA
:1004000090E00E941306062F172FD82FC92F9F9315
:100410008F937F936F932AE031E03F932F930E9455
:100420009A080F900F900F900F900F900F9020E070
:1004300030E044E053E4602F712F8D2F9C2F0E94F9
:1004400076058823BCF520E030E044E053E4602FDB
:10045000712F8D2F9C2F0E947A0520E030E048EC10
:1004600052E40E94C5069B01AC0160E070E088EC9C
:1004700092E40E941105062F172FD82FC92F9F93A2
:100480008F937F936F9325E131E03F932F930E94E9
:100490009A08602F712F8D2F9C2F0E94E2058827CC
:1004A0009927861B970B0F900F900F900F900F902E
:1004B0000F9031C020E030E044E053E4602F712F12
:1004C0008D2F9C2F0E94110520E030E046EF52E472
:1004D0000E947A0520E030E048EC52E40E94C50614
:1004E000062F172FD82FC92F9F938F937F936F932A
:1004F00026E131E03F932F930E949A08602F712FDD
:100500008D2F9C2F0E94E205CB010F900F900F9032
:100510000F900F900F90DF91CF911F910F91089541
:100520000F931F93CF93DF93EC010E94D90388812F
:1005300099810E94F3030E80DF81C02D2097A1F0E6
:1005400001E010E0C8010E9487038FE090E00E9464
:100550009103888199810E94F3030A80DB81C02D79
:100560000F5F1F4F209771F7DF91CF911F910F9170
:100570000895CF93DF93EC018CE090E00E94280770
:10058000FC01009751F48EE191E09F938F930E94BC
:100590009A0881E090E00E94800BD183C08313828F
:1005A0001282158214821186108617821682138693
:1005B0001286DF91CF910895DC011696ED91FC91A2
:1005C0001797309729F417967C936E9316970EC061
:1005D000228133812115310511F0F901F9CF73839F
:1005E0006283DB011596FC93EE931497FC01228540
:1005F00033852F5F3F4F33872287DB0119969C930A
:100600008E9318970895E0910801F09109018EEA00
:100610008083E0910801F091090181EA8083E091F3
:100620000801F09109018AED8083E0910801F091C1
:10063000090182E18083E0910801F091090188ECD1
:100640008083E0910801F091090188EA8083E091BC
:100650000801F09109018FE38083E0910801F09196
:10066000090185ED8083E0910801F091090180E89E
:100670008083E0910801F091090181E88083E09195
:100680000801F091090180E58083E0910801F09173
:10069000090189ED8083E0910801F091090181E26F
:1006A0008083E0910801F091090180E28083E0916C
:1006B0000801F091090182E08083E0910801F09146
:1006C00009018BED8083E0910801F091090180E33D
:1006D0008083E0910801F09109018DEA8083E09127
:1006E0000801F09109011082E0910801F0910901DF
:1006F00084EA8083E0910801F091090186EA808311
:10070000E0910801F09109018FEA80830895E0915A
:100710000801F0910901982F906B908380939501C7
:100720000895E0910801F0910901282F2F7020838E
:10073000E0910801F09109019C01207F3327359554
:1007400027953595279535952795359527952061DA
:100750002083809394010895CF93DF93EB010E944F
:100760008703CE010E949103DF91CF9108950F93EB
:100770001F93CF93DF93C0E0D0E000E810E060E08B
:1007800070E0CE010E94AC03202F312FE0910601D2
:10079000F091070110822150310921153105B1F77F
:1007A0002196C830D10559F7DF91CF911F910F9154
:1007B000089560E070E080E090E00E94AC0308954E
:1007C00028E0829FC0011124FC01E059F04080E044
:1007D000A0910601B091070194919C938F5F31968F
:1007E0008830B1F70895FF920F931F93CF93DF9353
:1007F000EC01F12C19C080E1F8120FC08091950135
:1008000090E0019687709078809395011092940102
:1008100060E070E090E00E94AC03FE01E00FF11F89
:1008200080810E94E003F3940F2D10E0FE010190FF
:100830000020E9F73197EC1BFD0B0E171F07D8F2CC
:10084000DF91CF911F910F91FF90089585B7806838
:1008500085BF80B7806280BF0895CF93DF931F92DA
:10086000CDB7DEB7F8948FE190E00E94E7010E94D7
:1008700026040E940303789483E491E00E94B90265
:100880007C018DE491E00E94B9026C0183E591E066
:100890000E94B9025C018AE591E00E94B9024C0114
:1008A00082E691E00E94B9028C0186E691E00E9406
:1008B000B9028BE691E00E94B90281E791E00E94C3
:1008C000B90287E791E00E94B902B601C7010E9410
:1008D000DC02B501C7010E94DC02B401C7010E941D
:1008E000DC02B801C6010E94DC02D7011696ED9128
:1008F000FC91179781818F9380818F930DE711E091
:100900001F930F930E949A08D6011296ED91FC91C5
:10091000139781818F9380818F931F930F930E94F0
:100920009A08D5011296ED91FC91139781818F93CE
:1009300080818F931F930F930E949A08D601169679
:10094000ED91FC91179781818F9380818F931F93F5
:100950000F930E949A08D5011896ED91FC91199772
:1009600081818F9380818F931F930F930E949A08A8
:10097000D4011496ED91FC91159781818F9380811C
:100980008F931F930F930E949A08D7011696ED91AB
:10099000FC91179781818F9380818F931F930F9381
:1009A0000E949A080E94B7030E94D903C7010E94BF
:1009B00090020E94B703C6010E94900219820FB6EE
:1009C000F894DEBF0FBECDBF02E811E0898181112E
:1009D000198285E090E00E94F701F82EE92E84E06C
:1009E00090E00E94F701EF92FF929F938F931F93E5
:1009F0000F930E949A080F900F900F900F900F90F6
:100A00000F90E4CF1F920F920FB60F9211248F9385
:100A100081E0809396018F910F900FBE0F901F90F1
:100A200018955058BB27AA270ED075C166D130F053
:100A30006BD120F031F49F3F11F41EF45BC10EF432
:100A4000E095E7FB51C1E92F77D180F3BA17620730
:100A500073078407950718F071F49EF58FC10EF4A3
:100A6000E0950B2EBA2FA02D0B01B90190010C01BE
:100A7000CA01A0011124FF27591B99F0593F50F4D6
:100A8000503E68F11A16F040A22F232F342F44272E
:100A9000585FF3CF469537952795A795F040539526
:100AA000C9F77EF41F16BA0B620B730B840BBAF0F6
:100AB0009150A1F0FF0FBB1F661F771F881FC2F761
:100AC0000EC0BA0F621F731F841F48F48795779575
:100AD0006795B795F7959E3F08F0B3CF9395880F2C
:100AE00008F09927EE0F979587950895D9D008F4C7
:100AF00081E008950CD00FC107D140F0FED030F056
:100B000021F45F3F19F0F0C0511139C1F3C014D185
:100B100098F39923C9F35523B1F3951B550BBB27C4
:100B2000AA2762177307840738F09F5F5F4F220F71
:100B3000331F441FAA1FA9F333D00E2E3AF0E0E86A
:100B400030D091505040E695001CCAF729D0FE2FB6
:100B500027D0660F771F881FBB1F26173707480748
:100B6000AB07B0E809F0BB0B802DBF01FF279358FE
:100B70005F4F2AF09E3F510568F0B6C000C15F3F4D
:100B8000ECF3983EDCF3869577956795B795F795E6
:100B90009F5FC9F7880F911D9695879597F90895DE
:100BA000E1E0660F771F881FBB1F6217730784077A
:100BB000BA0720F0621B730B840BBA0BEE1F88F789
:100BC000E095089504D06894B111D9C00895BCD0BF
:100BD00088F09F5790F0B92F9927B751A0F0D1F026
:100BE000660F771F881F991F1AF0BA95C9F712C0B0
:100BF000B13081F0C3D0B1E00895C0C0672F782F25
:100C00008827B85F39F0B93FCCF38695779567951B
:100C1000B395D9F73EF490958095709561957F4F87
:100C20008F4F9F4F0895E89409C097FB3EF490952D
:100C30008095709561957F4F8F4F9F4F9923A9F0B5
:100C4000F92F96E9BB279395F69587957795679544
:100C5000B795F111F8CFFAF4BB0F11F460FF1BC088
:100C60006F5F7F4F8F4F9F4F16C0882311F096E91B
:100C700011C0772321F09EE8872F762F05C06623C9
:100C800071F096E8862F70E060E02AF09A95660F82
:100C9000771F881FDAF7880F9695879597F908953B
:100CA000990F0008550FAA0BE0E8FEEF161617067D
:100CB000E807F907C0F012161306E407F50798F0E5
:100CC000621B730B840B950B39F40A2661F0232BFE
:100CD000242B252B21F408950A2609F4A140A6957A
:100CE0008FEF811D811D089597F99F6780E870E05F
:100CF00060E008959FEF80EC089500240A94161692
:100D0000170618060906089500240A9412161306F9
:100D1000140605060895092E0394000C11F4882387
:100D200052F0BB0F40F4BF2B11F460FF04C06F5FA3
:100D30007F4F8F4F9F4F089557FD9058440F551F79
:100D400059F05F3F71F04795880F97FB991F61F04D
:100D50009F3F79F087950895121613061406551FC4
:100D6000F2CF4695F1DF08C0161617061806991F30
:100D7000F1CF86957105610508940895E894BB2725
:100D800066277727CB0197F908950BD0C4CFB5DF3D
:100D900028F0BADF18F0952309F0A6CFABCF1124C5
:100DA000EECFCADFA0F3959FD1F3950F50E0551F0A
:100DB000629FF001729FBB27F00DB11D639FAA27B0
:100DC000F00DB11DAA1F649F6627B00DA11D661FFF
:100DD000829F2227B00DA11D621F739FB00DA11D20
:100DE000621F839FA00D611D221F749F3327A00DDA
:100DF000611D231F849F600D211D822F762F6A2F76
:100E000011249F5750408AF0E1F088234AF0EE0FFA
:100E1000FF1FBB1F661F771F881F91505040A9F707
:100E20009E3F510570F060CFAACF5F3FECF3983E34
:100E3000DCF3869577956795B795F795E7959F5F6E
:100E4000C1F7FE2B880F911D9695879597F9089508
:100E5000CF93DF938230910510F482E090E0E0912F
:100E60009B01F0919C0120E030E0A0E0B0E03097E1
:100E700039F14081518148175907B8F0481759078F
:100E800071F482819381109729F013969C938E932D
:100E900012972CC090939C0180939B0127C0211531
:100EA000310531F04217530718F0A901DB0101C0E9
:100EB000EF019A01BD01DF010280F381E02DD7CF60
:100EC00021153105F9F0281B390B2430310580F448
:100ED0008A819B816115710521F0FB0193838283D7
:100EE00004C090939C0180939B01FE01329644C004
:100EF000FE01E20FF31F8193919322503109398350
:100F000028833AC02091990130919A01232B41F412
:100F1000209102013091030130939A0120939901AD
:100F200020910001309101012115310541F42DB7C7
:100F30003EB74091040150910501241B350BE0910F
:100F40009901F0919A01E217F307A0F42E1B3F0BD1
:100F50002817390778F0AC014E5F5F4F241735072B
:100F600048F04E0F5F1F50939A014093990181936F
:100F7000919302C0E0E0F0E0CF01DF91CF910895BE
:100F8000CF93DF93009709F487C0FC013297138257
:100F90001282C0919B01D0919C01209781F4208105
:100FA0003181280F391F8091990190919A01821700
:100FB000930779F5F0939A01E09399016DC0DE01F2
:100FC00020E030E0AE17BF0750F412964D915C91CF
:100FD00013979D014115510509F1DA01F3CFB38350
:100FE000A28340815181840F951F8A179B0771F45A
:100FF0008D919C911197840F951F02969183808308
:1010000012968D919C9113979383828321153105BC
:1010100029F4F0939C01E0939B013EC0D901139603
:10102000FC93EE9312974D915D91A40FB51FEA17B3
:10103000FB0779F480819181840F951F0296D90175
:1010400011969C938E938281938113969C938E9399
:101050001297E0E0F0E08A819B81009719F0FE0191
:10106000EC01F9CFCE01029628813981820F931FBE
:101070002091990130919A012817390769F4309726
:1010800029F410929C0110929B0102C013821282DB
:10109000D0939A01C0939901DF91CF9108950F9356
:1010A0001F93CF93DF93EC018B01009731F461150F
:1010B000710519F480E090E038C06EE070E081E0E6
:1010C00090E00E94800AFC010097A1F380E88383EE
:1010D0000115110571F01387028781E883838091E0
:1010E0009D0190919E01892B21F4F0939E01E09344
:1010F0009D012097C9F0D187C08783818260838357
:1011000080919F019091A001892B71F4F093A0012F
:10111000E0939F018091A1019091A201892B21F47C
:10112000F093A201E093A101CF01DF91CF911F9134
:101130000F910895A0E0B0E0E0EAF8E00C94590BBC
:10114000FE01359661917191AF0180919F0190915F
:10115000A0010E94AE08E2E00C94750BACE0B0E098
:10116000E4EBF8E00C94490B7C016B018A01FC0173
:1011700017821682838181FFBDC1CE0101964C0189
:10118000F7019381F60193FD859193FF81916F01A2
:10119000882309F4ABC1853239F493FD859193FF1F
:1011A00081916F01853229F4B70190E00E94B90A5C
:1011B000E7CF512C312C20E02032A0F48B3269F0A3
:1011C00030F4803259F0833269F420612CC08D32C2
:1011D00039F0803339F4216026C02260246023C0B6
:1011E000286021C027FD27C030ED380F3A3078F451
:1011F00026FF06C0FAE05F9E300D1124532E13C067
:101200008AE0389E300D1124332E20620CC08E32BD
:1012100021F426FD6BC1206406C08C3611F42068D1
:1012200002C0883641F4F60193FD859193FF8191C8
:101230006F018111C1CF982F9F7D9554933028F471
:101240000C5F1F4FFFE3F9830DC0833631F0833706
:1012500071F0833509F05BC022C0F8018081898379
:101260000E5F1F4F44244394512C540115C0380184
:10127000F2E06F0E711CF801A080B18026FF03C060
:10128000652D70E002C06FEF7FEFC5012C870E94D3
:10129000AE0A2C0183012C852F77222E17C038012E
:1012A000F2E06F0E711CF801A080B18026FF03C030
:1012B000652D70E002C06FEF7FEFC5012C870E94A3
:1012C0009C0A2C012C852068222E830123FC1BC044
:1012D000832D90E048165906B0F4B70180E290E003
:1012E0000E94B90A3A94F4CFF50127FC859127FEB4
:1012F00081915F01B70190E00E94B90A31103A94E0
:10130000F1E04F1A51084114510471F7E5C08436D9
:1013100011F0893639F5F80127FF07C06081718126
:10132000828193810C5F1F4F08C060817181882783
:1013300077FD8095982F0E5F1F4F2F76B22E97FF67
:1013400009C090958095709561957F4F8F4F9F4F05
:101350002068B22E2AE030E0A4010E94EB0AA82EF9
:10136000A81844C0853729F42F7EB22E2AE030E039
:1013700025C0F22FF97FBF2E8F36C1F018F48835C3
:1013800079F0B4C0803719F0883721F0AFC02F2F23
:101390002061B22EB4FE0DC08B2D8460B82E09C022
:1013A00024FF0AC09F2F9660B92E06C028E030E0C7
:1013B00005C020E130E002C020E132E0F801B7FED4
:1013C00007C060817181828193810C5F1F4F06C0CD
:1013D0006081718180E090E00E5F1F4FA4010E9448
:1013E000EB0AA82EA818FB2DFF77BF2EB6FE0BC068
:1013F0002B2D2E7FA51450F4B4FE0AC0B2FC08C0F9
:101400002B2D2E7E05C07A2C2B2D03C07A2C01C0EB
:10141000752C24FF0DC0FE01EA0DF11D8081803383
:1014200011F4297E09C022FF06C07394739404C08E
:10143000822F867809F0739423FD13C020FF06C025
:101440005A2C731418F4530C5718732C731468F433
:10145000B70180E290E02C870E94B90A73942C8532
:10146000F5CF731410F4371801C0312C24FF12C0CB
:10147000B70180E390E02C870E94B90A2C8522FFF7
:1014800017C021FF03C088E590E002C088E790E024
:10149000B7010CC0822F867859F021FD02C080E28E
:1014A00001C08BE227FD8DE2B70190E00E94B90AEE
:1014B000A51438F4B70180E390E00E94B90A5A9469
:1014C000F7CFAA94F401EA0DF11D8081B70190E0F5
:1014D0000E94B90AA110F5CF332009F451CEB7010B
:1014E00080E290E00E94B90A3A94F6CFF701868133
:1014F000978102C08FEF9FEF2C96E2E10C94650B71
:101500000F931F93CF93DF93869F8001879F100DCA
:10151000969F100D1124C8010E942807EC01009726
:1015200029F0A80160E070E00E94A70ACE01DF91D7
:10153000CF911F910F910895FC010590615070406B
:101540000110D8F7809590958E0F9F1F0895DC01AC
:1015500001C06D9341505040E0F70895FC01615087
:10156000704001900110D8F7809590958E0F9F1FC5
:1015700008950F931F93CF93DF93182F092FEB013B
:101580008B8181FD03C08FEF9FEF20C082FF10C0D1
:101590004E815F812C813D81421753077CF4E881A5
:1015A000F9819F012F5F3F4F39832883108306C045
:1015B000E885F985812F0995892B29F72E813F81AF
:1015C0002F5F3F4F3F832E83812F902FDF91CF914D
:1015D0001F910F910895FA01AA27283051F1203167
:1015E00081F1E8946F936E7F6E5F7F4F8F4F9F4FB7
:1015F000AF4FB1E03ED0B4E03CD0670F781F891FF9
:101600009A1FA11D680F791F8A1F911DA11D6A0FC6
:10161000711D811D911DA11D20D009F468943F9179
:101620002AE0269F11243019305D3193DEF6CF0178
:101630000895462F4770405D4193B3E00FD0C9F73E
:10164000F6CF462F4F70405D4A3318F0495D31FDAB
:101650004052419302D0A9F7EACFB4E0A6959795FE
:10166000879577956795BA95C9F7009761057105D4
:1016700008959B01AC010A2E06945795479537951E
:101680002795BA95C9F7620F731F841F951FA01D78
:1016900008952F923F924F925F926F927F928F9216
:1016A0009F92AF92BF92CF92DF92EF92FF920F93F1
:1016B0001F93CF93DF93CDB7DEB7CA1BDB0B0FB6FB
:1016C000F894DEBF0FBECDBF09942A8839884888B8
:1016D0005F846E847D848C849B84AA84B984C8844E
:1016E000DF80EE80FD800C811B81AA81B981CE0F45
:1016F000D11D0FB6F894DEBF0FBECDBFED0108952A
:04170000F894FFCF8B
:101704000000A301200000120010706F73203D2020
:101714002564200A002D61203D2025640A004F75B0
:1017240074206F66206D656D6F7279212046616942
:101734006C656420746F20637265617465206D65E7
:101744006E75004D61696E204D656E75004A756C4D
:10175400696500416E64726561004A6F68616E6E0E
:10176400650052656400426C756500477265656E7C
:1017740000426C61636B00576869746500257320CF
:101784000A000A58203D2025642C2059203D20259C
:0417940064200A00C3
:00000001FF
