S011000070696E675F706F6E672E7372656352
S11300000C94B4010C9407030C94D1010C948B0749
S11300100C94D1010C94D1010C94D1010C94D10114
S11300200C94D1010C94D1010C94D1010C94D10104
S11300300C94D1010C94D1010C94D1010C94D101F4
S11300400C94D1010C94D1010C94D1010C94D101E4
S11300500C94D1010C94D1010C94D1010C94D101D4
S11300600C94D1010C94D1010C94D1010C94D101C4
S1130070000000000000000000065F5F06000000B2
S11300800007070007070000147F7F147F7F140018
S1130090242E6B6B3A120000466630180C66620020
S11300A0307A4F5D377A48000407030000000000EF
S11300B0001C3E63410000000041633E1C00000040
S11300C0082A3E1C1C3E2A0808083E3E0808000078
S11300D000A0E0600000000008080808080800000C
S11300E000006060000000006030180C060301008E
S11300F03E7F594D7F3E000042427F7F40400000DA
S1130100627359496F660000226349497F360000D3
S1130110181C16137F7F1000276745457D390000A2
S11301203C7E4B4979300000036371190F070000CE
S1130130367F49497F360000064F49693F1E00005B
S113014000006C6C0000000000A0EC6C00000000DB
S1130150081C366341000000141414141414000025
S1130160004163361C080000020351590F060000C9
S11301703E7F415D5D1F1E007C7E13137E7C00006C
S1130180417F7F49497F36001C3E63414163220021
S1130190417F7F41637F1C00417F7F495D41630054
S11301A0417F7F491D0103001C3E6341517372006E
S11301B07F7F08087F7F000000417F7F41000000AF
S11301C0307040417F3F0100417F7F081C7763000E
S11301D0417F7F41406070007F7F060C067F7F0077
S11301E07F7F060C187F7F001C3E6341633E1C002A
S11301F0417F7F49090F06001E3F21717F5E000089
S1130200417F7F19396F460026674D597B320000C4
S113021003417F7F410300007F7F40407F7F0000D8
S11302201F3F60603F1F00007F7F3018307F7F00DA
S113023063771C081C776300074F78784F0700002A
S11302406773594D47637100007F7F41410000008F
S11302500103060C183060000041417F7F0000005C
S1130260080C0603060C0800808080808080808053
S11302700000030704000000207454543C7840003C
S1130280413F7F44447C3800387C44446C2800005F
S1130290307848493F7F4000387C54545C18000053
S11302A0487E7F490302000098BCA4A4F87C0400A3
S11302B0417F7F08047C780000447D7D400000007D
S11302C040C484FD7D000000417F7F10386C4400F1
S11302D000417F7F400000007C7C0C180C7C78007F
S11302E07C7C04047C780000387C44447C38000026
S11302F084FCF8A4243C1800183C24A4F8FC8400D2
S1130300447C78441C180000485C54547424000055
S113031000043E7F442400003C7C40403C7C400080
S11303201C3C60603C1C00003C7C6030607C3C00F9
S1130330446C3810386C44009CBCA0A0FC7C0000C9
S11303404C64745C4C64000008083E774141000032
S113035000000077770000004141773E0808000064
S1130360020301030203010011241FBECFEFD4E0F6
S1130370DEBFCDBF11E0A0E0B1E0EEE7FCE102C0DA
S113038005900D92A43DB107D9F721E0A4EDB1E0A9
S113039001C01D92A63EB207E1F70E946C060C94C0
S11303A03D0E0C94000086B7816086BF8BB78062D7
S11303B08BBF309885B7806885BF80B7806280BF67
S11303C03098B898B998BA9880E090E0089584601D
S11303D0809300148091D7018823E1F38091001465
S11303E00895CF93DF931F92CDB7DEB70E943303F6
S11303F089EF90E00197F1F700C000008EE00E94C1
S1130400380389838981807E803839F08FE091E0D8
S11304100E943E0B81E090E020C041E061E08BE26D
S11304200E9471034FEF60E680E60E94710340E48E
S113043060EE8FE00E9471038EE00E94380389838E
S11304408981807E803439F08AE391E00E943E0BFA
S113045081E090E002C080E090E00F90DF91CF91C6
S1130460089580E30E94380386958695869591E0E9
S11304708927817090E00895EF92FF920F931F9364
S1130480CF93DF937C010E943102892BD9F1F701CC
S1130490608166956695669581E30E944B03F7013A
S11304A060816295660F607E82E30E944B03F701D0
S11304B062816F7085E30E944B03F701828193810F
S11304C08930910554F088E090E09383828387011A
S11304D00C5F1F4FC0E0D0E004C018161906BCF32F
S11304E00EC0F80161918F018C2F8A5C0E944B032E
S11304F02196F70122813381C217D30794F381E057
S11305000E945F03DF91CF911F910F91FF90EF90B5
S113051008957F928F929F92AF92BF92CF92DF9273
S1130520EF92FF920F931F93CF93DF93CDB7DEB774
S11305302C970FB6F894DEBF0FBECDBF5C0181E6E9
S11305400E943803882E82E60E943803829586959D
S11305508770912C880C991C880C991C880C991C08
S1130560882A85E60E9438038F70C82ED12C89E032
S1130570C816D10424F06894CC24C3F8D12C1C14DC
S11305801D04A4F48E010B5F1F4F7801EC0CFD1CBD
S11305900F2EF6E67F2EF02D872D0E943803F801EA
S11305A081938F017394EE15FF05B1F71092D60174
S11305B09A828982DC82CB828CE0FE013196D5015D
S11305C001900D928A95E1F7C5012C960FB6F89427
S11305D0DEBF0FBECDBFDF91CF911F910F91FF9072
S11305E0EF90DF90CF90BF90AF909F908F907F90CF
S11305F0089540E061E08CE20E94710340E064E011
S11306008CE20E94710381E08093D60108951F92C9
S11306100F920FB60F9211242F933F934F935F9332
S11306206F937F938F939F93AF93BF93EF93FF93B6
S11306300E94F902FF91EF91BF91AF919F918F9129
S11306407F916F915F914F913F912F910F900FBECA
S11306500F901F9018950E944E0680EC0E94490648
S11306600E94500608950E9452060E942B0308958A
S1130670CF93C82F0E944E0683E00E9449068C2F18
S11306800E94490680E00E944906C82F0E94500635
S11306908C2FCF910895CF93DF93D82FC62F0E942C
S11306A04E0682E00E9449068D2F0E9449068C2F37
S11306B00E9449060E945006DF91CF910895CF937E
S11306C0C82F0E944E06C83028F48C2F80680E94E0
S11306D0490603C080E80E9449060E945006CF9153
S11306E008951F93CF93DF93182FD62FC42F0E9402
S11306F04E0685E00E944906812F0E9449068D2FEF
S11307000E9449068C2F0E9449060E945006DF91E0
S1130710CF911F9108955D9BFECF8CB980E090E04E
S113072008955F9BFECF8CB1089589B988E18AB999
S113073061E973E08BE893E00E94D80A9093D901B1
S11307408093D80180E090E00895CF92DF92EF92F9
S1130750FF920E94E701682F70E080E090E00E9421
S11307609C086B017C0120E030E044E053E40E94EB
S1130770FF078823ECF420E030E044E053E4C701B1
S1130780B6010E94030820E030E048EC52E40E94E5
S11307904E099B01AC0160E070E088EC92E40E9499
S11307A09A070E946B0888279927861B970B17C006
S11307B020E030E044E053E4C701B6010E949A0708
S11307C020E030E046EF52E40E94030820E030E0ED
S11307D048EC52E40E944E090E946B08CB01FF9042
S11307E0EF90DF90CF900895CF93DF9384E090E073
S11307F00E94A503EC0185E090E00E94A5038135E9
S113080091055CF4803B9F4F54F0C135D1054CF405
S1130810C03BDF4F44F483E007C080E005C081E0C3
S113082003C082E001C084E0DF91CF910895EF928C
S1130830FF920F931F93CF93DF938C017B010E9450
S11308403A05F801C681D78140E050E060E070E0ED
S1130850808191810E94C505209781F001E010E01C
S113086042E050E0B801888199810E94C5050A8060
S1130870DB81C02D0F5F1F4F209791F740E050E0C0
S1130880B7018AE20E94B605DF91CF911F910F91C3
S1130890FF90EF900895CF93DF93EC018CE090E00C
S11308A00E94B109FC01009751F48BE591E09F93FC
S11308B08F930E94230B81E090E00E943D0ED18330
S11308C0C0831382128215821482118610861782C5
S11308D0168213861286DF91CF910895DC01169655
S11308E0ED91FC911797309729F417967C936E93AA
S11308F016970EC0228133812115310511F0F901BB
S1130900F9CF73836283DB011596FC93EE931497FE
S1130910FC01228533852F5F3F4F33872287DB011C
S113092019969C938E9318970895DC011696ED9171
S1130930FC911797423071F4623071057CF021E02C
S113094030E00280F381E02D2F5F3F4F26173707F9
S1130950C1F704C01896ED91FC911997309719F0DE
S11309608E2F9F2F08958A2F9B2F0895E0910A01BF
S1130970F0910B018EEA8083E0910A01F0910B0162
S113098081EA8083E0910A01F0910B018AED808372
S1130990E0910A01F0910B0182E18083E0910A0168
S11309A0F0910B0188EC8083E0910A01F0910B0136
S11309B088EA8083E0910A01F0910B018FE3808340
S11309C0E0910A01F0910B0185ED8083E0910A0129
S11309D0F0910B0180E88083E0910A01F0910B0112
S11309E081E88083E0910A01F0910B0180E5808326
S11309F0E0910A01F0910B0189ED8083E0910A01F5
S1130A00F0910B0181E28083E0910A01F0910B01E6
S1130A1080E28083E0910A01F0910B0182E08083FF
S1130A20E0910A01F0910B018BED8083E0910A01C2
S1130A30F0910B0180E38083E0910A01F0910B01B6
S1130A408DEA8083E0910A01F0910B011082E0911C
S1130A500A01F0910B0184EA8083E0910A01F0918C
S1130A600B0186EA8083E0910A01F0910B018FEA81
S1130A708083089580E090E020E2E0910601F09107
S1130A800701E80FF91F20830196811534E09307CD
S1130A90A1F70895E0910A01F0910B01982F906B52
S1130AA090838093D5010895E0910A01F0910B01A0
S1130AB0282F2F702083E0910A01F0910B019C01F3
S1130AC0207F332735952795359527953595279597
S1130AD035952795206120838093D4010895CF9381
S1130AE0DF93EB010E944A05CE010E945405DF9179
S1130AF0CF9108950F931F93CF93DF93C0E0D0E07D
S1130B0000E810E060E070E0CE010E946F05202F45
S1130B10312FE0910801F09109011082215031092F
S1130B2021153105B1F72196C830D10559F7DF9168
S1130B30CF911F910F91089560E070E080E090E004
S1130B400E946F05089528E0829FC0011124FC01D2
S1130B50E059F04080E0A0910801B091090194911E
S1130B609C938F5F31968830B1F708957695762FF0
S1130B70662777956795640F751FE0910601F091DC
S1130B800701E60FF71F808308959F92AF92BF92EB
S1130B90CF92DF92EF92FF920F931F93CF93DF9345
S1130BA08C017B016A01EA01B12C942EAD2C25C085
S1130BB096012B0D311D20313105A9F42FEFE21AD6
S1130BC0F20A27E0E22220E8F222FF2054F421E096
S1130BD0E21AF10828EFE22AFF24FA942FEFE21A2E
S1130BE0F20AC92DDA2DF801E80FF91FAE01B70199
S1130BF080810E94B6052196B3948B2D90E0F80174
S1130C0001900020E9F73197E01BF10B8E179F0745
S1130C1078F2DF91CF911F910F91FF90EF90DF90C9
S1130C20CF90BF90AF909F9008959695982F882766
S1130C3097958795680F791FE0910601F091070158
S1130C40E60FF71F808108950F931F93CF93DF93CF
S1130C500E947A050E949C0500E010E060E070E0CC
S1130C60C8010E946F05C0E0D0E0BE01C8010E9427
S1130C7015060E94A3052196C031D105B1F70F5F77
S1130C801F4F0830110551F7DF91CF911F910F913C
S1130C9008958FB9779BFECF8FB10895C4980895B6
S1130CA0C49A08956E9A6C9A689ABD9ABF9ABC9A2F
S1130CB00E945006089585B7806885BF80B780621A
S1130CC080BF85B78E7F85BF85B7826085BF8BB7B0
S1130CD080648BBF8A980895CF93DF93CDB7DEB736
S1130CE068970FB6F894DEBF0FBECDBFF8948FE1BE
S1130CF090E00E9495030E945B060E94B6040E9445
S1130D00D3010E94F101789482E891E00E944B049F
S1130D108C019093DB018093DA018FE891E00E94CB
S1130D204B046C0183E991E00E944B047C0188E947
S1130D3091E00E944B044C0182EA91E00E944B0432
S1130D405C018DEA91E00E944B043C0186EB91E04A
S1130D500E944B048CEB91E00E944B0482EC91E0E6
S1130D600E944B04B601C8010E946E04B701C80179
S1130D700E946E04B401C8010E946E04B501C6014C
S1130D800E946E04B301C7010E946E040E947A059A
S1130D9060910D0170910E018091DA019091DB0157
S1130DA00E9417040E9424068BE090E09C838B83AE
S1130DB0E8ECF1E0DE01159683ED91E021912D93AD
S1130DC0E817F907D9F71A821982CE0101960E9411
S1130DD03C026E0181E1C80ED11C8C2C9D2CAA24EE
S1130DE0A394B12C8091D70181111092D7018091E5
S1130DF0D6018823B1F0CE010D960E948902EF84BA
S1130E00F8881E141F046CF4082D192DEC0CFD1C1D
S1130E10F80181918F0190E00E94370B0E151F0598
S1130E20B9F70E94F403182F80910C011817D1F21E
S1130E30113001F130F01230D1F1133009F450C007
S1130E4067C080910D0190910E01823091052CF0C4
S1130E50019790930E0180930D0160910D017091A3
S1130E600E018091DA019091DB010E9417040E9427
S1130E7024064EC0E091DA01F091DB0120910D01CE
S1130E8030910E01828593852817390734F42F5F3A
S1130E903F4F30930E0120930D0160910D0170912D
S1130EA00E01CF010E9417040E94240631C06091F4
S1130EB00D0170910E0142E08091DA019091DB0105
S1130EC00E9495049093DB018093DA01B0920E01A5
S1130ED0A0920D01B5010E9417040E94240618C0B7
S1130EE060910D0170910E0143E08091DA019091BF
S1130EF0DB010E9495049093DB018093DA01B092A8
S1130F000E01A0920D01B5010E9417040E9424064F
S1130F1010930C0167CF1F920F920FB60F921124FA
S1130F208F9381E08093D7018F910F900FBE0F9024
S1130F301F9018955058BB27AA270ED075C166D1AB
S1130F4030F06BD120F031F49F3F11F41EF45BC1FB
S1130F500EF4E095E7FB51C1E92F77D180F3BA177E
S1130F60620773078407950718F071F49EF58FC123
S1130F700EF4E0950B2EBA2FA02D0B01B9019001B0
S1130F800C01CA01A0011124FF27591B99F0593FF4
S1130F9050F4503E68F11A16F040A22F232F342F3C
S1130FA04427585FF3CF469537952795A795F0408A
S1130FB05395C9F77EF41F16BA0B620B730B840B9F
S1130FC0BAF09150A1F0FF0FBB1F661F771F881F57
S1130FD0C2F70EC0BA0F621F731F841F48F48795AF
S1130FE077956795B795F7959E3F08F0B3CF93959E
S1130FF0880F08F09927EE0F979587950895D9D013
S113100008F481E008950CD00FC107D140F0FED060
S113101030F021F45F3F19F0F0C0511139C1F3C031
S113102014D198F39923C9F35523B1F3951B550BA8
S1131030BB27AA2762177307840738F09F5F5F4FA7
S1131040220F331F441FAA1FA9F333D00E2E3AF0E8
S1131050E0E830D091505040E695001CCAF729D002
S1131060FE2F27D0660F771F881FBB1F2617370751
S11310704807AB07B0E809F0BB0B802DBF01FF2781
S113108093585F4F2AF09E3F510568F0B6C000C1E7
S11310905F3FECF3983EDCF3869577956795B795BB
S11310A0F7959F5FC9F7880F911D9695879597F9D6
S11310B00895E1E0660F771F881FBB1F621773074F
S11310C08407BA0720F0621B730B840BBA0BEE1F64
S11310D088F7E095089504D06894B111D9C00895B3
S11310E0BCD088F09F5790F0B92F9927B751A0F042
S11310F0D1F0660F771F881F991F1AF0BA95C9F7A8
S113110012C0B13081F0C3D0B1E00895C0C0672FE0
S1131110782F8827B85F39F0B93FCCF38695779557
S11311206795B395D9F73EF4909580957095619540
S11311307F4F8F4F9F4F0895E89409C097FB3EF46B
S113114090958095709561957F4F8F4F9F4F992310
S1131150A9F0F92F96E9BB279395F695879577958E
S11311606795B795F111F8CFFAF4BB0F11F460FF4E
S11311701BC06F5F7F4F8F4F9F4F16C0882311F0A6
S113118096E911C0772321F09EE8872F762F05C0BA
S1131190662371F096E8862F70E060E02AF09A9555
S11311A0660F771F881FDAF7880F9695879597F94A
S11311B00895990F0008550FAA0BE0E8FEEF1616E4
S11311C01706E807F907C0F012161306E407F50737
S11311D098F0621B730B840B950B39F40A2661F0AB
S11311E0232B242B252B21F408950A2609F4A1404E
S11311F0A6958FEF811D811D089597F99F6780E85B
S113120070E060E008959FEF80EC089500240A9454
S11312101616170618060906089500240A941216CD
S11312201306140605060895092E0394000C11F400
S1131230882352F0BB0F40F4BF2B11F460FF04C0AD
S11312406F5F7F4F8F4F9F4F089557FD9058440F06
S1131250551F59F05F3F71F04795880F97FB991F11
S113126061F09F3F79F087950895121613061406CE
S1131270551FF2CF4695F1DF08C01616170618065B
S1131280991FF1CF86957105610508940895E89436
S1131290BB2766277727CB0197F908950BD0C4CFD6
S11312A0B5DF28F0BADF18F0952309F0A6CFABCF4D
S11312B01124EECFCADFA0F3959FD1F3950F50E030
S11312C0551F629FF001729FBB27F00DB11D639FF4
S11312D0AA27F00DB11DAA1F649F6627B00DA11D9A
S11312E0661F829F2227B00DA11D621F739FB00D40
S11312F0A11D621F839FA00D611D221F749F3327B0
S1131300A00D611D231F849F600D211D822F762F48
S11313106A2F11249F5750408AF0E1F088234AF045
S1131320EE0FFF1FBB1F661F771F881F9150504091
S1131330A9F79E3F510570F060CFAACF5F3FECF351
S1131340983EDCF3869577956795B795F795E7957D
S11313509F5FC1F7FE2B880F911D9695879597F98E
S11313600895CF93DF938230910510F482E090E0EA
S1131370E091DE01F091DF0120E030E0A0E0B0E098
S1131380309739F14081518148175907B8F048170F
S1131390590771F482819381109729F013969C93D5
S11313A08E9312972CC09093DF018093DE0127C0A7
S11313B02115310531F04217530718F0A901DB015B
S11313C001C0EF019A01BD01DF010280F381E02D2C
S11313D0D7CF21153105F9F0281B390B24303105FD
S11313E080F48A819B816115710521F0FB0193834F
S11313F0828304C09093DF018093DE01FE01329664
S113140044C0FE01E20FF31F8193919322503109EE
S1131410398328833AC02091DC013091DD01232BEC
S113142041F420910201309103013093DD012093B6
S1131430DC0120910001309101012115310541F4B5
S11314402DB73EB74091040150910501241B350B83
S1131450E091DC01F091DD01E217F307A0F42E1B0B
S11314603F0B2817390778F0AC014E5F5F4F241704
S1131470350748F04E0F5F1F5093DD014093DC01A8
S11314808193919302C0E0E0F0E0CF01DF91CF912E
S11314900895CF93DF93009709F487C0FC01329736
S11314A013821282C091DE01D091DF01209781F472
S11314B020813181280F391F8091DC019091DD0159
S11314C08217930779F5F093DD01E093DC016DC099
S11314D0DE0120E030E0AE17BF0750F412964D91C4
S11314E05C9113979D014115510509F1DA01F3CF80
S11314F0B383A28340815181840F951F8A179B0770
S113150071F48D919C911197840F951F029691838C
S1131510808312968D919C911397938382832115D6
S1131520310529F4F093DF01E093DE013EC0D901D7
S11315301396FC93EE9312974D915D91A40FB51FF2
S1131540EA17FB0779F480819181840F951F029635
S1131550D90111969C938E938281938113969C93C7
S11315608E931297E0E0F0E08A819B81009719F056
S1131570FE01EC01F9CFCE01029628813981820F58
S1131580931F2091DC013091DD012817390769F49C
S1131590309729F41092DF011092DE0102C0138209
S11315A01282D093DD01C093DC01DF91CF910895C5
S11315B00F931F93CF93DF93EC018B01009731F4CA
S11315C06115710519F480E090E038C06EE070E0B8
S11315D081E090E00E943D0DFC010097A1F380E8BA
S11315E083830115110571F01387028781E88383D2
S11315F08091E0019091E101892B21F4F093E101C4
S1131600E093E0012097C9F0D187C087838182608D
S113161083838091E2019091E301892B71F4F0932B
S1131620E301E093E2018091E4019091E501892BCB
S113163021F4F093E501E093E401CF01DF91CF9130
S11316401F910F910895A0E0B0E0E9E2FBE00C9453
S1131650160EFE01359661917191AF018091E20100
S11316609091E3010E946B0BE2E00C94320E6091C6
S1131670E2017091E3010E94760D08950F931F9388
S1131680CF93DF93E091E201F091E301238121FF05
S11316901BC0EC0100E010E089916091E2017091BF
S11316A0E301DB011896ED91FC911997882331F041
S11316B00995892B89F30FEF1FEFEECF8AE0099587
S11316C0892B11F4C80102C08FEF9FEFDF91CF91F6
S11316D01F910F910895ACE0B0E0E1E7FBE00C94BA
S11316E0060E7C016B018A01FC011782168283813C
S11316F081FFBDC1CE0101964C01F7019381F60132
S113170093FD859193FF81916F01882309F4ABC107
S1131710853239F493FD859193FF81916F01853270
S113172029F4B70190E00E94760DE7CF512C312CBB
S113173020E02032A0F48B3269F030F4803259F08A
S1131740833269F420612CC08D3239F0803339F44E
S1131750216026C02260246023C0286021C027FDA8
S113176027C030ED380F3A3078F426FF06C0FAE08F
S11317705F9E300D1124532E13C08AE0389E300D25
S11317801124332E20620CC08E3221F426FD6BC14D
S1131790206406C08C3611F4206802C0883641F4F7
S11317A0F60193FD859193FF81916F018111C1CF62
S11317B0982F9F7D9554933028F40C5F1F4FFFE3BF
S11317C0F9830DC0833631F0833771F0833509F026
S11317D05BC022C0F801808189830E5F1F4F4424BF
S11317E04394512C540115C03801F2E06F0E711C62
S11317F0F801A080B18026FF03C0652D70E002C00F
S11318006FEF7FEFC5012C870E946B0D2C018301C4
S11318102C852F77222E17C03801F2E06F0E711C31
S1131820F801A080B18026FF03C0652D70E002C0DE
S11318306FEF7FEFC5012C870E94590D2C012C8579
S11318402068222E830123FC1BC0832D90E04816C0
S11318505906B0F4B70180E290E00E94760D3A9404
S1131860F4CFF50127FC859127FE81915F01B70133
S113187090E00E94760D31103A94F1E04F1A51082D
S11318804114510471F7E5C0843611F0893639F5F5
S1131890F80127FF07C060817181828193810C5F09
S11318A01F4F08C060817181882777FD8095982F2C
S11318B00E5F1F4F2F76B22E97FF09C0909580952B
S11318C0709561957F4F8F4F9F4F2068B22E2AE00D
S11318D030E0A4010E94A80DA82EA81844C08537A2
S11318E029F42F7EB22E2AE030E025C0F22FF97FB2
S11318F0BF2E8F36C1F018F4883579F0B4C0803724
S113190019F0883721F0AFC02F2F2061B22EB4FE1A
S11319100DC08B2D8460B82E09C024FF0AC09F2FF0
S11319209660B92E06C028E030E005C020E130E022
S113193002C020E132E0F801B7FE07C06081718186
S1131940828193810C5F1F4F06C06081718180E0AA
S113195090E00E5F1F4FA4010E94A80DA82EA818A6
S1131960FB2DFF77BF2EB6FE0BC02B2D2E7FA514AB
S113197050F4B4FE0AC0B2FC08C02B2D2E7E05C064
S11319807A2C2B2D03C07A2C01C0752C24FF0DC09A
S1131990FE01EA0DF11D8081803311F4297E09C016
S11319A022FF06C07394739404C0822F867809F0D2
S11319B0739423FD13C020FF06C05A2C731418F42B
S11319C0530C5718732C731468F4B70180E290E039
S11319D02C870E94760D73942C85F5CF731410F424
S11319E0371801C0312C24FF12C0B70180E390E006
S11319F02C870E94760D2C8522FF17C021FF03C07F
S1131A0088E590E002C088E790E0B7010CC0822F1F
S1131A10867859F021FD02C080E201C08BE227FDE7
S1131A208DE2B70190E00E94760DA51438F4B70159
S1131A3080E390E00E94760D5A94F7CFAA94F401C3
S1131A40EA0DF11D8081B70190E00E94760DA1108E
S1131A50F5CF332009F451CEB70180E290E00E9423
S1131A60760D3A94F6CFF7018681978102C08FEF05
S1131A709FEF2C96E2E10C94220E0F931F93CF93C9
S1131A80DF93869F8001879F100D969F100D112470
S1131A90C8010E94B109EC01009729F0A80160E097
S1131AA070E00E94640DCE01DF91CF911F910F91E0
S1131AB00895FC010590615070400110D8F780959D
S1131AC090958E0F9F1F0895DC0101C06D934150C6
S1131AD05040E0F70895FC016150704001900110FE
S1131AE0D8F7809590958E0F9F1F08950F931F939D
S1131AF0CF93DF93182F092FEB018B8181FD03C056
S1131B008FEF9FEF20C082FF10C04E815F812C8138
S1131B103D81421753077CF4E881F9819F012F5FCF
S1131B203F4F39832883108306C0E885F985812FC8
S1131B300995892B29F72E813F812F5F3F4F3F83E2
S1131B402E83812F902FDF91CF911F910F910895B4
S1131B50FA01AA27283051F1203181F1E8946F93DA
S1131B606E7F6E5F7F4F8F4F9F4FAF4FB1E03ED080
S1131B70B4E03CD0670F781F891F9A1FA11D680F1E
S1131B80791F8A1F911DA11D6A0F711D811D911D51
S1131B90A11D20D009F468943F912AE0269F1124C6
S1131BA03019305D3193DEF6CF010895462F47702A
S1131BB0405D4193B3E00FD0C9F7F6CF462F4F7085
S1131BC0405D4A3318F0495D31FD4052419302D0E3
S1131BD0A9F7EACFB4E0A695979587957795679589
S1131BE0BA95C9F700976105710508959B01AC0189
S1131BF00A2E06945795479537952795BA95C9F7B0
S1131C00620F731F841F951FA01D08952F923F928A
S1131C104F925F926F927F928F929F92AF92BF92F8
S1131C20CF92DF92EF92FF920F931F93CF93DF93A4
S1131C30CDB7DEB7CA1BDB0B0FB6F894DEBF0FBE01
S1131C40CDBF09942A88398848885F846E847D844E
S1131C508C849B84AA84B984C884DF80EE80FD8050
S1131C600C811B81AA81B981CE0FD11D0FB6F894C6
S1111C70DEBF0FBECDBFED010895F894FFCF87
S1131C7E0000E60120000018001200100401004DBF
S1131C8E435032353135206973204E4F5420696EDE
S1131C9E20636F6E666967206D6F6465206166747C
S1131CAE657220726573657421004D43503235316F
S1131CBE35206973204E4F5420696E206C6F6F70FF
S1131CCE6261636B206D6F646521004F7574206FC4
S1131CDE66206D656D6F727921204661696C65644D
S1131CEE20746F20637265617465206D656E750076
S1131CFE2A00486F7720746F20737465616C0047F7
S1131D0E616C004B6F6465005553422D626F6172B6
S1131D1E64006C75722042656E64696B0066616363
S1131D2E657261706500477265656E00426C616331
S1131D3E6B0057686974650068656970E56465676A
S1071D4E6A610000C2
S9030000FC
