:100000000C94BB010C9427030C94D8010C940802A7
:100010000C94D8010C94D8010C94D8010C94D801FC
:100020000C94D8010C948B040C94D8010C94D80136
:100030000C94D8010C94D8010C94D8010C946E0443
:100040000C94D8010C94D8010C94D8010C94D801CC
:100050000C94D8010C94D8010C94D8010C94D801BC
:100060000C94D8010C94D8010C94D8010C94D801AC
:10007000B30DB60DBA0DBE0DC70DC20DDB0D0000E0
:1000800000000000000000065F5F0600000000079F
:10009000070007070000147F7F147F7F1400242EC1
:1000A0006B6B3A120000466630180C666200307ABC
:1000B0004F5D377A48000407030000000000001C71
:1000C0003E63410000000041633E1C000000082A1E
:1000D0003E1C1C3E2A0808083E3E0808000000A0FE
:1000E000E0600000000008080808080800000000A0
:1000F0006060000000006030180C060301003E7FC5
:10010000594D7F3E000042427F7F404000006273B5
:1001100059496F660000226349497F360000181C68
:1001200016137F7F1000276745457D3900003C7E10
:100130004B4979300000036371190F070000367FC7
:1001400049497F360000064F49693F1E0000000004
:100150006C6C0000000000A0EC6C00000000081CAB
:1001600036634100000014141414141400000041FC
:1001700063361C080000020351590F0600003E7F41
:10018000415D5D1F1E007C7E13137E7C0000417F5D
:100190007F49497F36001C3E634141632200417F15
:1001A0007F41637F1C00417F7F495D416300417F48
:1001B0007F491D0103001C3E6341517372007F7F24
:1001C00008087F7F000000417F7F41000000307001
:1001D00040417F3F0100417F7F081C776300417FE2
:1001E0007F41406070007F7F060C067F7F007F7F2D
:1001F000060C187F7F001C3E6341633E1C00417F5C
:100200007F49090F06001E3F21717F5E0000417F7C
:100210007F19396F460026674D597B320000034134
:100220007F7F410300007F7F40407F7F00001F3FB2
:1002300060603F1F00007F7F3018307F7F00637752
:100240001C081C776300074F78784F07000067731E
:10025000594D47637100007F7F4141000000010359
:10026000060C183060000041417F7F000000080C40
:100270000603060C0800808080808080808000005B
:10028000030704000000207454543C784000413FB0
:100290007F44447C3800387C44446C28000030782B
:1002A00048493F7F4000387C54545C180000487E29
:1002B0007F490302000098BCA4A4F87C0400417F9D
:1002C0007F08047C780000447D7D4000000040C42D
:1002D00084FD7D000000417F7F10386C44000041A8
:1002E0007F7F400000007C7C0C180C7C78007C7CBC
:1002F00004047C780000387C44447C38000084FC92
:10030000F8A4243C1800183C24A4F8FC8400447C85
:1003100078441C180000485C545474240000000405
:100320003E7F442400003C7C40403C7C40001C3C20
:1003300060603C1C00003C7C6030607C3C00446C95
:100340003810386C44009CBCA0A0FC7C00004C64BD
:10035000745C4C64000008083E77414100000000D6
:100360000077770000004141773E08080000020353
:1003700001030203010011241FBECFEFD4E0DEBF52
:10038000CDBF12E0A0E0B1E0E8E8F5E202C00590E0
:100390000D92A83BB107D9F723E0A8EBB2E001C06A
:1003A0001D92A830B207E1F70E947C0D0C94C21296
:1003B0000C94000086B7816086BF8BB780628BBFCC
:1003C000309885B7806885BF80B7806280BF3098DD
:1003D000B898B998BA9880E090E00895E9E9F9E012
:1003E0003197F1F700C08460809300148091D202AD
:1003F0009091D302892BD1F389E999E00197F1F724
:1004000000C01092D3021092D2028091001408957D
:100410001F920F920FB60F9211248F939F9381E03A
:1004200090E09093D3028093D2029F918F910F908E
:100430000FBE0F901F901895CF93DF931F92CDB7EB
:10044000DEB70E946B068CEC94E00197F1F700C0D8
:1004500000008EE00E94700689838981807E80384A
:1004600039F08AE191E00E94B30F81E090E01FC073
:1004700041E061E08BE20E94A9064FEF60E680E672
:100480000E94A90640E060EE8FE00E94A9068EE07F
:100490000E94700689838981807E39F085E491E02D
:1004A0000E94B30F81E090E002C080E090E00F90E6
:1004B000DF91CF91089580E30E947006869586951E
:1004C000869591E08927817090E00895EF92FF92E0
:1004D0000F931F93CF93DF937C010E945B02892BC4
:1004E000D9F1F701608166956695669581E30E9472
:1004F0008306F70160816295660F607E82E30E9449
:100500008306F70162816F7085E30E948306F7011D
:10051000828193818930910554F088E090E0938343
:10052000828387010C5F1F4FC0E0D0E004C0181623
:100530001906BCF30EC0F80161918F018C2F8A5C03
:100540000E9483062196F70122813381C217D307C7
:1005500094F381E00E949706DF91CF911F910F9154
:10056000FF90EF90089540E061E08CE20E94A906C0
:1005700040E064E08CE20E94A90681E08093B8022A
:1005800008950F931F93CF93DF93CDB7DEB72C97CA
:100590000FB6F894DEBF0FBECDBF85E090E00E949D
:1005A000DD06082F87E090E00E94E106182F81E029
:1005B00090E00E94E506FE0131969CE0DF011D926D
:1005C0009A95E9F723E030E03C832B830D831E836B
:1005D0008F83CF010E9466022C960FB6F894DEBF7F
:1005E0000FBECDBFDF91CF911F910F9108950F9353
:1005F0001F93CF93DF93CDB7DEB72C970FB6F89448
:10060000DEBF0FBECDBF0E94220D162F082F0E9405
:100610001A0DFE0131969CE0DF011D929A95E9F7D3
:1006200023E030E03C832B830D831E838F8381E0A6
:100630008887CF010E9466022C960FB6F894DEBF21
:100640000FBECDBFDF91CF911F910F9108951F92E3
:100650000F920FB60F9211242F933F934F935F93F6
:100660006F937F938F939F93AF93BF93EF93FF937A
:100670000E94B302FF91EF91BF91AF919F918F9133
:100680007F916F915F914F913F912F910F900FBE8E
:100690000F901F9018952F923F924F925F926F92FA
:1006A0007F928F929F92AF92BF92CF92DF92EF9202
:1006B000FF920F931F93CF93DF93CDB7DEB7689769
:1006C0000FB6F894DEBF0FBECDBF382E8E010F5F80
:1006D0001F4F8CE0F80111928A95E9F784E090E0D1
:1006E0009C838B8338861F923F9284E691E09F9390
:1006F0008F930E94980FC8010E94660283E090E0E9
:100700009093F9028093F8021092BE021092BD02FB
:100710001092BC021092BB020E941C0A0F900F9014
:100720000F900F90E12CF12C0DE710E00F2EF3E964
:10073000AF2EF1E0BF2EF02D212C552453944E0105
:10074000FDE08F0E911C6894662462F8712C422C97
:100750008091CF029091D002892B71F06091BD02FF
:100760007091BE028091F8029091F9020E94ED0B07
:100770001092D0021092CF028091B9029091BA02E9
:10078000892B71F0F80180818B7F80830E94C102E8
:100790001092BA021092B902F801808184608083BD
:1007A0008091B802882309F475C088E791E00E941F
:1007B000B30F6091BD027091BE028091F8029091DA
:1007C000F9020E94ED0B8091F8029091F9020197D5
:1007D0009093F9028093F8022091BD023091BE02FD
:1007E0004091BB025091BC024217530724F430934E
:1007F000BC022093BB029F938F93BF92AF920E9443
:10080000980F0F900F900F900F908091F802909199
:10081000F902892B19F40E94230C44C00E94300C69
:1008200081E090E00E94E5066C0182E090E00E9489
:10083000E506252D892B09F0242D222331F0852D65
:10084000CD2809F0842D8111EBCF82E090E00E9449
:10085000E506892B39F5FFEF2FE787E0F1502040BF
:100860008040E1F700C00000F4012CE011922A95CD
:10087000E9F7788A6F863C8AC4010E94660210926A
:10088000BE021092BD022092B802E114F10409F4F4
:100890005FCF04C0E114F10409F45ACF86E08093DD
:1008A000D10203C01092B802F9CF68960FB6F8943F
:1008B000DEBF0FBECDBFDF91CF911F910F91FF9093
:1008C000EF90DF90CF90BF90AF909F908F907F90F0
:1008D0006F905F904F903F902F9008951F920F92CE
:1008E0000FB60F9211248F939F9381E090E0909325
:1008F000D0028093CF028091BD029091BE020196FA
:100900009093BE028093BD029F918F910F900FBE76
:100910000F901F9018951F920F920FB60F921124EF
:100920008F939F9381E090E09093BA028093B902F5
:100930009F918F910F900FBE0F901F90189520914F
:10094000BF023091C002281739077CF0E1ECF2E0D9
:1009500021E030E041915191481759074CF02F5F49
:100960003F4F25303105B1F706C080E090E0089593
:10097000822F932F08958FEF9FEF0895E199FECF77
:10098000F8947FBB6EBB8DBBE29AE19A7894089590
:10099000AF92BF92CF92DF92EF92FF920F931F938D
:1009A000CF93DF938DE991E09F938F930E94980FEF
:1009B00006E011E00F900F90C12CD12CA12CB12C8E
:1009C0000F2EF3EBEF2EF1E0FF2EF02D2CC0D8010F
:1009D000ED91FC91EC0FFD1F80811F928F93FF9290
:1009E000EF920E94980FBE016C0D7D1DD801ED9114
:1009F000FC91EC0FFD1F80810E94BE0421960F9098
:100A00000F900F900F90C330D10509F78AE090E066
:100A10000E94AC0F0E5F1F4FB3E0CB0ED11CEFE076
:100A2000CE16D10419F0CA2DDB2DD1CF0FEB12E079
:100A3000CFE0D0E00F2EF7EBEF2EF1E0FF2EF02D00
:100A4000D801DC901196CC900E5F1F4FBE018D2D0A
:100A50000E94BE04CF92DF92FF92EF920E94980F05
:100A600021960F900F900F900F90C431D10541F750
:100A7000DF91CF911F910F91FF90EF90DF90CF907A
:100A8000BF90AF900895CF93DF9384309105ACF47D
:100A9000A7ECB2E0EEE0F1E024E030E021503109D3
:100AA000DE91CE911396DC93CE931297D291C291A0
:100AB000D383C2832817390789F7880F991FFC0150
:100AC000E154FD4F71836083FC01EA5FFE4F518367
:100AD00040830E94C804DF91CF910895E199FECF31
:100AE0009FBB8EBBE09A8DB30895AF92BF92CF9219
:100AF000DF92EF92FF920F931F93CF93DF930F2E0E
:100B0000F6E0CF2EF1E0DF2EF02D00E010E0A12C7A
:100B1000B12C18C0F601E080F180EC0EFD1ECE0174
:100B2000800F911F0E946E05F70180832196C330CC
:100B3000D10581F7F2E0CF0ED11C0D5F1F4F0F30B2
:100B4000110519F0CA2DDB2DE5CF0FEB12E0CFE038
:100B5000D0E0CE010E946E0590E0F8018193919360
:100B60008F012196C431D105A1F7DF91CF911F915B
:100B70000F91FF90EF90DF90CF90BF90AF900895CE
:100B8000CF92DF92EF92FF920F931F93CF93DF9359
:100B90000E94DC0943E050E060E070E08AE192E00E
:100BA0000E94580A0E9475050F2EF6E0CF2EF1E044
:100BB000DF2EF02D0F2EFFEBEF2EF2E0FF2EF02DAB
:100BC000C0E0D0E08E010E5F1F4F43E050E0B8015F
:100BD000F601819191916F010E94580A2196CE01F0
:100BE0000E944D0C40E050E0B8010E94580A41E0DC
:100BF00050E0B8018BEB91E00E94580AF701819117
:100C000091917F010E944D0C4AE050E0B8010E9492
:100C1000580AC530D105B1F60E94BA0ADF91CF91CA
:100C20001F910F91FF90EF90DF90CF900895AF92BA
:100C3000BF92CF92DF92EF92FF920F931F93CF93C9
:100C4000DF930F2EF6E0EF2EF1E0FF2EF02D00E007
:100C500010E00F2EFDEBCF2EF1E0DF2EF02DA12CBA
:100C6000B12CF701C192D1927F01CA2DDB2DB801C1
:100C70006C0F7D1F8DE20E94BE042196C330D1050A
:100C8000B1F70D5F1F4F0F30110559F70FEB12E051
:100C9000CFE0D0E0BE0180E00E94BE04F8011192D6
:100CA00011928F012196C431D105A1F70E94C80489
:100CB000DF91CF911F910F91FF90EF90DF90CF9038
:100CC000BF90AF9008950E94380D80EC0E942B0DCC
:100CD0000E943A0D08950E94420D0E9463060895F5
:100CE000CF93C82F0E94380D83E00E942B0D8C2FCC
:100CF0000E942B0D80E00E942B0DC82F0E943A0D00
:100D00008C2FCF910895CF93DF93D82FC62F0E94B9
:100D1000380D82E00E942B0D8D2F0E942B0D8C2F01
:100D20000E942B0D0E943A0DDF91CF910895CF9331
:100D3000C82F0E94380DC83028F48C2F80680E947C
:100D40002B0D03C080E80E942B0D0E943A0DCF911D
:100D500008951F93CF93DF93182FD62FC42F0E948F
:100D6000380D85E00E942B0D812F0E942B0D8D2FB9
:100D70000E942B0D8C2F0E942B0D0E943A0DDF91AB
:100D8000CF911F9108955D9BFECF8CB980E090E0DC
:100D900008955F9BFECF8CB1089589B988E18AB927
:100DA00069EC76E083EC96E00E944D0F9093FB0295
:100DB0008093FA0280E090E008950E94EE0190E0B6
:100DC00008950E94EE0190E008958130910521F48C
:100DD00046B3427050E009C0029729F486B3482F09
:100DE000417050E002C04FEF5FEFCA010895CF930A
:100DF00085E00E94EE01C82F84E00E94EE01282FBA
:100E000030E0273931056CF42E36310564F08C2F33
:100E100090E0873991054CF48E36910544F483E0D7
:100E200007C080E005C081E003C082E001C084E02B
:100E3000CF91089586B3847090E00895EF92FF9269
:100E40000F931F93CF93DF938C017B010E94DC09EA
:100E5000F801C681D78140E050E060E070E0808119
:100E600091810E94580A209781F001E010E042E051
:100E700050E0B801888199810E94580A0A80DB817C
:100E8000C02D0F5F1F4F209791F740E050E0B70152
:100E90008AE20E949C0ADF91CF911F910F91FF90EF
:100EA000EF900895CF93DF93EC018CE090E00E94E7
:100EB000010EFC01009741F485EC91E00E94B30F14
:100EC00081E090E00E94C212D183C083138212821B
:100ED0001582148211861086178216821386128656
:100EE000DF91CF910895DC011696ED91FC91179753
:100EF000309729F417967C936E9316970EC0228133
:100F000033812115310511F0F901F9CF7383628323
:100F1000DB011596FC93EE931497FC012285338533
:100F20002F5F3F4F33872287DB0119969C938E9367
:100F3000189708952F923F924F925F926F927F92EF
:100F40008F929F92AF92BF92CF92DF92EF92FF92D9
:100F50000F931F93CF93DF9300D000D0CDB7DEB7B0
:100F600080ED91E00E9452076C019093FD02809306
:100F7000FC028DED91E00E9452079C838B8387EEEB
:100F800091E00E9452077C0181EF91E00E9452079C
:100F90005C0186EF91E00E9452074C018DEF91E0D9
:100FA0000E9452073C0182E092E00E9452072C010D
:100FB00087E092E00E9452078C018DE092E00E944F
:100FC00052071C0181E192E00E9452079A838983B3
:100FD0006B817C81C6010E947307B701C6010E9424
:100FE0007307B5018B819C810E947307B4018B81CB
:100FF0009C810E947307B3018B819C810E947307BF
:10100000B201C7010E947307B801C7010E947307AC
:10101000B101C8010E94730769817A81C8010E94E9
:1010200073070E941C0A6091110170911201809156
:10103000FC029091FD020E941E070E94BA0AE091F4
:10104000FC02F091FD02868197819093CA02809301
:10105000C9020F900F900F900F90DF91CF911F91C9
:101060000F91FF90EF90DF90CF90BF90AF909F9047
:101070008F907F906F905F904F903F902F9008954A
:10108000CF930E94F706C82F80911001C81709F46A
:10109000D4C0C13061F138F0C23009F451C0C3305E
:1010A00009F492C0CAC0209111013091120122307E
:1010B000310584F0E091C902F091CA0284819581E2
:1010C0009093CA028093C9022150310930931201D2
:1010D0002093110160911101709112018091FC0225
:1010E0009091FD020E941E070E94BA0AA6C0E091DC
:1010F000FC02F091FD0220911101309112018285D4
:1011000093852817390794F4A091C902B091CA02B7
:1011100012968D919C9113979093CA028093C90265
:101120002F5F3F4F30931201209311016091110105
:1011300070911201CF010E941E070E94BA0A7DC061
:10114000E091C902F091CA0286819781892B09F446
:1011500074C04091110150911201A091FC02B09114
:10116000FD021696ED91FC9117974230510554F00F
:1011700021E030E00280F381E02D2F5F3F4F241704
:101180003507C1F7309719F08E2F9F2F02C08A2F95
:101190009B2F8093FC029093FD0221E030E030937E
:1011A00012012093110161E070E00E941E070E946D
:1011B000BA0AE091C902F091CA02868197819093A0
:1011C000CA028093C90239C0E091C902F091CA02F3
:1011D0000084F185E02D20853185232B71F1E0918C
:1011E000FC02F091FD02208531852115310519F0B1
:1011F000822F932F02C08E2F9F2F8093FC029093FB
:10120000FD0221E030E0309312012093110161E0F2
:1012100070E00E941E070E94BA0AE091C902F09194
:10122000CA020084F185E02D0084F185E02D8681DD
:1012300097819093CA028093C902C09310010E94C3
:101240001A07892B99F5E091C902F091CA028081B1
:10125000918121E0813F920721F481E08093D102C6
:1012600025C021E0863F920721F482E08093D102DD
:101270001DC021E08D3F920721F483E08093D102CD
:1012800015C022E08230920721F484E08093D102DD
:101290000DC022E08D30920721F485E08093D102C9
:1012A00005C08151924011F41092D102CF9108955E
:1012B000E0911801F09119018EEA8083E091180104
:1012C000F091190181EA8083E0911801F0911901F0
:1012D0008AED8083E0911801F091190182E1808309
:1012E000E0911801F091190188EC8083E0911801D8
:1012F000F091190188EA8083E0911801F0911901B9
:101300008FE38083E0911801F091190185ED8083CE
:10131000E0911801F091190180E88083E0911801B3
:10132000F091190181E88083E0911801F091190191
:1013300080E58083E0911801F091190189ED8083A7
:10134000E0911801F091190181E28083E091180188
:10135000F091190180E28083E0911801F091190168
:1013600082E08083E0911801F09119018BED808378
:10137000E0911801F091190180E38083E091180158
:10138000F09119018DEA8083E0911801F091190123
:101390001082E0911801F091190184EA8083E091B4
:1013A0001801F091190186EA8083E0911801F0910B
:1013B00019018FEA8083089580E090E020E2E091B7
:1013C0001401F0911501E80FF91F20830196811592
:1013D00034E09307A1F70895E0911801F091190105
:1013E000982F906B90838093CC020895E091180120
:1013F000F0911901282F2F702083E0911801F091AE
:1014000019019C01207F3327359527953595279520
:101410003595279535952795206120838093CB02BC
:101420000895CF93DF93EB010E94EC09CE010E9457
:10143000F609DF91CF9108950F931F93CF93DF9318
:10144000C0E0D0E000E810E060E070E0CE010E9473
:10145000110A202F312FE0911601F091170110820F
:101460002150310921153105B1F72196C830D10538
:1014700059F7DF91CF911F910F91089560E070E0CF
:1014800080E090E00E94110A089528E0829FC00148
:101490001124FC01E258F04080E0A0911601B091C7
:1014A000170194919C938F5F31968830B1F708951E
:1014B0000F931F93CF93DF93DC019A01C0E0142FA9
:1014C000D52F29C0FA01EC0FF11D709771F46F5FF1
:1014D0007F4F67707078772334F461507109686FBB
:1014E0007F6F6F5F7F4F212F3D2FFD01E80FF91FA9
:1014F0000081FB01F695FE2FEE27F795E795E20FA9
:10150000F31F8091140190911501E80FF91F0083DA
:101510002F5F3F4FCF5F8C2F90E0FD0101900020A7
:10152000E9F73197EA1BFB0B8E179F0758F2DF9103
:10153000CF911F910F9108957695762F6627779515
:101540006795640F751FE0911401F0911501E60F86
:10155000F71F808308959695982F882797958795EC
:10156000680F791FE0911401F0911501E60FF71F44
:10157000808108950F931F93CF93DF930E941C0ADD
:101580000E943E0A00E010E060E070E0C8010E94A6
:10159000110AC0E0D0E0BE01C8010E94AB0A0E945F
:1015A000450A2196C031D105B1F70F5F1F4F0830B2
:1015B000110551F7DF91CF911F910F9108958F92EF
:1015C0009F92AF92BF92CF92DF92EF92FF920F93D2
:1015D0001F93CF93DF93EC010E94DC0940E050E0C1
:1015E00060E070E086E192E00E94580A40E050E03E
:1015F00063E070E084E292E00E94580A40E050E02C
:1016000064E070E086E292E00E94580A40E050E018
:1016100065E070E08AE292E00E94580A4AE050E0F9
:1016200064E070E0CE010E94580A0E94BA0A0F2EB0
:10163000F1E48F2EF02DC0E0D0E00F2EF4E8AF2EB5
:10164000F2E0BF2EF02D0F2EFEE8CF2EF2E0DF2EBF
:10165000F02D0F2EFCE2EF2EF2E0FF2EF02D81E0B8
:1016600090E00E94E506892B09F0A8C00E94F706C9
:10167000982E80911301891509F49CC081E0981679
:1016800079F0981638F0E2E09E1699F0F3E09F1694
:10169000C9F164C081E4881609F45CC08A945EC014
:1016A000EAE58E1611F0839459C00F2EF1E48F2EC7
:1016B000F02DC230D1050CF051C08E010F5F1F4FCD
:1016C000A80163E070E084E292E00E94580AA80159
:1016D00065E070E08AE292E00E94580AAE0163E0A1
:1016E00070E081EB91E00E94580AAE0165E070E085
:1016F00081EB91E00E94580AE8010F2EF1E48F2E51
:10170000F02D2CC01C161D064CF5FE01EB5DFD4FA7
:1017100080808E0101501109A80163E070E084E22D
:1017200092E00E94580AA80165E070E08AE292E027
:101730000E94580AAE0163E070E081EB91E00E94E4
:10174000580AAE0165E070E081EB91E00E94580A12
:10175000E80104C00F2EFAE58F2EF02D8501F80167
:10176000808191810E5F1F4F9F938F93FF92EF9225
:101770000E94980F0F900F900F900F900C151D0561
:1017800071F787E392E00E94B30F90921301FE017C
:10179000EA5DFD4F808240E050E064E070E086E268
:1017A00092E00E94580A0E94BA0AC330D1050CF494
:1017B00056CF04C0C330D1050CF451CF86E292E07D
:1017C000DF91CF911F910F91FF90EF90DF90CF901D
:1017D000BF90AF909F908F900895CF93C82FCB016B
:1017E0004AE06CE971E00E94280F0E94DC0940E0A9
:1017F00050E060E070E08BE592E00E94580A40E023
:1018000050E063E070E089E692E00E94580A49E007
:1018100050E063E070E08EE192E00E94580AC05D03
:10182000E0911401F0911501EE57FD4FC0834AE09D
:1018300050E065E070E08CE991E00E94580A0E9457
:10184000BA0ACF9108950E94DC0940E050E064E0BC
:1018500070E08FE692E00E94580A0E94BA0A08954A
:101860000E94DC0940E050E060E070E088E792E030
:101870000E94580A40E050E064E070E08DE092E0A1
:101880000E94580A49E050E064E070E081E192E093
:101890000E94580A0E94BA0A08954AE06CE971E071
:1018A0000E94280F8CE991E00895CF93DF93C82F11
:1018B000D62FC59AC79A0E943C0D81E00E94300D38
:1018C0008093E40282E40E94300D8093E50280E080
:1018D0000E94300D8093E6028D2F0E94300D809380
:1018E000E7028C2F0E94300D8093E80280E00E9476
:1018F000300D8093E20280E00E94300D8093E3027D
:1019000080E00E94300D8093E00280E00E94300D64
:101910008093E1028CEC94E00197F1F700C00000A5
:101920000E943F0DDF91CF910895CF92DF92EF9209
:10193000FF920F931F93CF93DF93EC01162F0E941A
:101940003C0D1123A9F06E017E018FEFE81AF80A11
:101950001150E10EF11C8E010C191D0989910E9494
:10196000300DF801EC51FD4F8083CE15DF0599F75E
:101970000E943F0DDF91CF911F910F91FF90EF904B
:10198000DF90CF90089565E082EB92E00E94950C85
:10199000089569E089EA92E00E94950C089569E053
:1019A00080EA92E00E94950C089569E087E992E050
:1019B0000E94950C089569E08EE892E00E94950CD3
:1019C00008950E943F0D8FEF9FE20197F1F700C04D
:1019D00000000E94C30C9FEF2FEB83E0915020404A
:1019E0008040E1F700C000000E94C90C9FEF2FEB80
:1019F00083E0915020408040E1F700C000000E9449
:101A0000CF0C9FEF2FEB83E0915020408040E1F717
:101A100000C000000E94D50C9FEF2FEB83E0915097
:101A200020408040E1F700C000000E94DB0C0E94D3
:101A30003C0D08958091E802869591E08927817098
:101A400090E008956091E0027091E1028091E202DD
:101A50009091E30208958FB9779BFECF8FB10895DF
:101A60008FB9779BFECF84EA8A95F1F78FB10895FD
:101A7000C4980895C49A08956D9AC3980895C39A16
:101A80006D9808956E9A6C9A699A709A6B9A6D9A8D
:101A90006A9ABD9ABF9ABC9ABB9A0E943A0D0E945C
:101AA0003F0D089585B7806885BF80B7806280BF8D
:101AB00085B78E7F85BF85B7826085BF8BB7806411
:101AC0008BBF8A988FB58D7F8FBD8FB58E7F8FBD71
:101AD000EBE8F0E080818D7F808380818E7F808342
:101AE0008EB582608EBD8EB581608EBDEAE8F0E075
:101AF0008081826080830895F8948FE190E00E9455
:101B0000CD060E94520D0E9458090E94DA010E94DF
:101B10001C020E94E10C78940E949A070E947505AD
:101B2000C4E06FEF81E00E94550C2FEF8FE791E04A
:101B3000215080409040E1F700C000C00E94F702B1
:101B40002FEF8FE791E0215080409040E1F700C0F7
:101B500000C0E091D102F0E0E730F10510F7E85C59
:101B6000FF4F0C94FB0D0E944008DBCF81E00E94E8
:101B70004B03D7CF82E00E944B03D3CF83E00E9478
:101B80004B03CFCF0E941706C093D102CACF0E9449
:101B9000F706833011F41092D1028091CF02909118
:101BA000D002892B09F4BDCF0E94C0051092D0024B
:101BB0001092CF02B6CF8091BB029091BC020E94DE
:101BC0009F049093CE028093CD0299238CF0809154
:101BD000BB029091BC020E94DF0A6091BB0270912F
:101BE000BC02AC018091CD029091CE020E944305CF
:101BF000C093D10296CFEE0FFF1F0590F491E02D18
:101C00000994CF93DF938230910510F482E090E045
:101C1000E0910003F091010320E030E0A0E0B0E0AB
:101C2000309739F14081518148175907B8F048176A
:101C3000590771F482819381109729F013969C9330
:101C40008E9312972CC0909301038093000327C0BA
:101C50002115310531F04217530718F0A901DB01B6
:101C600001C0EF019A01BD01DF010280F381E02D87
:101C7000D7CF21153105F9F0281B390B2430310558
:101C800080F48A819B816115710521F0FB019383AA
:101C9000828304C09093010380930003FE01329677
:101CA00044C0FE01E20FF31F81939193225031094A
:101CB000398328833AC02091FE023091FF02232B02
:101CC00041F420910201309103013093FF022093EF
:101CD000FE0220910001309101012115310541F4EE
:101CE0002DB73EB74091040150910501241B350BDF
:101CF000E091FE02F091FF02E217F307A0F42E1B21
:101D00003F0B2817390778F0AC014E5F5F4F24175F
:101D1000350748F04E0F5F1F5093FF024093FE02BD
:101D20008193919302C0E0E0F0E0CF01DF91CF9189
:101D30000895CF93DF93009709F487C0FC01329791
:101D400013821282C0910003D0910103209781F485
:101D500020813181280F391F8091FE029091FF026E
:101D60008217930779F5F093FF02E093FE026DC0AE
:101D7000DE0120E030E0AE17BF0750F412964D911F
:101D80005C9113979D014115510509F1DA01F3CFDB
:101D9000B383A28340815181840F951F8A179B07CB
:101DA00071F48D919C911197840F951F02969183E8
:101DB000808312968D919C91139793838283211532
:101DC000310529F4F0930103E09300033EC0D901EB
:101DD0001396FC93EE9312974D915D91A40FB51F4E
:101DE000EA17FB0779F480819181840F951F029691
:101DF000D90111969C938E938281938113969C9323
:101E00008E931297E0E0F0E08A819B81009719F0B1
:101E1000FE01EC01F9CFCE01029628813981820FB3
:101E2000931F2091FE023091FF022817390769F4B1
:101E3000309729F4109201031092000302C013821C
:101E40001282D093FF02C093FE02DF91CF910895DA
:101E5000BB274A3031F4992322F4BDE29095819555
:101E60009F4F0C94340FBB27FB015527AA27880FDF
:101E7000991FAA1FA41710F0A41B83955051B9F7FE
:101E8000A05DAA3308F0A95DA193009779F7B1117D
:101E9000B1931192CB010C94EB110F931F93CF933D
:101EA000DF93EC018B01009731F46115710519F492
:101EB00080E090E038C06EE070E081E090E00E9449
:101EC000B211FC010097A1F380E88383011511058D
:101ED00071F01387028781E88383809102039091D8
:101EE0000303892B21F4F0930303E093020320976B
:101EF000C9F0D187C0878381826083838091040386
:101F000090910503892B71F4F0930503E09304038A
:101F10008091060390910703892B21F4F093070326
:101F2000E0930603CF01DF91CF911F910F910895A8
:101F3000A0E0B0E0EEE9FFE00C949B12FE013596C4
:101F400061917191AF0180910403909105030E940A
:101F5000E00FE2E00C94B712609104037091050366
:101F60000E94FB1108950F931F93CF93DF93E0918D
:101F70000403F0910503238121FF1BC0EC0100E065
:101F800010E089916091040370910503DB011896BC
:101F9000ED91FC911997882331F00995892B89F3EC
:101FA0000FEF1FEFEECF8AE00995892B11F4C801DE
:101FB00002C08FEF9FEFDF91CF911F910F91089596
:101FC000ACE0B0E0E6EEFFE00C948B127C016B011C
:101FD0008A01FC0117821682838181FFBDC1CE0177
:101FE00001964C01F7019381F60193FD859193FFD2
:101FF00081916F01882309F4ABC1853239F493FDD7
:10200000859193FF81916F01853229F4B70190E0AA
:102010000E94FB11E7CF512C312C20E02032A0F49C
:102020008B3269F030F4803259F0833269F42061E8
:102030002CC08D3239F0803339F4216026C0226003
:10204000246023C0286021C027FD27C030ED380F51
:102050003A3078F426FF06C0FAE05F9E300D112476
:10206000532E13C08AE0389E300D1124332E206287
:102070000CC08E3221F426FD6BC1206406C08C3664
:1020800011F4206802C0883641F4F60193FD859171
:1020900093FF81916F018111C1CF982F9F7D95543E
:1020A000933028F40C5F1F4FFFE3F9830DC0833694
:1020B00031F0833771F0833509F05BC022C0F8013D
:1020C000808189830E5F1F4F44244394512C540117
:1020D00015C03801F2E06F0E711CF801A080B180CC
:1020E00026FF03C0652D70E002C06FEF7FEFC501D2
:1020F0002C870E94E0112C0183012C852F77222E42
:1021000017C03801F2E06F0E711CF801A080B18099
:1021100026FF03C0652D70E002C06FEF7FEFC501A1
:102120002C870E94CE112C012C852068222E830141
:1021300023FC1BC0832D90E048165906B0F4B7016C
:1021400080E290E00E94FB113A94F4CFF50127FC65
:10215000859127FE81915F01B70190E00E94FB11FC
:1021600031103A94F1E04F1A51084114510471F7BB
:10217000E5C0843611F0893639F5F80127FF07C02C
:1021800060817181828193810C5F1F4F08C06081E3
:102190007181882777FD8095982F0E5F1F4F2F76CE
:1021A000B22E97FF09C090958095709561957F4FED
:1021B0008F4F9F4F2068B22E2AE030E0A4010E948A
:1021C0002D12A82EA81844C0853729F42F7EB22ED0
:1021D0002AE030E025C0F22FF97FBF2E8F36C1F004
:1021E00018F4883579F0B4C0803719F0883721F0B9
:1021F000AFC02F2F2061B22EB4FE0DC08B2D846096
:10220000B82E09C024FF0AC09F2F9660B92E06C0C1
:1022100028E030E005C020E130E002C020E132E0FB
:10222000F801B7FE07C060817181828193810C5FE4
:102230001F4F06C06081718180E090E00E5F1F4FEC
:10224000A4010E942D12A82EA818FB2DFF77BF2EE7
:10225000B6FE0BC02B2D2E7FA51450F4B4FE0AC081
:10226000B2FC08C02B2D2E7E05C07A2C2B2D03C06E
:102270007A2C01C0752C24FF0DC0FE01EA0DF11D62
:102280008081803311F4297E09C022FF06C0739437
:10229000739404C0822F867809F0739423FD13C0D1
:1022A00020FF06C05A2C731418F4530C5718732CC3
:1022B000731468F4B70180E290E02C870E94FB1150
:1022C00073942C85F5CF731410F4371801C0312C9A
:1022D00024FF12C0B70180E390E02C870E94FB111D
:1022E0002C8522FF17C021FF03C088E590E002C0C3
:1022F00088E790E0B7010CC0822F867859F021FD65
:1023000002C080E201C08BE227FD8DE2B70190E0C0
:102310000E94FB11A51438F4B70180E390E00E94FD
:10232000FB115A94F7CFAA94F401EA0DF11D8081B4
:10233000B70190E00E94FB11A110F5CF332009F402
:1023400051CEB70180E290E00E94FB113A94F6CFA3
:10235000F7018681978102C08FEF9FEF2C96E2E113
:102360000C94A7120F931F93CF93DF93869F800146
:10237000879F100D969F100D1124C8010E94010E19
:10238000EC01009729F0A80160E070E00E94D911EB
:10239000CE01DF91CF911F910F910895FC0105901F
:1023A000615070400110D8F7809590958E0F9F1F57
:1023B0000895DC0101C06D9341505040E0F708954D
:1023C000FC016150704001900110D8F78095909504
:1023D0008E0F9F1F0895DC01FC01672F71917723F9
:1023E000E1F7329704C07C916D9370836291AE17D0
:1023F000BF07C8F308950F931F93CF93DF93182F50
:10240000092FEB018B8181FD03C08FEF9FEF20C06F
:1024100082FF10C04E815F812C813D81421753079E
:102420007CF4E881F9819F012F5F3F4F3983288336
:10243000108306C0E885F985812F0995892B29F736
:102440002E813F812F5F3F4F3F832E83812F902F1F
:10245000DF91CF911F910F910895FA01AA2728309B
:1024600051F1203181F1E8946F936E7F6E5F7F4F61
:102470008F4F9F4FAF4FB1E03ED0B4E03CD0670FDD
:10248000781F891F9A1FA11D680F791F8A1F911D30
:10249000A11D6A0F711D811D911DA11D20D009F480
:1024A00068943F912AE0269F11243019305D3193C2
:1024B000DEF6CF010895462F4770405D4193B3E0AB
:1024C0000FD0C9F7F6CF462F4F70405D4A3318F052
:1024D000495D31FD4052419302D0A9F7EACFB4E003
:1024E000A6959795879577956795BA95C9F70097BB
:1024F0006105710508959B01AC010A2E069457955C
:10250000479537952795BA95C9F7620F731F841FB2
:10251000951FA01D08952F923F924F925F926F9248
:102520007F928F929F92AF92BF92CF92DF92EF9263
:10253000FF920F931F93CF93DF93CDB7DEB7CA1BE4
:10254000DB0B0FB6F894DEBF0FBECDBF09942A880F
:10255000398848885F846E847D848C849B84AA84B7
:10256000B984C884DF80EE80FD800C811B81AA8144
:10257000B981CE0FD11D0FB6F894DEBF0FBECDBF0F
:08258000ED010895F894FFCF6E
:10258800000008032000C101C101C101C101C1014E
:10259800040100040018001200104D435032353178
:1025A80035206973204E4F5420696E20636F6E6624
:1025B8006967206D6F646520616674657220726555
:1025C80073657421004D43503235313520697320CD
:1025D8004E4F5420696E206E6F726D616C206D6F66
:1025E800646521006861722073656E647420737479
:1025F8006174652025640A006D6F74746172206DC2
:10260800656C64696E6720667261206E6F64652010
:102618003220006C6966653A2025640A00557064AA
:1026280061746572206869676873636F72653A20C0
:102638000A200020256300202564002E002D2D2D62
:1026480000303030004F7574206F66206D656D0066
:102658004A414A2050494E47504F4E4700506C61FE
:10266800792067616D65004869676873636F726593
:102678000045617379004D656469756D0048617244
:10268800640056696577005265736574005945534F
:10269800004E4F002A004E455720484947485343AB
:1026A8004F5245005E004141410076004E414D4584
:1026B800533A2025730A002D2D2D2D2D2D2D2D2D2E
:1026C8002D2D2D2D2D2D2D2D2D2D2D2D2D2D2D2D32
:1026D8002D2D2D2D2D2D2D2D2D200050494E4750BF
:1026E8004F4E472047414D45004C495645530059E8
:1026F8004F55204C4F534500506C617920616761FC
:10270800696E3F00C101C101C101C101C10101439D
:1027180000005A5A5A5A5A014F00FFFF030000009E
:10272800014D000001FFFFFFFF014400010300000D
:08273800000001430001000054
:00000001FF
