:100000000C94BB010C94F7020C94D8010C940802D8
:100010000C94D8010C94D8010C94D8010C94D801FC
:100020000C94D8010C9452040C94D8010C94D8016F
:100030000C94D8010C94D8010C94D8010C9435047C
:100040000C94D8010C94D8010C94D8010C94D801CC
:100050000C94D8010C94D8010C94D8010C94D801BC
:100060000C94D8010C94D8010C94D8010C94D801AC
:10007000DC0BDF0BE30BE70BF40BEF0B070C0000C3
:1000800000000000000000065F5F0600000000079F
:10009000070007070000147F7F147F7F1400242EC1
:1000A0006B6B3A120000466630180C666200307ABC
:1000B0004F5D377A48000407030000000000001C71
:1000C0003E63410000000041633E1C000000082A1E
:1000D0003E1C1C3E2A0808083E3E0808000000A0FE
:1000E000E0600000000008080808080800000000A0
:1000F0006060000000006030180C060301003E7FC5
:10010000594D7F3E000042427F7F404000006273B5
:1001100059496F660000226349497F360000181C68
:1001200016137F7F1000276745457D3900003C7E10
:100130004B4979300000036371190F070000367FC7
:1001400049497F360000064F49693F1E0000000004
:100150006C6C0000000000A0EC6C00000000081CAB
:1001600036634100000014141414141400000041FC
:1001700063361C080000020351590F0600003E7F41
:10018000415D5D1F1E007C7E13137E7C0000417F5D
:100190007F49497F36001C3E634141632200417F15
:1001A0007F41637F1C00417F7F495D416300417F48
:1001B0007F491D0103001C3E6341517372007F7F24
:1001C00008087F7F000000417F7F41000000307001
:1001D00040417F3F0100417F7F081C776300417FE2
:1001E0007F41406070007F7F060C067F7F007F7F2D
:1001F000060C187F7F001C3E6341633E1C00417F5C
:100200007F49090F06001E3F21717F5E0000417F7C
:100210007F19396F460026674D597B320000034134
:100220007F7F410300007F7F40407F7F00001F3FB2
:1002300060603F1F00007F7F3018307F7F00637752
:100240001C081C776300074F78784F07000067731E
:10025000594D47637100007F7F4141000000010359
:10026000060C183060000041417F7F000000080C40
:100270000603060C0800808080808080808000005B
:10028000030704000000207454543C784000413FB0
:100290007F44447C3800387C44446C28000030782B
:1002A00048493F7F4000387C54545C180000487E29
:1002B0007F490302000098BCA4A4F87C0400417F9D
:1002C0007F08047C780000447D7D4000000040C42D
:1002D00084FD7D000000417F7F10386C44000041A8
:1002E0007F7F400000007C7C0C180C7C78007C7CBC
:1002F00004047C780000387C44447C38000084FC92
:10030000F8A4243C1800183C24A4F8FC8400447C85
:1003100078441C180000485C545474240000000405
:100320003E7F442400003C7C40403C7C40001C3C20
:1003300060603C1C00003C7C6030607C3C00446C95
:100340003810386C44009CBCA0A0FC7C00004C64BD
:10035000745C4C64000008083E77414100000000D6
:100360000077770000004141773E08080000020353
:1003700001030203010011241FBECFEFD4E0DEBF52
:10038000CDBF12E0A0E0B1E0E6EBF1E202C00590E3
:100390000D92A03BB107D9F722E0A0EBB2E001C07B
:1003A0001D92A03DB207E1F70E94B30B0C94D91047
:1003B0000C94000086B7816086BF8BB780628BBFCC
:1003C000309885B7806885BF80B7806280BF3098DD
:1003D000B898B998BA9880E090E00895E9E9F9E012
:1003E0003197F1F700C08460809300148091BE02C1
:1003F0009091BF02892BD1F389E999E00197F1F738
:1004000000C01092BF021092BE02809100140895A5
:100410001F920F920FB60F9211248F939F9381E03A
:1004200090E09093BF028093BE029F918F910F90B6
:100430000FBE0F901F901895CF93DF931F92CDB7EB
:10044000DEB70E94BD058CEC94E00197F1F700C087
:1004500000008EE00E94C20589838981807E8038F9
:1004600039F084E291E00E94CA0D81E090E01FC063
:1004700041E061E08BE20E94FB054FEF60E680E621
:100480000E94FB0540E060EE8FE00E94FB058EE0DD
:100490000E94C20589838981807E39F08FE491E0D2
:1004A0000E94CA0D81E090E002C080E090E00F90D1
:1004B000DF91CF91089580E30E94C20586958695CD
:1004C000869591E08927817090E00895EF92FF92E0
:1004D0000F931F93CF93DF937C010E945B02892BC4
:1004E000D9F1F701608166956695669581E30E9472
:1004F000D505F70160816295660F607E82E30E94F8
:10050000D505F70162816F7085E30E94D505F7017B
:10051000828193818930910554F088E090E0938343
:10052000828387010C5F1F4FC0E0D0E004C0181623
:100530001906BCF30EC0F80161918F018C2F8A5C03
:100540000E94D5052196F70122813381C217D30776
:1005500094F381E00E94E905DF91CF911F910F9103
:10056000FF90EF90089540E061E08CE20E94FB056F
:1005700040E064E08CE20E94FB0581E08093B002E1
:1005800008950F931F93CF93DF93CDB7DEB72C97CA
:100590000FB6F894DEBF0FBECDBF85E090E00E949D
:1005A0002F06082F87E090E00E943306182F81E085
:1005B00090E00E943706FE0131969CE0DF011D921B
:1005C0009A95E9F723E030E03C832B830D831E836B
:1005D0008F83CF010E9466022C960FB6F894DEBF7F
:1005E0000FBECDBFDF91CF911F910F9108951F9244
:1005F0000F920FB60F9211242F933F934F935F9357
:100600006F937F938F939F93AF93BF93EF93FF93DA
:100610000E94B302FF91EF91BF91AF919F918F9193
:100620007F916F915F914F913F912F910F900FBEEE
:100630000F901F9018952F923F924F925F926F925A
:100640007F928F929F92AF92BF92CF92DF92EF9262
:10065000FF920F931F93CF93DF93CDB7DEB76897C9
:100660000FB6F894DEBF0FBECDBF382E8E010F5FE0
:100670001F4F8CE0F80111928A95E9F784E090E031
:100680009C838B8338861F923F928EE691E09F93E6
:100690008F930E94B60DC8010E94660283E090E02D
:1006A0009093C1028093C0021092B6021092B502DC
:1006B0001092B4021092B3020E946E090F900F9034
:1006C0000F900F90E12CF12C0DE710E00F2EFDE9BB
:1006D000AF2EF1E0BF2EF02D212C552453944E0166
:1006E000FDE08F0E911C6894662462F8712C422CF8
:1006F0008091BB029091BC02892B71F06091B50290
:100700007091B6028091C0029091C1020E94070BC5
:100710001092BC021092BB028091B1029091B20281
:10072000892B71F0F80180818B7F80830E94C10248
:100730001092B2021092B102F8018081846080832D
:100740008091B002882309F46CC082E891E00E9495
:10075000CA0D6091B5027091B6028091C00290916D
:10076000C1020E94070B8091C0029091C1020197C3
:100770009093C1028093C0022091B5023091B602DD
:100780004091B3025091B4024217530724F43093BE
:10079000B4022093B3029F938F93BF92AF920E94B3
:1007A000B60D0F900F900F900F908091C002909116
:1007B000C102892B19F40E943D0B3BC00E944A0BD9
:1007C00081E090E00E9437066C0182E090E00E9498
:1007D0003706252D892B09F0242D222331F0852D74
:1007E000CD2809F0842D8111EBCF82E090E00E94AA
:1007F0003706892BF1F4F4018CE011928A95E9F720
:10080000788A6F863C8AC4010E9466021092B60202
:100810001092B5022092B002E114F10409F468CFFD
:1008200004C0E114F10409F463CF86E08093BD02B3
:1008300003C01092B002F9CF68960FB6F894DEBFED
:100840000FBECDBFDF91CF911F910F91FF90EF9021
:10085000DF90CF90BF90AF909F908F907F906F90E0
:100860005F904F903F902F9008951F920F920FB678
:100870000F9211248F939F9381E090E09093BC029C
:100880008093BB028091B5029091B602019690933D
:10089000B6028093B5029F918F910F900FBE0F907B
:1008A0001F9018951F920F920FB60F9211248F93DD
:1008B0009F9381E090E09093B2028093B1029F9168
:1008C0008F910F900FBE0F901F901895E199FECF5A
:1008D0007FBB6EBB8DBBE29AE19A0895CF92DF9207
:1008E000EF92FF920F931F93CF93DF930F2EF0E1C0
:1008F000EF2EF1E0FF2EF02D00E010E0C12CD12C06
:1009000017C0B8016C0F7D1FD701ED91FC91EC0F62
:10091000FD1F80810E9466042196C330D10589F7AE
:100920000D5F1F4FB2E0EB0EF11C0F30110519F0F7
:10093000CC2DDD2DE6CF06E011E0CFE0D0E0D801F0
:100940008C910E5F1F4FBE010E9466042196C43138
:10095000D105A9F7DF91CF911F910F91FF90EF90F3
:10096000DF90CF900895CF93DF9384309105ACF45E
:10097000AEE0B1E0E8E1F1E024E030E021503109FF
:10098000DE91CE911396DC93CE931297D291C291C1
:10099000D383C2832817390789F7880F991FFC0171
:1009A000EA5FFE4F71836083FC01E05FFE4F51837D
:1009B00040830E946E04DF91CF910895E199FECFAC
:1009C0009FBB8EBBE09A8DB30895AF92BF92CF923A
:1009D000DF92EF92FF920F931F93CF93DF930F2E2F
:1009E000F0E1CF2EF1E0DF2EF02D00E010E0A12CA1
:1009F000B12C18C0F601E080F180EC0EFD1ECE0196
:100A0000800F911F0E94DE04F70180832196C3307E
:100A1000D10581F7F2E0CF0ED11C0D5F1F4F0F30D3
:100A2000110519F0CA2DDB2DE5CF06E011E0CFE06E
:100A3000D0E0CE010E94DE0490E0F8018193919312
:100A40008F012196C431D105A1F7DF91CF911F917C
:100A50000F91FF90EF90DF90CF90BF90AF900895EF
:100A6000CF92DF92EF92FF920F931F93CF93DF937A
:100A70000E942E0943E050E060E070E08BE392E0DA
:100A80000E94AA090E94E5040F2EF0E1CF2EF1E0AA
:100A9000DF2EF02D0F2EF6E0EF2EF1E0FF2EF02DE1
:100AA000C0E0D0E08E010E5F1F4F43E050E0B80180
:100AB000F601819191916F010E94AA092196CE01C0
:100AC0000E94670B40E050E0B8010E94AA0941E093
:100AD00050E0B80187EA91E00E94AA09F7018191EC
:100AE00091917F010E94670B4AE050E0B8010E949B
:100AF000AA09C530D105B1F60E940C0ADF91CF9149
:100B00001F910F91FF90EF90DF90CF900895EF929B
:100B1000FF920F931F93CF93DF9300E010E0E12C3F
:100B2000F12C0FC0B8016C0F7D1F8DE20E9466048E
:100B30002196C330D105B1F70D5F1F4F0F3011055E
:100B400019F0CE2DDF2DEECFCFE0D0E0BE0180E05A
:100B50000E9466042196C431D105C1F7DF91CF917F
:100B60001F910F91FF90EF9008950E94740B80ECFD
:100B70000E946F0B0E94760B08950E94780B0E94D2
:100B8000B5050895CF93C82F0E94740B83E00E948F
:100B90006F0B8C2F0E946F0B80E00E946F0BC82F91
:100BA0000E94760B8C2FCF910895CF93DF93D82F8F
:100BB000C62F0E94740B82E00E946F0B8D2F0E9443
:100BC0006F0B8C2F0E946F0B0E94760BDF91CF91E1
:100BD0000895CF93C82F0E94740BC83028F48C2F2F
:100BE00080680E946F0B03C080E80E946F0B0E9418
:100BF000760BCF9108951F93CF93DF93182FD62FA5
:100C0000C42F0E94740B85E00E946F0B812F0E94FD
:100C10006F0B8D2F0E946F0B8C2F0E946F0B0E9409
:100C2000760BDF91CF911F9108955D9BFECF8CB91C
:100C300080E090E008955F9BFECF8CB1089589B964
:100C400088E18AB96BE176E085E196E00E946B0D60
:100C50009093C3028093C20280E090E008950E94C6
:100C6000EE0190E008950E94EE0190E00895813039
:100C7000910521F446B3427050E009C0029729F46F
:100C800086B3482F417050E002C04FEF5FEFCA01BA
:100C90000895CF9385E00E94EE01C82F84E00E9462
:100CA000EE01282F30E0273931056CF42E3631055E
:100CB00064F08C2F90E0873991054CF48E369105C5
:100CC00044F483E007C080E005C081E003C082E017
:100CD00001C084E0CF91089586B3847090E00895B8
:100CE000EF92FF920F931F93CF93DF938C017B01C1
:100CF0000E942E09F801C681D78140E050E060E0F3
:100D000070E0808191810E94AA09209781F001E022
:100D100010E042E050E0B801888199810E94AA0960
:100D20000A80DB81C02D0F5F1F4F209791F740E0B5
:100D300050E0B7018AE20E94EE09DF91CF911F9146
:100D40000F91FF90EF900895CF93DF93EC018CE02B
:100D500090E00E941F0CFC01009741F48DEB91E0A4
:100D60000E94CA0D81E090E00E94D910D183C08317
:100D700013821282158214821186108617821682BF
:100D800013861286DF91CF910895DC011696ED91BE
:100D9000FC911797309729F417967C936E931697CA
:100DA0000EC0228133812115310511F0F901F9CFEF
:100DB00073836283DB011596FC93EE931497FC0119
:100DC000228533852F5F3F4F33872287DB011996BA
:100DD0009C938E93189708952F923F924F925F9213
:100DE0006F927F928F929F92AF92BF92CF92DF923B
:100DF000EF92FF920F931F93CF93DF9300D000D019
:100E0000CDB7DEB788EC91E00E94A4066C01909308
:100E1000C5028093C40285ED91E00E94A4069C83E4
:100E20008B838FED91E00E94A4067C0189EE91E016
:100E30000E94A4065C018EEE91E00E94A4064C0183
:100E400085EF91E00E94A4063C018AEF91E00E94A8
:100E5000A4062C0189E092E00E94A4068C0189E19D
:100E600092E00E94A4061C018DE192E00E94A4067B
:100E70009A8389836B817C81C6010E94C506B70174
:100E8000C6010E94C506B5018B819C810E94C506E2
:100E9000B4018B819C810E94C506B3018B819C812A
:100EA0000E94C506B201C7010E94C506B801C7016C
:100EB0000E94C506B101C8010E94C50669817A81F8
:100EC000C8010E94C5060E946E0960911B017091C5
:100ED0001C018091C4029091C5020E9470060E947C
:100EE0000C0AE091C402F091C5028681978190932B
:100EF000B8028093B7020F900F900F900F90DF9180
:100F0000CF911F910F91FF90EF90DF90CF90BF9006
:100F1000AF909F908F907F906F905F904F903F9099
:100F20002F900895CF930E944906C82F80911A01EF
:100F3000C81709F4D4C0C13061F138F0C23009F4E7
:100F400051C0C33009F492C0CAC020911B01309136
:100F50001C012230310584F0E091B702F091B80213
:100F6000848195819093B8028093B7022150310912
:100F700030931C0120931B0160911B0170911C0197
:100F80008091C4029091C5020E9470060E940C0AD2
:100F9000A6C0E091C402F091C50220911B013091DE
:100FA0001C01828593852817390794F4A091B70214
:100FB000B091B80212968D919C9113979093B802BC
:100FC0008093B7022F5F3F4F30931C0120931B018A
:100FD00060911B0170911C01CF010E9470060E945C
:100FE0000C0A7DC0E091B702F091B802868197812A
:100FF000892B09F474C040911B0150911C01A091F0
:10100000C402B091C5021696ED91FC91179742303B
:10101000510554F021E030E00280F381E02D2F5F94
:101020003F4F24173507C1F7309719F08E2F9F2FA8
:1010300002C08A2F9B2F8093C4029093C50221E0A7
:1010400030E030931C0120931B0161E070E00E94AE
:1010500070060E940C0AE091B702F091B8028681F6
:1010600097819093B8028093B70239C0E091B7029C
:10107000F091B8020084F185E02D20853185232B85
:1010800071F1E091C402F091C502208531852115EE
:10109000310519F0822F932F02C08E2F9F2F80933E
:1010A000C4029093C50221E030E030931C012093EC
:1010B0001B0161E070E00E9470060E940C0AE09142
:1010C000B702F091B8020084F185E02D0084F1852B
:1010D000E02D868197819093B8028093B702C093E8
:1010E0001A010E946C06892B99F5E091B702F091E4
:1010F000B8028081918121E0893E920721F481E04C
:101100008093BD0225C021E08E3E920721F482E04B
:101110008093BD021DC021E0853F920721F483E04A
:101120008093BD0215C021E08A3F920721F484E03C
:101130008093BD020DC022E08931920721F485E041
:101140008093BD0205C08D51924011F41092BD02F2
:10115000CF910895E0912201F09123018EEA8083DE
:10116000E0912201F091230181EA8083E091220144
:10117000F09123018AED8083E0912201F091230117
:1011800082E18083E0912201F091230188EC808349
:10119000E0912201F091230188EA8083E09122010D
:1011A000F09123018FE38083E0912201F0912301EC
:1011B00085ED8083E0912201F091230180E8808316
:1011C000E0912201F091230181E88083E0912201E6
:1011D000F091230180E58083E0912201F0912301C9
:1011E00089ED8083E0912201F091230181E28083E7
:1011F000E0912201F091230180E28083E0912201BD
:10120000F091230182E08083E0912201F09123019B
:101210008BED8083E0912201F091230180E38083B4
:10122000E0912201F09123018DEA8083E091220177
:10123000F09123011082E0912201F091230184EAD0
:101240008083E0912201F091230186EA8083E0917E
:101250002201F09123018FEA8083089580E090E0DD
:1012600020E2E0911E01F0911F01E80FF91F208399
:101270000196811534E09307A1F70895E0912201CA
:10128000F0912301982F906B90838093BA02089578
:10129000E0912201F0912301282F2F702083E0910B
:1012A0002201F09123019C01207F3327359527955A
:1012B0003595279535952795359527952061208378
:1012C0008093B9020895CF93DF93EB010E943E090A
:1012D000CE010E944809DF91CF9108950F931F938B
:1012E000CF93DF93C0E0D0E000E810E060E070E072
:1012F000CE010E946309202F312FE0912001F0914F
:10130000210110822150310921153105B1F72196B3
:10131000C830D10559F7DF91CF911F910F910895F2
:1013200060E070E080E090E00E946309089528E0AA
:10133000829FC0011124FC01E258F04080E0A0919E
:101340002001B091210194919C938F5F3196883058
:10135000B1F708950F931F93CF93DF93DC019A01A8
:10136000C0E0142FD52F29C0FA01EC0FF11D7097A2
:1013700071F46F5F7F4F67707078772334F461503A
:101380007109686F7F6F6F5F7F4F212F3D2FFD01C8
:10139000E80FF91F0081FB01F695FE2FEE27F79568
:1013A000E795E20FF31F80911E0190911F01E80F56
:1013B000F91F00832F5F3F4FCF5F8C2F90E0FD011F
:1013C00001900020E9F73197EA1BFB0B8E179F076E
:1013D00058F2DF91CF911F910F9108957695762F56
:1013E000662777956795640F751FE0911E01F09150
:1013F0001F01E60FF71F808308959695982F882781
:1014000097958795680F791FE0911E01F0911F0154
:10141000E60FF71F808108950F931F93CF93DF93FB
:101420000E946E090E94900900E010E060E070E008
:10143000C8010E946309C0E0D0E0BE01C8010E945B
:10144000FD090E9497092196C031D105B1F70F5FC0
:101450001F4F0830110551F7DF91CF911F910F9168
:101460000895EF92FF920F931F93CF93DF93D82F9E
:10147000C92F9F938F9322E232E03F932F930E94D4
:10148000B60D0E942E0940E050E060E070E087E376
:1014900092E00E94AA0940E050E063E070E085E439
:1014A00092E00E94AA0940E050E064E070E085EB21
:1014B00091E00E94AA0940E050E065E070E087E416
:1014C00092E00E94AA094AE050E064E070E08D2FAB
:1014D0009C2F0E94AA090E940C0A0F900F900F9057
:1014E0000F9011E4C0E0D0E07EC00E944906082FB2
:1014F00080911D01801709F476C0013059F028F061
:10150000023069F00330A9F15EC0113409F45AC009
:10151000115059C01A3511F01F5F55C011E4C23087
:10152000D1050CF050C0FE01EA54FE4F10817E013F
:101530008FEFE81AF80AA70163E070E085E492E013
:101540000E94AA09A70165E070E087E492E00E948A
:10155000AA09AE0163E070E08BE991E00E94AA095C
:10156000AE0165E070E08BE991E00E94AA09E70115
:101570002AC01C161D063CF5FE01EC54FE4F1081DE
:101580007E0181E0E81AF108A70163E070E085E4DC
:1015900092E00E94AA09A70165E070E087E492E06A
:1015A0000E94AA09AE0163E070E08BE991E00E941D
:1015B000AA09AE0165E070E08BE991E00E94AA09FA
:1015C000E70101C01AE500931D01FE01EB54FE4F37
:1015D000108340E050E064E070E085EB91E00E9411
:1015E000AA090E940C0A81E090E00E943706892B2C
:1015F00009F47BCF89E492E00E94CA0D85EB91E06B
:10160000DF91CF911F910F91FF90EF900895CF93AD
:10161000C82FCB014AE066E372E00E94460D0E94AB
:101620002E0940E050E060E070E085E592E00E9425
:10163000AA0940E050E063E070E083E692E00E9497
:10164000AA0949E050E063E070E08FE392E00E9475
:10165000AA09C05DE0911E01F0911F01EE57FD4FF8
:10166000C0834AE050E065E070E086E392E00E94CB
:10167000AA090E940C0ACF9108950E942E0940E009
:1016800050E064E070E089E692E00E94AA090E94BE
:101690000C0A08950E942E0940E050E060E070E0DE
:1016A00082E792E00E94AA0940E050E064E070E026
:1016B00089E192E00E94AA0949E050E064E070E00C
:1016C0008DE192E00E94AA090E940C0A08954AE066
:1016D00066E372E00E94460D86E392E008958FB9BA
:1016E000779BFECF8FB10895C4980895C49A08954A
:1016F0006E9A6C9A709ABD9ABF9ABC9A0E94760BA9
:10170000089585B7806885BF80B7806280BF85B740
:101710008E7F85BF85B7826085BF8BB780648BBFA6
:101720008A988FB58D7F8FBD8FB58E7F8FBDEBE88B
:10173000F0E080818D7F808380818E7F80838EB575
:1017400082608EBD8EB581608EBDEAE8F0E080815A
:101750008260808389B7806889BFEDE7F0E080818F
:10176000846080830895F8948FE190E00E941F06C2
:101770000E94810B0E94AA080E94DA010E941C02AA
:1017800078940E94EC06CEE7D2E014E08091BD028E
:101790001F928F93DF93CF930E94B60D0F900F90FF
:1017A0000F900F90E091BD02F0E0E730F10570F787
:1017B000E85CFF4F0C94190C0E949207E7CF81E080
:1017C0000E941B03E3CF82E00E941B03DFCF83E074
:1017D0000E941B038AE892E00E94CA0DD7CF0E94A4
:1017E00087051093BD02D2CF0E944906833011F4C1
:1017F0001092BD028091BB029091BC02892B31F204
:101800000E9430051092BC021092BB02BFCF8AE941
:1018100092E00E94CA0D8CE090E00E94310AAC0177
:101820006CE070E080E090E00E94B3041093BD0291
:10183000ADCFEE0FFF1F0590F491E02D0994CF93EB
:10184000DF938230910510F482E090E0E091C802CD
:10185000F091C90220E030E0A0E0B0E0309739F12B
:101860004081518148175907B8F04817590771F45A
:1018700082819381109729F013969C938E931297EF
:101880002CC09093C9028093C80227C0211531054E
:1018900031F04217530718F0A901DB0101C0EF0135
:1018A0009A01BD01DF010280F381E02DD7CF211520
:1018B0003105F9F0281B390B2430310580F48A8179
:1018C0009B816115710521F0FB019383828304C024
:1018D0009093C9028093C802FE01329644C0FE0173
:1018E000E20FF31F819391932250310939832883AA
:1018F0003AC02091C6023091C702232B41F42091B7
:101900000201309103013093C7022093C602209157
:101910000001309101012115310541F42DB73EB789
:101920004091040150910501241B350BE091C60242
:10193000F091C702E217F307A0F42E1B3F0B281704
:10194000390778F0AC014E5F5F4F2417350748F038
:101950004E0F5F1F5093C7024093C602819391932D
:1019600002C0E0E0F0E0CF01DF91CF910895CF9386
:10197000DF93009709F487C0FC013297138212822B
:10198000C091C802D091C902209781F42081318191
:10199000280F391F8091C6029091C70282179307C2
:1019A00079F5F093C702E093C6026DC0DE0120E036
:1019B00030E0AE17BF0750F412964D915C9113972B
:1019C0009D014115510509F1DA01F3CFB383A283DB
:1019D00040815181840F951F8A179B0771F48D9167
:1019E0009C911197840F951F029691838083129684
:1019F0008D919C911397938382832115310529F44E
:101A0000F093C902E093C8023EC0D9011396FC933B
:101A1000EE9312974D915D91A40FB51FEA17FB0746
:101A200079F480819181840F951F0296D9011196D6
:101A30009C938E938281938113969C938E9312979D
:101A4000E0E0F0E08A819B81009719F0FE01EC0153
:101A5000F9CFCE01029628813981820F931F209100
:101A6000C6023091C7022817390769F4309729F464
:101A70001092C9021092C80202C013821282D0933F
:101A8000C702C093C602DF91CF910895BB274A30A9
:101A900031F4992322F4BDE2909581959F4F0C94E7
:101AA000520DBB27FB015527AA27880F991FAA1F94
:101AB000A41710F0A41B83955051B9F7A05DAA3369
:101AC00008F0A95DA193009779F7B111B193119234
:101AD000CB010C9402100F931F93CF93DF93EC0173
:101AE0008B01009731F46115710519F480E090E0E5
:101AF00038C06EE070E081E090E00E94C90FFC0108
:101B00000097A1F380E883830115110571F0138715
:101B1000028781E883838091CA029091CB02892B4E
:101B200021F4F093CB02E093CA022097C9F0D18749
:101B3000C0878381826083838091CC029091CD02A3
:101B4000892B71F4F093CD02E093CC028091CE0208
:101B50009091CF02892B21F4F093CF02E093CE0233
:101B6000CF01DF91CF911F910F910895A0E0B0E0D8
:101B7000ECEBFDE00C94B210FE0135966191719191
:101B8000AF018091CC029091CD020E94F70DE2E06E
:101B90000C94CE100F931F93CF93DF93E091CC0260
:101BA000F091CD02238121FF1BC0EC0100E010E089
:101BB00089916091CC027091CD02DB011896ED9174
:101BC000FC911997882331F00995892B89F30FEF40
:101BD0001FEFEECF8AE00995892B11F4C80102C0EE
:101BE0008FEF9FEFDF91CF911F910F910895ACE0A0
:101BF000B0E0EDEFFDE00C94A2107C016B018A01D6
:101C0000FC0117821682838181FFBDC1CE0101963E
:101C10004C01F7019381F60193FD859193FF81912A
:101C20006F01882309F4ABC1853239F493FD8591A6
:101C300093FF81916F01853229F4B70190E00E94F2
:101C40001210E7CF512C312C20E02032A0F48B323F
:101C500069F030F4803259F0833269F420612CC08D
:101C60008D3239F0803339F4216026C0226024603F
:101C700023C0286021C027FD27C030ED380F3A303F
:101C800078F426FF06C0FAE05F9E300D1124532E33
:101C900013C08AE0389E300D1124332E20620CC010
:101CA0008E3221F426FD6BC1206406C08C3611F4FF
:101CB000206802C0883641F4F60193FD859193FFB8
:101CC00081916F018111C1CF982F9F7D95549330E1
:101CD00028F40C5F1F4FFFE3F9830DC0833631F00A
:101CE000833771F0833509F05BC022C0F801808131
:101CF00089830E5F1F4F44244394512C540115C017
:101D00003801F2E06F0E711CF801A080B18026FF4F
:101D100003C0652D70E002C06FEF7FEFC5012C8717
:101D20000E94F70F2C0183012C852F77222E17C0DC
:101D30003801F2E06F0E711CF801A080B18026FF1F
:101D400003C0652D70E002C06FEF7FEFC5012C87E7
:101D50000E94E50F2C012C852068222E830123FC94
:101D60001BC0832D90E048165906B0F4B70180E2FD
:101D700090E00E9412103A94F4CFF50127FC85916F
:101D800027FE81915F01B70190E00E94121031108F
:101D90003A94F1E04F1A51084114510471F7E5C02B
:101DA000843611F0893639F5F80127FF07C06081C4
:101DB0007181828193810C5F1F4F08C060817181A6
:101DC000882777FD8095982F0E5F1F4F2F76B22EB4
:101DD00097FF09C090958095709561957F4F8F4FC3
:101DE0009F4F2068B22E2AE030E0A4010E944410E8
:101DF000A82EA81844C0853729F42F7EB22E2AE0D9
:101E000030E025C0F22FF97FBF2E8F36C1F018F4D5
:101E1000883579F0B4C0803719F0883721F0AFC029
:101E20002F2F2061B22EB4FE0DC08B2D8460B82EF2
:101E300009C024FF0AC09F2F9660B92E06C028E073
:101E400030E005C020E130E002C020E132E0F801DE
:101E5000B7FE07C060817181828193810C5F1F4F43
:101E600006C06081718180E090E00E5F1F4FA40189
:101E70000E944410A82EA818FB2DFF77BF2EB6FE97
:101E80000BC02B2D2E7FA51450F4B4FE0AC0B2FC5B
:101E900008C02B2D2E7E05C07A2C2B2D03C07A2C4A
:101EA00001C0752C24FF0DC0FE01EA0DF11D8081DB
:101EB000803311F4297E09C022FF06C07394739405
:101EC00004C0822F867809F0739423FD13C020FF8D
:101ED00006C05A2C731418F4530C5718732C73142F
:101EE00068F4B70180E290E02C870E94121073948E
:101EF0002C85F5CF731410F4371801C0312C24FF52
:101F000012C0B70180E390E02C870E9412102C854C
:101F100022FF17C021FF03C088E590E002C088E7D8
:101F200090E0B7010CC0822F867859F021FD02C0E5
:101F300080E201C08BE227FD8DE2B70190E00E94B4
:101F40001210A51438F4B70180E390E00E9412103B
:101F50005A94F7CFAA94F401EA0DF11D8081B701DC
:101F600090E00E941210A110F5CF332009F451CE59
:101F7000B70180E290E00E9412103A94F6CFF70188
:101F80008681978102C08FEF9FEF2C96E2E10C943F
:101F9000BE100F931F93CF93DF93869F8001879F7F
:101FA000100D969F100D1124C8010E941F0CEC010A
:101FB000009729F0A80160E070E00E94F00FCE01C8
:101FC000DF91CF911F910F910895FC010590615011
:101FD00070400110D8F7809590958E0F9F1F08953F
:101FE000DC0101C06D9341505040E0F70895FC01C1
:101FF0006150704001900110D8F7809590958E0F38
:102000009F1F0895DC01FC01672F71917723E1F791
:10201000329704C07C916D9370836291AE17BF07B5
:10202000C8F308950F931F93CF93DF93182F092FB1
:10203000EB018B8181FD03C08FEF9FEF20C082FFFA
:1020400010C04E815F812C813D81421753077CF483
:10205000E881F9819F012F5F3F4F398328831083E7
:1020600006C0E885F985812F0995892B29F72E81EE
:102070003F812F5F3F4F3F832E83812F902FDF9132
:10208000CF911F910F910895FA01AA27283051F19D
:10209000203181F1E8946F936E7F6E5F7F4F8F4F99
:1020A0009F4FAF4FB1E03ED0B4E03CD0670F781FF8
:1020B000891F9A1FA11D680F791F8A1F911DA11DDD
:1020C0006A0F711D811D911DA11D20D009F4689416
:1020D0003F912AE0269F11243019305D3193DEF6BE
:1020E000CF010895462F4770405D4193B3E00FD074
:1020F000C9F7F6CF462F4F70405D4A3318F0495D5F
:1021000031FD4052419302D0A9F7EACFB4E0A69541
:102110009795879577956795BA95C9F70097610563
:10212000710508959B01AC010A2E069457954795B9
:1021300037952795BA95C9F7620F731F841F951FAE
:10214000A01D08952F923F924F925F926F927F92BF
:102150008F929F92AF92BF92CF92DF92EF92FF92B7
:102160000F931F93CF93DF93CDB7DEB7CA1BDB0B63
:102170000FB6F894DEBF0FBECDBF09942A88398808
:1021800048885F846E847D848C849B84AA84B9840F
:10219000C884DF80EE80FD800C811B81AA81B9811B
:1021A000CE0FD11D0FB6F894DEBF0FBECDBFED012F
:0621B0000895F894FFCF32
:1021B6000000D00220000A00080007000600050003
:1021C600A901AD01B101B501B9010401000400186E
:1021D600001200104D435032353135206973204EC0
:1021E6004F5420696E20636F6E666967206D6F6459
:1021F6006520616674657220726573657421004D91
:10220600435032353135206973204E4F5420696E64
:10221600206E6F726D616C206D6F64652100686160
:10222600722073656E64742073746174652025640E
:102236000A006D6F74746172206D656C64696E67F7
:1022460020667261206E6F6465203220006C6966BC
:10225600653A2025640A002E00414E44004A4F4844
:10226600004A554C004141410042454E004F7574AD
:10227600206F66206D656D004A414A2050494E47E1
:10228600504F4E4700506C61792067616D6500487C
:1022960069676873636F72650045617379004D65A0
:1022A6006469756D004861726400566965772068D7
:1022B60069676873636F7265005265736574206839
:1022C60069676873636F726500594553004E4F0026
:1022D6002A0053636F726520747970654E616D656F
:1022E60020257320200A004E455720484947485369
:1022F600434F5245005E0076005574206176207784
:1023060068696C650050494E47504F4E472047411B
:102316004D45004C4956455300594F55204C4F5397
:102326004500506C617920616761696E3F005354C6
:10233600415445203D2025640A007370696C6C6524
:1023460074206572206F766572005354415445209F
:102356003D204E45574849474853434F5245000094
:00000001FF
