S011000070696E675F706F6E672E7372656352
S11300000C9438000C9455000C9455000C94F80092
S11300100C9455000C9455000C9455000C94550008
S11300200C9455000C9455000C9455000C945500F8
S11300300C9455000C9455000C9455000C945500E8
S11300400C9455000C9455000C9455000C945500D8
S11300500C9455000C9455000C9455000C945500C8
S11300600C9455000C9455000C9455000C945500B8
S113007011241FBECFEFD4E0DEBFCDBF11E0A0E05E
S1130080B1E0E0E4FFE002C005900D92A831B107B1
S1130090D9F721E0A8E1B1E001C01D92A532B20771
S11300A0E1F70E94D0000C949E070C940000846039
S11300B080930014809118018111FCCF8091001469
S11300C00895CF92DF92EF92FF920E945700682F1B
S11300D070E080E090E00E9409026B017C0120E066
S11300E030E044E053E40E946C018823E4F420E00F
S11300F030E044E053E4C701B6010E94700120E0FF
S113010030E048EC52E40E94BB029B01AC0160E089
S113011070E088EC92E40E9407010E94D801719576
S11301206195710916C020E030E044E053E4C70152
S1130130B6010E9407010E94D801CB016BE770E071
S11301400E941E03CB0124E6289FB001299F700D55
S11301501124CB01FF90EF90DF90CF9008955D9B29
S1130160FECF8CB980E090E008955F9BFECF8CB108
S1130170089589B988E18AB965EB70E08FEA90E067
S11301800E94460390931A018093190180E090E045
S1130190089585B7806885BF80B7806280BF089561
S11301A0F8948FE190E00E94B9000E94C90078940D
S11301B0C6E0D1E08091180181111092180185E008
S11301C090E00E946100182F092F84E090E00E94C3
S11301D061000F931F939F938F93DF93CF930E949C
S11301E091030F900F900F900F900F900F90E2CF0C
S11301F01F920F920FB60F9211248F9381E0809378
S113020018018F910F900FBE0F901F9018955058A2
S1130210BB27AA270ED075C166D130F06BD120F070
S113022031F49F3F11F41EF45BC10EF4E095E7FB3B
S113023051C1E92F77D180F3BA1762077307840796
S1130240950718F071F49EF58FC10EF4E0950B2E0E
S1130250BA2FA02D0B01B90190010C01CA01A00114
S11302601124FF27591B99F0593F50F4503E68F16F
S11302701A16F040A22F232F342F4427585FF3CFB0
S1130280469537952795A795F0405395C9F77EF481
S11302901F16BA0B620B730B840BBAF09150A1F0CA
S11302A0FF0FBB1F661F771F881FC2F70EC0BA0F50
S11302B0621F731F841F48F4879577956795B795D8
S11302C0F7959E3F08F0B3CF9395880F08F09927D0
S11302D0EE0F979587950895D9D008F481E0089595
S11302E00CD00FC107D140F0FED030F021F45F3FB5
S11302F019F0F0C0511139C1F3C014D198F3992306
S1130300C9F35523B1F3951B550BBB27AA276217D5
S11303107307840738F09F5F5F4F220F331F441F1A
S1130320AA1FA9F333D00E2E3AF0E0E830D0915052
S11303305040E695001CCAF729D0FE2F27D0660F3F
S1130340771F881FBB1F261737074807AB07B0E87E
S113035009F0BB0B802DBF01FF2793585F4F2AF094
S11303609E3F510568F0B6C000C15F3FECF3983E74
S1130370DCF3869577956795B795F7959F5FC9F7F1
S1130380880F911D9695879597F90895E1E0660F7A
S1130390771F881FBB1F621773078407BA0720F0F3
S11303A0621B730B840BBA0BEE1F88F7E09508955C
S11303B004D06894B111D9C00895BCD088F09F5777
S11303C090F0B92F9927B751A0F0D1F0660F771F9D
S11303D0881F991F1AF0BA95C9F712C0B13081F07D
S11303E0C3D0B1E00895C0C0672F782F8827B85FC5
S11303F039F0B93FCCF3869577956795B395D9F7DE
S11304003EF490958095709561957F4F8F4F9F4FE7
S11304100895E89409C097FB3EF4909580957095F3
S113042061957F4F8F4F9F4F9923A9F0F92F96E93C
S1130430BB279395F695879577956795B795F111B1
S1130440F8CFFAF4BB0F11F460FF1BC06F5F7F4F4E
S11304508F4F9F4F16C0882311F096E911C0772360
S113046021F09EE8872F762F05C0662371F096E869
S1130470862F70E060E02AF09A95660F771F881F38
S1130480DAF7880F9695879597F90895990F0008DC
S1130490550FAA0BE0E8FEEF16161706E807F90752
S11304A0C0F012161306E407F50798F0621B730BED
S11304B0840B950B39F40A2661F0232B242B252B6E
S11304C021F408950A2609F4A140A6958FEF811D11
S11304D0811D089597F99F6780E870E060E00895B2
S11304E09FEF80EC089500240A9416161706180648
S11304F00906089500240A94121613061406050624
S11305000895092E0394000C11F4882352F0BB0FB4
S113051040F4BF2B11F460FF04C06F5F7F4F8F4F17
S11305209F4F089557FD9058440F551F59F05F3F52
S113053071F04795880F97FB991F61F09F3F79F001
S113054087950895121613061406551FF2CF469583
S1130550F1DF08C0161617061806991FF1CF869505
S11305607105610508940895E894BB2766277727E9
S1130570CB0197F908950BD0C4CFB5DF28F0BADFCB
S113058018F0952309F0A6CFABCF1124EECFCADF24
S1130590A0F3959FD1F3950F50E0551F629FF00192
S11305A0729FBB27F00DB11D639FAA27F00DB11DEB
S11305B0AA1F649F6627B00DA11D661F829F222774
S11305C0B00DA11D621F739FB00DA11D621F839FFB
S11305D0A00D611D221F749F3327A00D611D231FD1
S11305E0849F600D211D822F762F6A2F11249F571F
S11305F050408AF0E1F088234AF0EE0FFF1FBB1F42
S1130600661F771F881F91505040A9F79E3F5105E0
S113061070F060CFAACF5F3FECF3983EDCF3869591
S113062077956795B795F795E7959F5FC1F7FE2B8B
S1130630880F911D9695879597F9089597FB072E36
S113064016F4009407D077FD09D00E94320307FC0A
S113065005D03EF4909581959F4F089570956195CE
S11306607F4F0895AA1BBB1B51E107C0AA1FBB1FE4
S1130670A617B70710F0A61BB70B881F991F5A952A
S1130680A9F780959095BC01CD0108950F931F9310
S1130690CF93DF93EC018B01009731F46115710561
S11306A019F480E090E038C06EE070E081E090E002
S11306B00E947705FC010097A1F380E8838301156C
S11306C0110571F01387028781E8838380911B01F0
S11306D090911C01892B21F4F0931C01E0931B01E0
S11306E02097C9F0D187C0878381826083838091FA
S11306F01D0190911E01892B71F4F0931E01E0936A
S11307001D0180911F0190912001892B21F4F09308
S11307102001E0931F01CF01DF91CF911F910F9131
S11307200895A0E0B0E0E7E9F3E00C947707FE0158
S1130730359661917191AF0180911D0190911E01D7
S11307400E94A503E2E00C949307ACE0B0E0EBEA6E
S1130750F3E00C9467077C016B018A01FC011782AA
S11307601682838181FFBDC1CE0101964C01F70140
S11307709381F60193FD859193FF81916F01882305
S113078009F4ABC1853239F493FD859193FF8191CE
S11307906F01853229F4B70190E00E94D706E7CFB4
S11307A0512C312C20E02032A0F48B3269F030F44B
S11307B0803259F0833269F420612CC08D3239F0D3
S11307C0803339F4216026C02260246023C028606D
S11307D021C027FD27C030ED380F3A3078F426FFCA
S11307E006C0FAE05F9E300D1124532E13C08AE038
S11307F0389E300D1124332E20620CC08E3221F429
S113080026FD6BC1206406C08C3611F4206802C03A
S1130810883641F4F60193FD859193FF81916F0130
S11308208111C1CF982F9F7D9554933028F40C5F8C
S11308301F4FFFE3F9830DC0833631F0833771F026
S1130840833509F05BC022C0F801808189830E5F83
S11308501F4F44244394512C540115C03801F2E035
S11308606F0E711CF801A080B18026FF03C0652DB6
S113087070E002C06FEF7FEFC5012C870E94CC06A9
S11308802C0183012C852F77222E17C03801F2E02A
S11308906F0E711CF801A080B18026FF03C0652D86
S11308A070E002C06FEF7FEFC5012C870E94BA068B
S11308B02C012C852068222E830123FC1BC0832D50
S11308C090E048165906B0F4B70180E290E00E9427
S11308D0D7063A94F4CFF50127FC859127FE819140
S11308E05F01B70190E00E94D70631103A94F1E01D
S11308F04F1A51084114510471F7E5C0843611F0C0
S1130900893639F5F80127FF07C06081718182813A
S113091093810C5F1F4F08C060817181882777FD28
S11309208095982F0E5F1F4F2F76B22E97FF09C028
S113093090958095709561957F4F8F4F9F4F20685C
S1130940B22E2AE030E0A4010E940907A82EA818BC
S113095044C0853729F42F7EB22E2AE030E025C02A
S1130960F22FF97FBF2E8F36C1F018F4883579F055
S1130970B4C0803719F0883721F0AFC02F2F206121
S1130980B22EB4FE0DC08B2D8460B82E09C024FF96
S11309900AC09F2F9660B92E06C028E030E005C03B
S11309A020E130E002C020E132E0F801B7FE07C0E8
S11309B060817181828193810C5F1F4F06C06081C9
S11309C0718180E090E00E5F1F4FA4010E9409072F
S11309D0A82EA818FB2DFF77BF2EB6FE0BC02B2D1B
S11309E02E7FA51450F4B4FE0AC0B2FC08C02B2D0F
S11309F02E7E05C07A2C2B2D03C07A2C01C0752CB9
S1130A0024FF0DC0FE01EA0DF11D8081803311F435
S1130A10297E09C022FF06C07394739404C0822FF8
S1130A20867809F0739423FD13C020FF06C05A2C66
S1130A30731418F4530C5718732C731468F4B70117
S1130A4080E290E02C870E94D70673942C85F5CF22
S1130A50731410F4371801C0312C24FF12C0B701ED
S1130A6080E390E02C870E94D7062C8522FF17C0D4
S1130A7021FF03C088E590E002C088E790E0B70159
S1130A800CC0822F867859F021FD02C080E201C09B
S1130A908BE227FD8DE2B70190E00E94D706A514F2
S1130AA038F4B70180E390E00E94D7065A94F7CF58
S1130AB0AA94F401EA0DF11D8081B70190E00E942F
S1130AC0D706A110F5CF332009F451CEB70180E247
S1130AD090E00E94D7063A94F6CFF7018681978179
S1130AE002C08FEF9FEF2C96E2E10C9483070F93E3
S1130AF01F93CF93DF93869F8001879F100D969F4E
S1130B00100D1124C8010E949305EC01009729F0EF
S1130B10A80160E070E00E94C506CE01DF91CF918C
S1130B201F910F910895CF93DF938230910510F4B4
S1130B3082E090E0E0912301F091240120E030E094
S1130B40A0E0B0E0309739F140815181481759074E
S1130B50B8F04817590771F482819381109729F0EE
S1130B6013969C938E9312972CC090932401809398
S1130B70230127C02115310531F04217530718F01E
S1130B80A901DB0101C0EF019A01BD01DF0102806F
S1130B90F381E02DD7CF21153105F9F0281B390B4E
S1130BA02430310580F48A819B816115710521F01F
S1130BB0FB019383828304C09093240180932301D7
S1130BC0FE01329644C0FE01E20FF31F819391931C
S1130BD022503109398328833AC020912101309170
S1130BE02201232B41F4209102013091030130931F
S1130BF0220120932101209100013091010121154E
S1130C00310541F42DB73EB74091040150910501DF
S1130C10241B350BE0912101F0912201E217F30727
S1130C20A0F42E1B3F0B2817390778F0AC014E5F58
S1130C305F4F2417350748F04E0F5F1F5093220172
S1130C40409321018193919302C0E0E0F0E0CF0151
S1130C50DF91CF910895CF93DF93009709F487C074
S1130C60FC01329713821282C0912301D091240196
S1130C70209781F420813181280F391F809121012F
S1130C80909122018217930779F5F0932201E09362
S1130C9021016DC0DE0120E030E0AE17BF0750F443
S1130CA012964D915C9113979D014115510509F1DF
S1130CB0DA01F3CFB383A28340815181840F951F5E
S1130CC08A179B0771F48D919C911197840F951F3E
S1130CD002969183808312968D919C9113979383AE
S1130CE082832115310529F4F0932401E093230133
S1130CF03EC0D9011396FC93EE9312974D915D91EA
S1130D00A40FB51FEA17FB0779F480819181840F42
S1130D10951F0296D90111969C938E93828193819B
S1130D2013969C938E931297E0E0F0E08A819B8166
S1130D30009719F0FE01EC01F9CFCE01029628814B
S1130D403981820F931F20912101309122012817AC
S1130D50390769F4309729F4109224011092230181
S1130D6002C013821282D0932201C0932101DF9129
S1130D70CF910895FC010590615070400110D8F79F
S1130D80809590958E0F9F1F0895DC0101C06D938F
S1130D9041505040E0F70895FC01615070400190CB
S1130DA00110D8F7809590958E0F9F1F08950F938B
S1130DB01F93CF93DF93182F092FEB018B8181FDB4
S1130DC003C08FEF9FEF20C082FF10C04E815F8170
S1130DD02C813D81421753077CF4E881F9819F01FE
S1130DE02F5F3F4F39832883108306C0E885F98538
S1130DF0812F0995892B29F72E813F812F5F3F4F42
S1130E003F832E83812F902FDF91CF911F910F91DC
S1130E100895FA01AA27283051F1203181F1E8948C
S1130E206F936E7F6E5F7F4F8F4F9F4FAF4FB1E0D9
S1130E303ED0B4E03CD0670F781F891F9A1FA11DD4
S1130E40680F791F8A1F911DA11D6A0F711D811DD5
S1130E50911DA11D20D009F468943F912AE0269F9A
S1130E6011243019305D3193DEF6CF010895462FF9
S1130E704770405D4193B3E00FD0C9F7F6CF462FDA
S1130E804F70405D4A3318F0495D31FD4052419343
S1130E9002D0A9F7EACFB4E0A69597958795779500
S1130EA06795BA95C9F700976105710508959B0187
S1130EB0AC010A2E06945795479537952795BA9510
S1130EC0C9F7620F731F841F951FA01D08952F92E9
S1130ED03F924F925F926F927F928F929F92AF92C6
S1130EE0BF92CF92DF92EF92FF920F931F93CF9313
S1130EF0DF93CDB7DEB7CA1BDB0B0FB6F894DEBFAA
S1130F000FBECDBF09942A88398848885F846E84CF
S1130F107D848C849B84AA84B984C884DF80EE8019
S1130F20FD800C811B81AA81B981CE0FD11D0FB622
S1130F30F894DEBF0FBECDBFED010895F894FFCF46
S1130F400000250120000A58203D2025642C20594A
S10B0F50203D202564200A0065
S9030000FC
