:100000000C9438000C948A010C9455000C947B00DD
:100010000C9455000C9455000C9455000C9455000C
:100020000C9455000C9455000C9455000C945500FC
:100030000C9455000C9455000C9455000C945500EC
:100040000C9455000C9455000C9455000C945500DC
:100050000C9455000C9455000C9455000C945500CC
:100060000C9455000C9455000C9455000C945500BC
:1000700011241FBECFEFD4E0DEBFCDBF11E0A0E062
:10008000B1E0E4E6F9E002C005900D92A235B107B7
:10009000D9F721E0A2E5B1E001C01D92A236B20776
:1000A000E1F70E94D7020C94B0040C94000086B7CC
:1000B000816086BF8BB780628BBF309885B78068C0
:1000C00085BF80B7806280BF3098B898B998BA98D9
:1000D00080E090E00895E3EFF1E03197F1F700C0A0
:1000E0000000846080930014809155018823E1F31F
:1000F0008091001408951F920F920FB60F92112451
:100100008F9381E0809355018F910F900FBE0F90D8
:100110001F901895CF93DF931F92CDB7DEB70E9443
:10012000B60189EF90E00197F1F700C000008EE082
:100130000E94BB0189838981807E803839F088E004
:1001400091E00E94600481E090E01FC041E061E026
:100150008BE20E94F4014FEF60E680E60E94F4011A
:1001600040E060EE8FE00E94F4018EE00E94BB014F
:1001700089838981807E39F083E391E00E94600465
:1001800081E090E002C080E090E00F90DF91CF919D
:10019000089580E30E94BB0186958695869591E03F
:1001A0008927817090E00895EF92FF920F931F933B
:1001B000CF93DF937C010E94C900892BD9F1F7010D
:1001C000608166956695669581E30E94CE01F70190
:1001D00060816295660F607E82E30E94CE01F70126
:1001E00062816F7085E30E94CE01F7018281938165
:1001F0008930910554F088E090E0938382838701F1
:100200000C5F1F4FC0E0D0E004C018161906BCF305
:100210000EC0F80161918F018C2F8A5C0E94CE0183
:100220002196F70122813381C217D30794F381E02D
:100230000E94E201DF91CF911F910F91FF90EF900B
:10024000089540E061E08CE20E94F40140E064E047
:100250008CE20E94F40181E0809354010895EF92B2
:10026000FF920F931F93CF93DF93CDB7DEB72C97F9
:100270000FB6F894DEBF0FBECDBF84E090E00E94C1
:1002800028028C0185E090E00E94280286E090E040
:100290000E942C027C0187E090E00E942C02C801A1
:1002A000992720915301821B91099C0122F4222756
:1002B0003327281B390B2B3031057CF480915201F8
:1002C00097013327281B3109C901992324F4882772
:1002D0009927821B930B0B9784F083E090E09C831B
:1002E0008B830D83EE821A821982CE0101960E94C1
:1002F000D40000935301E09252012C960FB6F8946B
:10030000DEBF0FBECDBFDF91CF911F910F91FF9048
:10031000EF9008951F920F920FB60F9211242F9312
:100320003F934F935F936F937F938F939F93AF937D
:10033000BF93EF93FF930E942101FF91EF91BF9133
:10034000AF919F918F917F916F915F914F913F916D
:100350002F910F900FBE0F901F9018950E94B90219
:1003600080EC0E94B4020E94BB0208950E94BD026C
:100370000E94AE010895CF93C82F0E94B90283E076
:100380000E94B4028C2F0E94B40280E00E94B4024A
:10039000C82F0E94BB028C2FCF910895CF93DF937B
:1003A000D82FC62F0E94B90282E00E94B4028D2F7E
:1003B0000E94B4028C2F0E94B4020E94BB02DF9103
:1003C000CF910895CF93C82F0E94B902C83028F466
:1003D0008C2F80680E94B40203C080E80E94B4029F
:1003E0000E94BB02CF9108951F93CF93DF93182FE4
:1003F000D62FC42F0E94B90285E00E94B402812F3B
:100400000E94B4028D2F0E94B4028C2F0E94B4026D
:100410000E94BB02DF91CF911F9108955D9BFECF9B
:100420008CB980E090E008955F9BFECF8CB1089579
:1004300089B988E18AB964E172E08EE092E00E94B5
:100440001504909357018093560180E090E0089541
:100450000E946B0090E008950E946B0090E0089568
:10046000E0910601F09107018EEA8083E091060198
:10047000F091070181EA8083E0910601F091070184
:100480008AED8083E0910601F091070182E180838B
:10049000E0910601F091070188EC8083E09106016C
:1004A000F091070188EA8083E0910601F09107014D
:1004B0008FE38083E0910601F091070185ED808351
:1004C000E0910601F091070180E88083E091060148
:1004D000F091070181E88083E0910601F091070126
:1004E00080E58083E0910601F091070189ED80832A
:1004F000E0910601F091070181E28083E09106011D
:10050000F091070180E28083E0910601F0910701FC
:1005100082E08083E0910601F09107018BED8083FA
:10052000E0910601F091070180E38083E0910601EC
:10053000F09107018DEA8083E0910601F0910701B7
:100540001082E0910601F091070184EA8083E09136
:100550000601F091070186EA8083E0910601F0919F
:1005600007018FEA808308958FB9779BFECF8FB103
:100570000895C4980895C49A08956E9A6C9A709AD2
:10058000BD9ABF9ABC9A0E94BB02089585B7806845
:1005900085BF80B7806280BF85B78E7F85BF85B7F6
:1005A000826085BF8BB780648BBF8A980895F8946A
:1005B0008FE190E00E9418020E94C6020E94300261
:1005C0000E9457000E948A0078940E942F01809117
:1005D00055018823D1F310925501F7CFCF93DF93C4
:1005E0008230910510F482E090E0E0915A01F091A0
:1005F0005B0120E030E0A0E0B0E0309739F14081CD
:10060000518148175907B8F04817590771F482818A
:100610009381109729F013969C938E9312972CC078
:1006200090935B0180935A0127C02115310531F069
:100630004217530718F0A901DB0101C0EF019A012D
:10064000BD01DF010280F381E02DD7CF21153105F7
:10065000F9F0281B390B2430310580F48A819B8105
:100660006115710521F0FB019383828304C090938F
:100670005B0180935A01FE01329644C0FE01E20FF5
:10068000F31F8193919322503109398328833AC013
:100690002091580130915901232B41F420910201FE
:1006A00030910301309359012093580120910001AA
:1006B000309101012115310541F42DB73EB740912C
:1006C000040150910501241B350BE0915801F09174
:1006D0005901E217F307A0F42E1B3F0B2817390727
:1006E00078F0AC014E5F5F4F2417350748F04E0F8E
:1006F0005F1F50935901409358018193919302C019
:10070000E0E0F0E0CF01DF91CF910895CF93DF9348
:10071000009709F487C0FC01329713821282C091BE
:100720005A01D0915B01209781F420813181280FFB
:10073000391F80915801909159018217930779F5DB
:10074000F0935901E09358016DC0DE0120E030E0E4
:10075000AE17BF0750F412964D915C9113979D010F
:100760004115510509F1DA01F3CFB383A28340812A
:100770005181840F951F8A179B0771F48D919C916D
:100780001197840F951F02969183808312968D9105
:100790009C911397938382832115310529F4F0935B
:1007A0005B01E0935A013EC0D9011396FC93EE938E
:1007B00012974D915D91A40FB51FEA17FB0779F4CD
:1007C00080819181840F951F0296D90111969C9387
:1007D0008E938281938113969C938E931297E0E07F
:1007E000F0E08A819B81009719F0FE01EC01F9CFBE
:1007F000CE01029628813981820F931F20915801E2
:10080000309159012817390769F4309729F410926B
:100810005B0110925A0102C013821282D0935901D7
:10082000C0935801DF91CF9108950F931F93CF93F9
:10083000DF93EC018B01009731F46115710519F418
:1008400080E090E038C06EE070E081E090E00E94CF
:100850008D04FC010097A1F380E883830115110545
:1008600071F01387028781E8838380915C01909106
:100870005D01892B21F4F0935D01E0935C012097E9
:10088000C9F0D187C08783818260838380915E01B4
:1008900090915F01892B71F4F0935F01E0935E0109
:1008A0008091600190916101892B21F4F0936101A5
:1008B000E0936001CF01DF91CF911F910F910895D7
:1008C0000F931F93CF93DF93E0915E01F0915F014F
:1008D000238121FF1BC0EC0100E010E089916091B1
:1008E0005E0170915F01DB011896ED91FC91199703
:1008F000882331F00995892B89F30FEF1FEFEECF95
:100900008AE00995892B11F4C80102C08FEF9FEF8F
:10091000DF91CF911F910F9108950F931F93CF9364
:10092000DF93869F8001879F100D969F100D1124E5
:10093000C8010E94EE02EC01009729F0A80160E0D6
:1009400070E00E94A904CE01DF91CF911F910F9119
:100950000895DC0101C06D9341505040E0F70895C7
:04096000F894FFCF39
:1009640000006201200000104D4350323531352023
:100974006973204E4F5420696E20636F6E666967F9
:10098400206D6F646520616674657220726573659D
:100994007421004D435032353135206973204E4F58
:1009A4005420696E206E6F726D616C206D6F64658A
:0209B400210020
:00000001FF
