:100000000C9438000C9455000C9455000C94550039
:100010000C9455000C9455000C9455000C9455000C
:100020000C9455000C9455000C9455000C945500FC
:100030000C9455000C9455000C9455000C945500EC
:100040000C9455000C9455000C9455000C945500DC
:100050000C9455000C9455000C9455000C945500CC
:100060000C9455000C9455000C9455000C945500BC
:1000700011241FBECFEFD4E0DEBFCDBF11E0A0E062
:10008000B1E0EEE8F4E002C005900D92AC30B107AB
:10009000D9F721E0ACE0B1E001C01D92A831B20770
:1000A000E1F70E9478000C9445020C9400005D9BDF
:1000B000FECF8CB980E090E008955F9BFECF8CB1BD
:1000C000089589B988E18AB96DE570E087E590E027
:1000D0000E94830090930D0180930C0180E090E0DA
:1000E000089585B7806885BF80B7806280BF089516
:1000F0008FE190E00E9461000E94710086E091E033
:100100000E94CE00FBCF0F931F93CF93DF93EC01A0
:100110008B01009731F46115710519F480E090E0CE
:1001200038C06EE070E081E090E00E94FB00FC01CE
:100130000097A1F380E883830115110571F01387FF
:10014000028781E8838380910E0190910F01892BB2
:1001500021F4F0930F01E0930E012097C9F0D187AD
:10016000C087838182608383809110019091110107
:10017000892B71F4F0931101E09310018091120129
:1001800090911301892B21F4F0931301E093120154
:10019000CF01DF91CF911F910F9108950F931F937E
:1001A000CF93DF93E0911001F0911101238121FFA2
:1001B0001BC0EC0100E010E089916091100170918A
:1001C0001101DB011896ED91FC911997882331F00C
:1001D0000995892B89F30FEF1FEFEECF8AE0099580
:1001E000892B11F4C80102C08FEF9FEFDF91CF91EF
:1001F0001F910F9108950F931F93CF93DF93869FC5
:100200008001879F100D969F100D1124C8010E9438
:100210001701EC01009729F0A80160E070E00E944E
:100220003E02CE01DF91CF911F910F910895CF93A0
:10023000DF938230910510F482E090E0E0911601A6
:10024000F091170120E030E0A0E0B0E0309739F104
:100250004081518148175907B8F04817590771F480
:1002600082819381109729F013969C938E93129715
:100270002CC0909317018093160127C021153105DA
:1002800031F04217530718F0A901DB0101C0EF015B
:100290009A01BD01DF010280F381E02DD7CF211546
:1002A0003105F9F0281B390B2430310580F48A819F
:1002B0009B816115710521F0FB019383828304C04A
:1002C0009093170180931601FE01329644C0FE01FF
:1002D000E20FF31F819391932250310939832883D0
:1002E0003AC02091140130911501232B41F4209143
:1002F00002013091030130931501209314012091E4
:100300000001309101012115310541F42DB73EB7AF
:100310004091040150910501241B350BE09114011B
:10032000F0911501E217F307A0F42E1B3F0B2817DD
:10033000390778F0AC014E5F5F4F2417350748F05E
:100340004E0F5F1F509315014093140181939193B9
:1003500002C0E0E0F0E0CF01DF91CF910895CF93AC
:10036000DF93009709F487C0FC0132971382128251
:10037000C0911601D0911701209781F4208131811D
:10038000280F391F8091140190911501821793074E
:1003900079F5F0931501E09314016DC0DE0120E0C2
:1003A00030E0AE17BF0750F412964D915C91139751
:1003B0009D014115510509F1DA01F3CFB383A28301
:1003C00040815181840F951F8A179B0771F48D918D
:1003D0009C911197840F951F0296918380831296AA
:1003E0008D919C911397938382832115310529F474
:1003F000F0931701E09316013EC0D9011396FC93C8
:10040000EE9312974D915D91A40FB51FEA17FB076C
:1004100079F480819181840F951F0296D9011196FC
:100420009C938E938281938113969C938E931297C3
:10043000E0E0F0E08A819B81009719F0FE01EC0179
:10044000F9CFCE01029628813981820F931F209126
:100450001401309115012817390769F4309729F4F0
:10046000109217011092160102C013821282D093CB
:100470001501C0931401DF91CF910895DC0101C0F3
:0E0480006D9341505040E0F70895F894FFCF7F
:0C048E000000180120006865690D0000E6
:00000001FF
