:100000000C94B4010C9409020C94D1010C94E701F6
:100010000C94D1010C94D1010C94D1010C94D10118
:100020000C94D1010C944A020C94D1010C94D1018E
:100030000C94D1010C94D1010C94D1010C942D029B
:100040000C94D1010C94D1010C94D1010C94D101E8
:100050000C94D1010C94D1010C94D1010C94D101D8
:100060000C94D1010C94D1010C94D1010C94D101C8
:10007000000000000000000000065F5F06000000B6
:100080000007070007070000147F7F147F7F14001C
:10009000242E6B6B3A120000466630180C66620024
:1000A000307A4F5D377A48000407030000000000F3
:1000B000001C3E63410000000041633E1C00000044
:1000C000082A3E1C1C3E2A0808083E3E080800007C
:1000D00000A0E06000000000080808080808000010
:1000E00000006060000000006030180C0603010092
:1000F0003E7F594D7F3E000042427F7F40400000DE
:10010000627359496F660000226349497F360000D7
:10011000181C16137F7F1000276745457D390000A6
:100120003C7E4B4979300000036371190F070000D2
:10013000367F49497F360000064F49693F1E00005F
:1001400000006C6C0000000000A0EC6C00000000DF
:10015000081C366341000000141414141414000029
:10016000004163361C080000020351590F060000CD
:100170003E7F415D5D1F1E007C7E13137E7C000070
:10018000417F7F49497F36001C3E63414163220025
:10019000417F7F41637F1C00417F7F495D41630058
:1001A000417F7F491D0103001C3E63415173720072
:1001B0007F7F08087F7F000000417F7F41000000B3
:1001C000307040417F3F0100417F7F081C77630012
:1001D000417F7F41406070007F7F060C067F7F007B
:1001E0007F7F060C187F7F001C3E6341633E1C002E
:1001F000417F7F49090F06001E3F21717F5E00008D
:10020000417F7F19396F460026674D597B320000C8
:1002100003417F7F410300007F7F40407F7F0000DC
:100220001F3F60603F1F00007F7F3018307F7F00DE
:1002300063771C081C776300074F78784F0700002E
:100240006773594D47637100007F7F414100000093
:100250000103060C183060000041417F7F00000060
:10026000080C0603060C0800808080808080808057
:100270000000030704000000207454543C78400040
:10028000413F7F44447C3800387C44446C28000063
:10029000307848493F7F4000387C54545C18000057
:1002A000487E7F490302000098BCA4A4F87C0400A7
:1002B000417F7F08047C780000447D7D4000000081
:1002C00040C484FD7D000000417F7F10386C4400F5
:1002D00000417F7F400000007C7C0C180C7C780083
:1002E0007C7C04047C780000387C44447C3800002A
:1002F00084FCF8A4243C1800183C24A4F8FC8400D6
:10030000447C78441C180000485C54547424000059
:1003100000043E7F442400003C7C40403C7C400084
:100320001C3C60603C1C00003C7C6030607C3C00FD
:10033000446C3810386C44009CBCA0A0FC7C0000CD
:100340004C64745C4C64000008083E774141000036
:1003500000000077770000004141773E0808000068
:10036000020301030203010011241FBECFEFD4E0FA
:10037000DEBFCDBF11E0A0E0B1E0EAEAF5E102C0E6
:1003800005900D92A43DB107D9F722E0A4EDB1E0AC
:1003900001C01D92A331B207E1F70E9426060C941A
:1003A000D30A0C94000086B7816086BF8BB7806249
:1003B0008BBF309885B7806885BF80B7806280BF6B
:1003C0003098B898B998BA9880E090E008951F9254
:1003D0000F920FB60F9211248F939F9381E090E0BC
:1003E0009093E0018093DF019F918F910F900FBE5A
:1003F0000F901F90189540E061E08CE20E94B002DF
:1004000040E064E08CE20E94B00281E08093D4017D
:1004100008951F920F920FB60F9211242F933F93BE
:100420004F935F936F937F938F939F93AF93BF93FC
:10043000EF93FF930E94FB01FF91EF91BF91AF916A
:100440009F918F917F916F915F914F913F912F91EC
:100450000F900FBE0F901F9018951F920F920FB61E
:100460000F9211248F939F9381E090E09093DE018F
:100470008093DD018091D7019091D80101969093EE
:10048000D8018093D7019F918F910F900FBE0F904D
:100490001F9018951F920F920FB60F9211248F93F1
:1004A0009F9381E090E09093D6018093D5019F9136
:1004B0008F910F900FBE0F901F901895E199FECF6E
:1004C0009FBB8EBBE09A8DB30895AF92BF92CF923F
:1004D000DF92EF92FF920F931F93CF93DF930F2E34
:1004E000F0E1CF2EF1E0DF2EF02D00E010E0A12CA6
:1004F000B12C18C0F601E080F180EC0EFD1ECE019B
:10050000800F911F0E945E02F70180832196C33005
:10051000D10581F7F2E0CF0ED11C0D5F1F4F0F30D8
:10052000110519F0CA2DDB2DE5CF06E011E0CFE073
:10053000D0E0CE010E945E0290E0F8018193919399
:100540008F012196C431D105A1F7DF91CF911F9181
:100550000F91FF90EF90DF90CF90BF90AF900895F4
:100560001F93CF93DF93182FD62FC42F0E94DD0542
:1005700085E00E94CD05812F0E94CD058D2F0E9420
:10058000CD058C2F0E94CD050E94DF05DF91CF9114
:100590001F9108955D9BFECF8CB980E090E0089597
:1005A0005F9BFECF8CB1089589B988E18AB960ED6F
:1005B00072E08AEC92E00E9475079093E2018093CA
:1005C000E10180E090E00895EF92FF920F931F9376
:1005D000CF93DF938C017B010E948A04F801C681CE
:1005E000D78140E050E060E070E0808191810E941E
:1005F0000605209781F001E010E042E050E0B801EC
:10060000888199810E9406050A80DB81C02D0F5FD9
:100610001F4F209791F740E050E0B7018AE20E9417
:100620004A05DF91CF911F910F91FF90EF900895B0
:10063000CF93DF93EC018CE090E00E944E06FC012A
:10064000009741F484E691E00E94D40781E090E0B5
:100650000E94D30AD183C08313821282158214822E
:10066000118610861782168213861286DF91CF912B
:100670000895DC011696ED91FC911797309729F4B7
:1006800017967C936E9316970EC0228133812115A5
:10069000310511F0F901F9CF73836283DB011596FF
:1006A000FC93EE931497FC01228533852F5F3F4F17
:1006B00033872287DB0119969C938E9318970895B0
:1006C0002F923F924F925F926F927F928F929F9262
:1006D000AF92BF92CF92DF92EF92FF920F931F9350
:1006E000CF93DF9300D000D0CDB7DEB78FE691E097
:1006F0000E9418036C019093E4018093E3018CE75E
:1007000091E00E9418039C838B8386E891E00E940D
:1007100018037C0180E991E00E9418035C0185E9DF
:1007200091E00E9418034C018CE991E00E941803AB
:100730003C0181EA91E00E9418032C0186EA91E0D5
:100740000E9418038C018CEA91E00E9418031C019E
:1007500080EB91E00E9418039A8389836B817C81EE
:10076000C6010E943903B701C6010E943903B501D1
:100770008B819C810E943903B4018B819C810E94F2
:100780003903B3018B819C810E943903B201C701F7
:100790000E943903B801C7010E943903B101C801A1
:1007A0000E94390369817A81C8010E9439030E943D
:1007B000CA0460911A0170911B018091E30190912C
:1007C000E4010E94E4020E946805E091E301F091D7
:1007D000E401868197819093DA018093D9010F908B
:1007E0000F900F900F90DF91CF911F910F91FF907D
:1007F000EF90DF90CF90BF90AF909F908F907F90C1
:100800006F905F904F903F902F900895E09120015E
:10081000F09121018EEA8083E0912001F091210185
:1008200081EA8083E0912001F09121018AED8083AB
:10083000E0912001F091210182E18083E09120018B
:10084000F091210188EC8083E0912001F091210159
:1008500088EA8083E0912001F09121018FE3808379
:10086000E0912001F091210185ED8083E09120014C
:10087000F091210180E88083E0912001F091210135
:1008800081E88083E0912001F091210180E580835F
:10089000E0912001F091210189ED8083E091200118
:1008A000F091210181E28083E0912001F09121010A
:1008B00080E28083E0912001F091210182E0808339
:1008C000E0912001F09121018BED8083E0912001E6
:1008D000F091210180E38083E0912001F0912101DA
:1008E0008DEA8083E0912001F09121011082E09156
:1008F0002001F091210184EA8083E0912001F091B0
:10090000210186EA8083E0912001F09121018FEAA4
:100910008083089580E090E020E2E0911C01F09156
:100920001D01E80FF91F20830196811534E093071C
:10093000A1F70895E0912001F0912101982F906B8B
:1009400090838093DC010895E0912001F0912101D2
:10095000282F2F702083E0912001F09121019C012C
:10096000207F3327359527953595279535952795FC
:1009700035952795206120838093DB010895CF93DF
:10098000DF93EB010E949A04CE010E94A404DF9140
:10099000CF9108950F931F93CF93DF93C0E0D0E0E2
:1009A00000E810E060E070E0CE010E94BF04202F5C
:1009B000312FE0911E01F0911F0110822150310969
:1009C00021153105B1F72196C830D10559F7DF91CE
:1009D000CF911F910F91089560E070E080E090E06A
:1009E0000E94BF04089528E0829FC0011124FC01E9
:1009F000E059F04080E0A0911E01B0911F01949158
:100A00009C938F5F31968830B1F708950F931F93B1
:100A1000CF93DF93DC019A01C0E0142FD52F29C0BA
:100A2000FA01EC0FF11D709771F46F5F7F4F6770E3
:100A30007078772334F461507109686F7F6F6F5F4E
:100A40007F4F212F3D2FFD01E80FF91F0081FB0192
:100A5000F695FE2FEE27F795E795E20FF31F8091AD
:100A60001C0190911D01E80FF91F00832F5F3F4F7C
:100A7000CF5F8C2F90E0FD0101900020E9F73197C6
:100A8000EA1BFB0B8E179F0758F2DF91CF911F9146
:100A90000F9108957695762F662777956795640F61
:100AA000751FE0911C01F0911D01E60FF71F808377
:100AB00008959695982F882797958795680F791FA1
:100AC000E0911C01F0911D01E60FF71F8081089550
:100AD0000F931F93CF93DF930E94CA040E94EC04EC
:100AE00000E010E060E070E0C8010E94BF04C0E0D8
:100AF000D0E0BE01C8010E9459050E94F30421966E
:100B0000C031D105B1F70F5F1F4F0830110551F704
:100B1000DF91CF911F910F910895CF92DF92EF92C5
:100B2000FF920F931F93CF93DF93EC01162F0E9438
:100B3000E1051123A9F06E017E018FEFE81AF80A92
:100B40001150E10EF11C8E010C191D0989910E94B2
:100B5000D205F801EB51FE4F8083CE15DF0599F7E2
:100B60000E94E305DF91CF911F910F91FF90EF90CD
:100B7000DF90CF90089565E087EC91E00E948D05AD
:100B8000089569E08EEB91E00E948D05089569E07B
:100B900085EB91E00E948D0508958FB9779BFECF7C
:100BA0008FB108958FB9779BFECF87EA91E60197C1
:100BB000F1F700C000008FB10895C4980895C49A59
:100BC0000895C3980895C39A08956E9A6C9A709A7E
:100BD0006B9A6D9A6A9ABD9ABF9ABC9ABB9A0E9408
:100BE000DF050E94E305089585B7806885BF80B75B
:100BF000806280BF85B78E7F85BF85B7826085BFE5
:100C00008BB780648BBF8A988FB58D7F8FBD8FB572
:100C10008E7F8FBDEBE8F0E080818D7F80838081C7
:100C20008E7F80838EB582608EBD8EB581608EBDD5
:100C3000EAE8F0E080818260808389B7806889BFBC
:100C4000EDE7F0E08081846080830895F8948FE17F
:100C500090E00E94D4020E94F4050E9406040E94C3
:100C6000D3010E94E50578940E9460030E9465020A
:100C70000E94BB050E94C1050E94C705CCECD1E0D3
:100C800080E00E94D2051F928F93DF93CF930E9442
:100C9000C0070F900F900F900F90F2CFCF93DF937C
:100CA0008230910510F482E090E0E0910B02F09127
:100CB0000C0220E030E0A0E0B0E0309739F1408154
:100CC000518148175907B8F04817590771F48281C4
:100CD0009381109729F013969C938E9312972CC0B2
:100CE00090930C0280930B0227C02115310531F03F
:100CF0004217530718F0A901DB0101C0EF019A0167
:100D0000BD01DF010280F381E02DD7CF2115310530
:100D1000F9F0281B390B2430310580F48A819B813E
:100D20006115710521F0FB019383828304C09093C8
:100D30000C0280930B02FE01329644C0FE01E20FCA
:100D4000F31F8193919322503109398328833AC04C
:100D50002091090230910A02232B41F420910201D3
:100D60003091030130930A0220930902209100017F
:100D7000309101012115310541F42DB73EB7409165
:100D8000040150910501241B350BE0910902F091FB
:100D90000A02E217F307A0F42E1B3F0B28173907AE
:100DA00078F0AC014E5F5F4F2417350748F04E0FC7
:100DB0005F1F50930A02409309028193919302C0EE
:100DC000E0E0F0E0CF01DF91CF910895CF93DF9382
:100DD000009709F487C0FC01329713821282C091F8
:100DE0000B02D0910C02209781F420813181280FD1
:100DF000391F8091090290910A028217930779F5B1
:100E0000F0930A02E09309026DC0DE0120E030E0B9
:100E1000AE17BF0750F412964D915C9113979D0148
:100E20004115510509F1DA01F3CFB383A283408163
:100E30005181840F951F8A179B0771F48D919C91A6
:100E40001197840F951F02969183808312968D913E
:100E50009C911397938382832115310529F4F09394
:100E60000C02E0930B023EC0D9011396FC93EE9363
:100E700012974D915D91A40FB51FEA17FB0779F406
:100E800080819181840F951F0296D90111969C93C0
:100E90008E938281938113969C938E931297E0E0B8
:100EA000F0E08A819B81009719F0FE01EC01F9CFF7
:100EB000CE01029628813981820F931F2091090269
:100EC00030910A022817390769F4309729F41092F3
:100ED0000C0210920B0202C013821282D0930A02FB
:100EE000C0930902DF91CF9108950F931F93CF9381
:100EF000DF93EC018B01009731F46115710519F452
:100F000080E090E038C06EE070E081E090E00E9408
:100F1000D309FC010097A1F380E883830115110533
:100F200071F01387028781E8838380910D0290918D
:100F30000E02892B21F4F0930E02E0930D0220970C
:100F4000C9F0D187C08783818260838380910F023B
:100F500090911002892B71F4F0931002E0930F022C
:100F60008091110290911202892B21F4F0931202C8
:100F7000E0931102CF01DF91CF911F910F9108955E
:100F8000A0E0B0E0E6ECF7E00C94AC0AFE01359688
:100F900061917191AF0180910F02909110020E94B6
:100FA0000108E2E00C94C80A0F931F93CF93DF93DC
:100FB000E0910F02F0911002238121FF1BC0EC0190
:100FC00000E010E0899160910F0270911002DB0146
:100FD0001896ED91FC911997882331F00995892B8A
:100FE00089F30FEF1FEFEECF8AE00995892B11F4FB
:100FF000C80102C08FEF9FEFDF91CF911F910F913A
:101000000895ACE0B0E0E7E0F8E00C949C0A7C01C5
:101010006B018A01FC0117821682838181FFBDC1A9
:10102000CE0101964C01F7019381F60193FD859164
:1010300093FF81916F01882309F4ABC1853239F4A4
:1010400093FD859193FF81916F01853229F4B7015A
:1010500090E00E940C0AE7CF512C312C20E0203286
:10106000A0F48B3269F030F4803259F0833269F4A5
:1010700020612CC08D3239F0803339F4216026C0D4
:101080002260246023C0286021C027FD27C030EDE6
:10109000380F3A3078F426FF06C0FAE05F9E300D34
:1010A0001124532E13C08AE0389E300D1124332EA4
:1010B00020620CC08E3221F426FD6BC1206406C074
:1010C0008C3611F4206802C0883641F4F60193FD95
:1010D000859193FF81916F018111C1CF982F9F7DE1
:1010E0009554933028F40C5F1F4FFFE3F9830DC034
:1010F000833631F0833771F0833509F05BC022C04D
:10110000F801808189830E5F1F4F44244394512C42
:10111000540115C03801F2E06F0E711CF801A08077
:10112000B18026FF03C0652D70E002C06FEF7FEF36
:10113000C5012C870E94010A2C0183012C852F7781
:10114000222E17C03801F2E06F0E711CF801A0804A
:10115000B18026FF03C0652D70E002C06FEF7FEF06
:10116000C5012C870E94EF092C012C852068222EB6
:10117000830123FC1BC0832D90E048165906B0F470
:10118000B70180E290E00E940C0A3A94F4CFF50196
:1011900027FC859127FE81915F01B70190E00E94B5
:1011A0000C0A31103A94F1E04F1A510841145104DD
:1011B00071F7E5C0843611F0893639F5F80127FF5B
:1011C00007C060817181828193810C5F1F4F08C0CD
:1011D00060817181882777FD8095982F0E5F1F4F62
:1011E0002F76B22E97FF09C09095809570956195E6
:1011F0007F4F8F4F9F4F2068B22E2AE030E0A4012E
:101200000E943E0AA82EA81844C0853729F42F7ED4
:10121000B22E2AE030E025C0F22FF97FBF2E8F36A4
:10122000C1F018F4883579F0B4C0803719F08837E8
:1012300021F0AFC02F2F2061B22EB4FE0DC08B2D38
:101240008460B82E09C024FF0AC09F2F9660B92E73
:1012500006C028E030E005C020E130E002C020E117
:1012600032E0F801B7FE07C060817181828193810D
:101270000C5F1F4F06C06081718180E090E00E5FBF
:101280001F4FA4010E943E0AA82EA818FB2DFF772D
:10129000BF2EB6FE0BC02B2D2E7FA51450F4B4FE2E
:1012A0000AC0B2FC08C02B2D2E7E05C07A2C2B2D37
:1012B00003C07A2C01C0752C24FF0DC0FE01EA0D7D
:1012C000F11D8081803311F4297E09C022FF06C000
:1012D0007394739404C0822F867809F0739423FD6D
:1012E00013C020FF06C05A2C731418F4530C57185F
:1012F000732C731468F4B70180E290E02C870E948D
:101300000C0A73942C85F5CF731410F4371801C0B0
:10131000312C24FF12C0B70180E390E02C870E949B
:101320000C0A2C8522FF17C021FF03C088E590E03E
:1013300002C088E790E0B7010CC0822F867859F090
:1013400021FD02C080E201C08BE227FD8DE2B701E2
:1013500090E00E940C0AA51438F4B70180E390E0F5
:101360000E940C0A5A94F7CFAA94F401EA0DF11DD9
:101370008081B70190E00E940C0AA110F5CF3320C4
:1013800009F451CEB70180E290E00E940C0A3A9431
:10139000F6CFF7018681978102C08FEF9FEF2C96E1
:1013A000E2E10C94B80A0F931F93CF93DF93869FCB
:1013B0008001879F100D969F100D1124C8010E9477
:1013C0004E06EC01009729F0A80160E070E00E9451
:1013D000FA09CE01DF91CF911F910F910895FC0181
:1013E0000590615070400110D8F7809590958E0F50
:1013F0009F1F0895DC0101C06D9341505040E0F7FC
:101400000895FC016150704001900110D8F780955B
:1014100090958E0F9F1F08950F931F93CF93DF9387
:10142000182F092FEB018B8181FD03C08FEF9FEFF8
:1014300020C082FF10C04E815F812C813D81421708
:1014400053077CF4E881F9819F012F5F3F4F398377
:101450002883108306C0E885F985812F0995892B9B
:1014600029F72E813F812F5F3F4F3F832E83812FAE
:10147000902FDF91CF911F910F910895FA01AA2724
:10148000283051F1203181F1E8946F936E7F6E5FC7
:101490007F4F8F4F9F4FAF4FB1E03ED0B4E03CD075
:1014A000670F781F891F9A1FA11D680F791F8A1F58
:1014B000911DA11D6A0F711D811D911DA11D20D0BF
:1014C00009F468943F912AE0269F11243019305D79
:1014D0003193DEF6CF010895462F4770405D41936A
:1014E000B3E00FD0C9F7F6CF462F4F70405D4A33B7
:1014F00018F0495D31FD4052419302D0A9F7EACF7F
:10150000B4E0A6959795879577956795BA95C9F7AD
:1015100000976105710508959B01AC010A2E0694A0
:101520005795479537952795BA95C9F7620F731F59
:10153000841F951FA01D08952F923F924F925F9296
:101540006F927F928F929F92AF92BF92CF92DF92D3
:10155000EF92FF920F931F93CF93DF93CDB7DEB738
:10156000CA1BDB0B0FB6F894DEBF0FBECDBF0994CC
:101570002A88398848885F846E847D848C849B8423
:10158000AA84B984C884DF80EE80FD800C811B8131
:10159000AA81B981CE0FD11D0FB6F894DEBF0FBE60
:0A15A000CDBFED010895F894FFCFD0
:1015AA000000130220000A000800070006000500D8
:1015BA005001540158015C01600101000018001239
:1015CA000010557064617465722068696768736396
:1015DA006F72653A200A20002025630020256400E6
:1015EA004849474853434F5245002E002D2D2D00A0
:1015FA00414E44004A4F48004A554C00414141007F
:10160A0042454E004F7574206F66206D656D004A25
:10161A00414A2050494E47504F4E4700506C61791D
:10162A002067616D65004869676873636F7265005A
:10163A0045617379004D656469756D00486172642E
:10164A000056696577005265736574005945530001
:10165A004E4F002A00014300005A5A5A5A5A01446E
:10166A00000103000000000143000100646174618D
:04167A003A200A0008
:00000001FF
