S011000070696E675F706F6E672E7372656352
S11300000C9438000C9429010C9455000C94750040
S11300100C9455000C9455000C9455000C94550008
S11300200C9455000C9455000C9455000C945500F8
S11300300C9455000C9455000C9455000C945500E8
S11300400C9455000C9455000C9455000C945500D8
S11300500C9455000C9455000C9455000C945500C8
S11300600C9455000C9455000C9455000C945500B8
S113007011241FBECFEFD4E0DEBFCDBF11E0A0E05E
S1130080B1E0E4E5FCE002C005900D92A636B107AC
S1130090D9F721E0A6E6B1E001C01D92A537B20769
S11300A0E1F70E94BF020C9428060C94000086B766
S11300B0816086BF8BB780628BBF309885B78068BC
S11300C085BF80B7806280BF3098B898B998BA98D5
S11300D080E090E00895846080930014809168012A
S11300E08823E1F38091001408951F920F920FB6B4
S11300F00F9211248F9381E0809368018F910F9068
S11301000FBE0F901F901895CF93DF931F92CDB71A
S1130110DEB70E94550189EF90E00197F1F700C026
S113012000008EE00E945A0189838981807E803894
S113013039F088E091E00E94D80581E090E01FC08A
S113014041E061E08BE20E9493014FEF60E680E6BC
S11301500E94930140E060EE8FE00E9493018EE0E4
S11301600E945A0189838981807E39F083E391E07A
S11301700E94D80581E090E002C080E090E00F90FA
S1130180DF91CF91089580E30E945A018695869568
S1130190869591E08927817090E00895EF92FF920F
S11301A00F931F93CF93DF937C010E94C300892B8D
S11301B0D9F1F701608166956695669581E30E94A1
S11301C06D01F70160816295660F607E82E30E9493
S11301D06D01F70162816F7085E30E946D01F70183
S11301E0828193818930910554F088E090E0938373
S11301F0828387010C5F1F4FC0E0D0E004C0181653
S11302001906BCF30EC0F80161918F018C2F8A5C32
S11302100E946D012196F70122813381C217D30711
S113022094F381E00E948101DF91CF911F910F919E
S1130230FF90EF90089540E061E08CE20E9493010A
S113024040E064E08CE20E94930181E080936701C6
S113025008951F920F920FB60F9211242F933F937C
S11302604F935F936F937F938F939F93AF93BF93BA
S1130270EF93FF930E941B01FF91EF91BF91AF9108
S11302809F918F917F916F915F914F913F912F91AA
S11302900F900FBE0F901F9018950E94A10280EC42
S11302A00E949C020E94A30208950E94A5020E943B
S11302B04D010895CF93C82F0E94A10283E00E94AC
S11302C09C028C2F0E949C0280E00E949C02C82FFA
S11302D00E94A3028C2FCF910895CF93DF93D82F40
S11302E0C62F0E94A10282E00E949C028D2F0E94D0
S11302F09C028C2F0E949C020E94A302DF91CF914A
S11303000895CF93C82F0E94A102C83028F48C2FDF
S113031080680E949C0203C080E80E949C020E94A4
S1130320A302CF9108951F93CF93DF93182FD62F55
S1130330C42F0E94A10285E00E949C02812F0E948A
S11303409C028D2F0E949C028C2F0E949C020E9472
S1130350A302DF91CF911F9108955D9BFECF8CB9CD
S113036080E090E008955F9BFECF8CB1089589B939
S113037088E18AB963EB71E08DEA91E00E948D0512
S113038090936A018093690180E090E008950E944F
S11303906B00682F70E080E090E00E94750320E01D
S11303A030E04FE753E40E94DC0220E030E048EC08
S11303B052E40E9403040E944403CB0108951F9356
S11303C0CF93DF93CDB7DEB72C970FB6F894DEBF8B
S11303D00FBECDBF85E090E00E94C701182F409169
S11303E0660150E0481B51099A0122F42227332761
S11303F0241B350B243031057CF082E591E00E940A
S1130400D80521E030E03C832B831D831A821982B6
S1130410CE0101960E94CE00109366012C960FB671
S1130420F894DEBF0FBECDBFDF91CF911F91089529
S1130430E0910601F09107018EEA8083E0910601C4
S1130440F091070181EA8083E0910601F0910701B0
S11304508AED8083E0910601F091070182E18083B7
S1130460E0910601F091070188EC8083E091060198
S1130470F091070188EA8083E0910601F091070179
S11304808FE38083E0910601F091070185ED80837D
S1130490E0910601F091070180E88083E091060174
S11304A0F091070181E88083E0910601F091070152
S11304B080E58083E0910601F091070189ED808356
S11304C0E0910601F091070181E28083E091060149
S11304D0F091070180E28083E0910601F091070129
S11304E082E08083E0910601F09107018BED808327
S11304F0E0910601F091070180E38083E091060119
S1130500F09107018DEA8083E0910601F0910701E3
S11305101082E0910601F091070184EA8083E09162
S11305200601F091070186EA8083E0910601F091CB
S113053007018FEA808308958FB9779BFECF8FB12F
S11305400895C4980895C49A08956E9A6C9A689A06
S1130550BD9ABF9ABC9A0E94A302089585B7806889
S113056085BF80B7806280BF85B78E7F85BF85B722
S1130570826085BF8BB780648BBF8A980895F89496
S11305808FE190E00E94B7010E94AE020E9418021F
S11305900E9457000E94840078940E94DF018FEF2C
S11305A09FE20197F1F700C0000080916801882361
S11305B0A1F310926801F1CF0CD0EBC0E3D040F06E
S11305C0DAD030F021F45F3F19F0CCC0511115C1DD
S11305D0CFC0F0D098F39923C9F35523B1F3951BF9
S11305E0550BBB27AA2762177307840738F09F5F50
S11305F05F4F220F331F441FAA1FA9F333D00E2EBF
S11306003AF0E0E830D091505040E695001CCAF72B
S113061029D0FE2F27D0660F771F881FBB1F2617F0
S113062037074807AB07B0E809F0BB0B802DBF01C3
S1130630FF2793585F4F2AF09E3F510568F092C000
S1130640DCC05F3FECF3983EDCF3869577956795C5
S1130650B795F7959F5FC9F7880F911D9695879574
S113066097F90895E1E0660F771F881FBB1F621793
S113067073078407BA0720F0621B730B840BBA0B51
S1130680EE1F88F7E095089504D06894B111B5C0C1
S1130690089598D088F09F5790F0B92F9927B751B3
S11306A0A0F0D1F0660F771F881F991F1AF0BA9532
S11306B0C9F712C0B13081F09FD0B1E008959CC059
S11306C0672F782F8827B85F39F0B93FCCF3869528
S11306D077956795B395D9F73EF490958095709585
S11306E061957F4F8F4F9F4F0895E89409C097FB02
S11306F03EF490958095709561957F4F8F4F9F4FF5
S11307009923A9F0F92F96E9BB279395F695879538
S113071077956795B795F111F8CFFAF4BB0F11F4FB
S113072060FF1BC06F5F7F4F8F4F9F4F16C08823A2
S113073011F096E911C0772321F09EE8872F762FD8
S113074005C0662371F096E8862F70E060E02AF019
S11307509A95660F771F881FDAF7880F9695879505
S113076097F9089597F99F6780E870E060E008952D
S11307709FEF80EC089500240A94161617061806B5
S11307800906089500240A94121613061406050691
S11307900895092E0394000C11F4882352F0BB0F22
S11307A040F4BF2B11F460FF04C06F5F7F4F8F4F85
S11307B09F4F089557FD9058440F551F59F05F3FC0
S11307C071F04795880F97FB991F61F09F3F79F06F
S11307D087950895121613061406551FF2CF4695F1
S11307E0F1DF08C0161617061806991FF1CF869573
S11307F07105610508940895E894BB276627772757
S1130800CB0197F908950BD0C4CFB5DF28F0BADF38
S113081018F0952309F0A6CFABCF1124EECFCADF91
S1130820A0F3959FD1F3950F50E0551F629FF001FF
S1130830729FBB27F00DB11D639FAA27F00DB11D58
S1130840AA1F649F6627B00DA11D661F829F2227E1
S1130850B00DA11D621F739FB00DA11D621F839F68
S1130860A00D611D221F749F3327A00D611D231F3E
S1130870849F600D211D822F762F6A2F11249F578C
S113088050408AF0E1F088234AF0EE0FFF1FBB1FAF
S1130890661F771F881F91505040A9F79E3F51054E
S11308A070F060CFAACF5F3FECF3983EDCF38695FF
S11308B077956795B795F795E7959F5FC1F7FE2BF9
S11308C0880F911D9695879597F90895CF93DF9397
S11308D08230910510F482E090E0E0916D01F09196
S11308E06E0120E030E0A0E0B0E0309739F14081C3
S11308F0518148175907B8F04817590771F4828194
S11309009381109729F013969C938E9312972CC081
S113091090936E0180936D0127C02115310531F04C
S11309204217530718F0A901DB0101C0EF019A0136
S1130930BD01DF010280F381E02DD7CF2115310500
S1130940F9F0281B390B2430310580F48A819B810E
S11309506115710521F0FB019383828304C0909398
S11309606E0180936D01FE01329644C0FE01E20FD8
S1130970F31F8193919322503109398328833AC01C
S113098020916B0130916C01232B41F420910201E1
S11309903091030130936C0120936B01209100018D
S11309A0309101012115310541F42DB73EB7409135
S11309B0040150910501241B350BE0916B01F0916A
S11309C06C01E217F307A0F42E1B3F0B281739071D
S11309D078F0AC014E5F5F4F2417350748F04E0F97
S11309E05F1F50936C0140936B018193919302C0FC
S11309F0E0E0F0E0CF01DF91CF910895CF93DF9352
S1130A00009709F487C0FC01329713821282C091C7
S1130A106D01D0916E01209781F420813181280FDE
S1130A20391F80916B0190916C018217930779F5BE
S1130A30F0936C01E0936B016DC0DE0120E030E0C7
S1130A40AE17BF0750F412964D915C9113979D0118
S1130A504115510509F1DA01F3CFB383A283408133
S1130A605181840F951F8A179B0771F48D919C9176
S1130A701197840F951F02969183808312968D910E
S1130A809C911397938382832115310529F4F09364
S1130A906E01E0936D013EC0D9011396FC93EE9371
S1130AA012974D915D91A40FB51FEA17FB0779F4D6
S1130AB080819181840F951F0296D90111969C9390
S1130AC08E938281938113969C938E931297E0E088
S1130AD0F0E08A819B81009719F0FE01EC01F9CFC7
S1130AE0CE01029628813981820F931F20916B01D8
S1130AF030916C012817390769F4309729F4109262
S1130B006E0110926D0102C013821282D0936C01A7
S1130B10C0936B01DF91CF9108950F931F93CF93EF
S1130B20DF93EC018B01009731F46115710519F421
S1130B3080E090E038C06EE070E081E090E00E94D8
S1130B400506FC010097A1F380E8838301151105D4
S1130B5071F01387028781E8838380916F019091FC
S1130B607001892B21F4F0937001E0936F012097B9
S1130B70C9F0D187C08783818260838380917101AA
S1130B8090917201892B71F4F0937201E0937101D9
S1130B908091730190917401892B21F4F093740175
S1130BA0E0937301CF01DF91CF911F910F910895CD
S1130BB00F931F93CF93DF93E0917101F091720132
S1130BC0238121FF1BC0EC0100E010E089916091BA
S1130BD0710170917201DB011896ED91FC911997E6
S1130BE0882331F00995892B89F30FEF1FEFEECF9E
S1130BF08AE00995892B11F4C80102C08FEF9FEF99
S1130C00DF91CF911F910F9108950F931F93CF936D
S1130C10DF93869F8001879F100D969F100D1124EE
S1130C20C8010E946604EC01009729F0A80160E065
S1130C3070E00E942106CE01DF91CF911F910F91A8
S1130C400895DC0101C06D9341505040E0F70895D0
S1070C50F894FFCF42
S1130C5400007501200000104D4350323531352019
S1130C646973204E4F5420696E20636F6E66696702
S1130C74206D6F64652061667465722072657365A6
S1130C847421004D435032353135206973204E4F61
S1130C945420696E206E6F726D616C206D6F646593
S1130CA4210053656E64696E672043414E206D656F
S1090CB473736167650023
S9030000FC
