S011000070696E675F706F6E672E7372656352
S11300000C94B4010C9453020C94D1010C94F70198
S11300100C94D1010C94D1010C94D1010C94D10114
S11300200C94D1010C94D1010C94D1010C94D10104
S11300300C94D1010C94D1010C94D1010C94D101F4
S11300400C94D1010C94D1010C94D1010C94D101E4
S11300500C94D1010C94D1010C94D1010C94D101D4
S11300600C94D1010C94D1010C94D1010C94D101C4
S1130070000000000000000000065F5F06000000B2
S11300800007070007070000147F7F147F7F140018
S1130090242E6B6B3A120000466630180C66620020
S11300A0307A4F5D377A48000407030000000000EF
S11300B0001C3E63410000000041633E1C00000040
S11300C0082A3E1C1C3E2A0808083E3E0808000078
S11300D000A0E0600000000008080808080800000C
S11300E000006060000000006030180C060301008E
S11300F03E7F594D7F3E000042427F7F40400000DA
S1130100627359496F660000226349497F360000D3
S1130110181C16137F7F1000276745457D390000A2
S11301203C7E4B4979300000036371190F070000CE
S1130130367F49497F360000064F49693F1E00005B
S113014000006C6C0000000000A0EC6C00000000DB
S1130150081C366341000000141414141414000025
S1130160004163361C080000020351590F060000C9
S11301703E7F415D5D1F1E007C7E13137E7C00006C
S1130180417F7F49497F36001C3E63414163220021
S1130190417F7F41637F1C00417F7F495D41630054
S11301A0417F7F491D0103001C3E6341517372006E
S11301B07F7F08087F7F000000417F7F41000000AF
S11301C0307040417F3F0100417F7F081C7763000E
S11301D0417F7F41406070007F7F060C067F7F0077
S11301E07F7F060C187F7F001C3E6341633E1C002A
S11301F0417F7F49090F06001E3F21717F5E000089
S1130200417F7F19396F460026674D597B320000C4
S113021003417F7F410300007F7F40407F7F0000D8
S11302201F3F60603F1F00007F7F3018307F7F00DA
S113023063771C081C776300074F78784F0700002A
S11302406773594D47637100007F7F41410000008F
S11302500103060C183060000041417F7F0000005C
S1130260080C0603060C0800808080808080808053
S11302700000030704000000207454543C7840003C
S1130280413F7F44447C3800387C44446C2800005F
S1130290307848493F7F4000387C54545C18000053
S11302A0487E7F490302000098BCA4A4F87C0400A3
S11302B0417F7F08047C780000447D7D400000007D
S11302C040C484FD7D000000417F7F10386C4400F1
S11302D000417F7F400000007C7C0C180C7C78007F
S11302E07C7C04047C780000387C44447C38000026
S11302F084FCF8A4243C1800183C24A4F8FC8400D2
S1130300447C78441C180000485C54547424000055
S113031000043E7F442400003C7C40403C7C400080
S11303201C3C60603C1C00003C7C6030607C3C00F9
S1130330446C3810386C44009CBCA0A0FC7C0000C9
S11303404C64745C4C64000008083E774141000032
S113035000000077770000004141773E0808000064
S1130360020301030203010011241FBECFEFD4E0F6
S1130370DEBFCDBF12E0A0E0B1E0EEE8F5E102C0DF
S113038005900D92AA30B107D9F722E0AAE0B2E0B5
S113039001C01D92AC31B207E1F70E9427060C940C
S11303A0C50A0C94000086B7816086BF8BB7806253
S11303B08BBF309885B7806885BF80B7806280BF67
S11303C03098B898B998BA9880E090E00895E3EF2F
S11303D0F1E03197F1F700C00000846080930014CD
S11303E080910D028823E1F38091001408951F92F7
S11303F00F920FB60F9211248F9381E080930D0218
S11304008F910F900FBE0F901F901895CF93DF938D
S11304101F92CDB7DEB70E947F0289EF90E001976B
S1130420F1F700C000008EE00E9484028983898174
S1130430807E803839F08FE091E00E94C60781E029
S113044090E01FC041E061E08BE20E9497024FEF11
S113045060E680E60E94970240E060EE8FE00E9432
S113046097028EE00E94840289838981807E39F01C
S11304708AE391E00E94C60781E090E002C080E038
S113048090E00F90DF91CF91089540E061E08CE21D
S11304900E94970240E064E08CE20E94970281E0AF
S11304A080930C0208951F920F920FB60F9211249D
S11304B02F933F934F935F936F937F938F939F9368
S11304C0AF93BF93EF93FF930E944502FF91EF9187
S11304D0BF91AF919F918F917F916F915F914F9158
S11304E03F912F910F900FBE0F901F9018950E946F
S11304F0090680EC0E9404060E940B0608950E94DF
S11305000D060E9477020895CF93C82F0E94090612
S113051083E00E9404068C2F0E94040680E00E945F
S11305200406C82F0E940B068C2FCF9108951F93A9
S1130530CF93DF93182FD62FC42F0E94090685E08E
S11305400E940406812F0E9404068D2F0E94040637
S11305508C2F0E9404060E940B06DF91CF911F91FD
S113056008955D9BFECF8CB980E090E008955F9B79
S1130570FECF8CB1089589B988E18AB967EB72E03E
S113058081EB92E00E94670790930F0280930E0222
S113059080E090E00895CF9384E00E94E701C82FA3
S11305A085E00E94E701282F30E0273931056CF4FB
S11305B02E36310564F08C2F90E0873991054CF488
S11305C08E36910544F483E007C080E005C081E0E5
S11305D003C082E001C084E0CF910895EF92FF92BE
S11305E00F931F93CF93DF938C017B010E94F5043B
S11305F0F801C681D78140E050E060E070E080817E
S113060091810E948005209781F001E010E042E092
S113061050E0B801888199810E9480050A80DB81BD
S1130620C02D0F5F1F4F209791F740E050E0B701B6
S11306308AE20E947105DF91CF911F910F91FF9083
S1130640EF900895CF93DF93EC018CE090E00E944B
S11306504006FC01009751F48DE991E09F938F933C
S11306600E94B20781E090E00E94C50AD183C08352
S113067013821282158214821186108617821682C2
S113068013861286DF91CF910895DC011696ED91C1
S1130690FC911797309729F417967C936E931697CD
S11306A00EC0228133812115310511F0F901F9CFF2
S11306B073836283DB011596FC93EE931497FC011C
S11306C0228533852F5F3F4F33872287DB011996BD
S11306D09C938E93189708958F929F92AF92BF9296
S11306E0CF92DF92EF92FF920F931F93CF93DF93FA
S11306F082EC91E00E942203EC019093110280931A
S113070010028FEC91E00E9422037C0183ED91E0C2
S11307100E9422038C0188ED91E00E9422035C0177
S113072082EE91E00E9422036C018DEE91E00E9422
S113073022034C01B701CE010E944503B801CE014A
S11307400E944503B501CE010E944503B601C701CD
S11307500E944503B401C8010E9445030E94350567
S1130760609107017091080180911002909111022B
S11307700E94EE020E94DF05DF91CF911F910F913D
S1130780FF90EF90DF90CF90BF90AF909F908F90AD
S11307900895CF930E94CB02C82F1F928F9328EF06
S11307A031E03F932F930E94B2070F900F900F9068
S11307B00F9080910601C81709F48FC0C13009F168
S11307C030F0C230D9F1C33009F469C086C0209139
S11307D00701309108012230310534F021503109EC
S11307E0309308012093070160910701709108017B
S11307F080911002909111020E94EE020E94DF0586
S11308006CC0E0911002F091110220910701309127
S11308100801828593852817390734F42F5F3F4FE9
S1130820309308012093070160910701709108013A
S1130830CF010E94EE020E94DF054FC040910701E4
S113084050910801A0911002B09111021696ED91F9
S1130850FC9117974230510554F021E030E00280BA
S1130860F381E02D2F5F3F4F24173507C1F73097F1
S113087019F08E2F9F2F02C08A2F9B2F8093100276
S11308809093110221E030E0309308012093070196
S113089061E070E00E94EE020E94DF051EC0E0915C
S11308A01002F0911102208531852115310519F0CE
S11308B0822F932F02C08E2F9F2F8093100290932C
S11308C0110221E030E0309308012093070161E038
S11308D070E00E94EE020E94DF05C0930601CF91F2
S11308E00895E0910D01F0910E018EEA8083E0916C
S11308F00D01F0910E0181EA8083E0910D01F091E8
S11309000E018AED8083E0910D01F0910E0182E1E8
S11309108083E0910D01F0910E0188EC8083E091D9
S11309200D01F0910E0188EA8083E0910D01F091B0
S11309300E018FE38083E0910D01F0910E0185EDAE
S11309408083E0910D01F0910E0180E88083E091B5
S11309500D01F0910E0181E88083E0910D01F09189
S11309600E0180E58083E0910D01F0910E0189ED87
S11309708083E0910D01F0910E0181E28083E0918A
S11309800D01F0910E0180E28083E0910D01F09160
S11309900E0182E08083E0910D01F0910E018BED58
S11309A08083E0910D01F0910E0180E38083E0915A
S11309B00D01F0910E018DEA8083E0910D01F0911B
S11309C00E011082E0910D01F0910E0184EA808302
S11309D0E0910D01F0910E0186EA8083E0910D0112
S11309E0F0910E018FEA8083089580E090E020E288
S11309F0E0910901F0910A01E80FF91F20830196A3
S1130A00811534E09307A1F70895E0910D01F09169
S1130A100E01982F906B908380930B020895E091C0
S1130A200D01F0910E01282F2F702083E0910D010C
S1130A30F0910E019C01207F33273595279535953C
S1130A4027953595279535952795206120838093A3
S1130A500A020895CF93DF93EB010E940505CE01AE
S1130A600E940F05DF91CF9108950F931F93CF93A9
S1130A70DF93C0E0D0E000E810E060E070E0CE0179
S1130A800E942A05202F312FE0910B01F0910C01D7
S1130A9010822150310921153105B1F72196C83052
S1130AA0D10559F7DF91CF911F910F91089560E01F
S1130AB070E080E090E00E942A05089528E0829F7B
S1130AC0C0011124FC01E059F04080E0A0910B0129
S1130AD0B0910C0194919C938F5F31968830B1F75B
S1130AE008957695762F662777956795640F751F19
S1130AF0E0910901F0910A01E60FF71F8083089540
S1130B009F92AF92BF92CF92DF92EF92FF920F9398
S1130B101F93CF93DF938C017B016A01EA01B12C0F
S1130B20942EAD2C25C096012B0D311D203131059D
S1130B30A9F42FEFE21AF20A27E0E22220E8F222D7
S1130B40FF2054F421E0E21AF10828EFE22AFF24FE
S1130B50FA942FEFE21AF20AC92DDA2DF801E80F00
S1130B60F91FAE01B70180810E9471052196B394EB
S1130B708B2D90E0F80101900020E9F73197E01BFC
S1130B80F10B8E179F0778F2DF91CF911F910F9190
S1130B90FF90EF90DF90CF90BF90AF909F9008951B
S1130BA09695982F882797958795680F791FE091D8
S1130BB00901F0910A01E60FF71F808108950F9350
S1130BC01F93CF93DF930E9435050E94570500E0E1
S1130BD010E060E070E0C8010E942A05C0E0D0E0A7
S1130BE0BE01C8010E94D0050E945E052196C03155
S1130BF0D105B1F70F5F1F4F0830110551F7DF9191
S1130C00CF911F910F9108958FB9779BFECF8FB12C
S1130C100895C4980895C49A08956E9A6C9A709A27
S1130C20BD9ABF9ABC9A0E940B06089585B7806846
S1130C3085BF80B7806280BF85B78E7F85BF85B74B
S1130C40826085BF8BB780648BBF8A980895F894BF
S1130C508FE190E00E94BB020E9416060E9471047C
S1130C600E94D3010E94060278940E946C030E94A1
S1130C70C90380910D028823D1F310920D02F7CF9E
S1130C80CF93DF938230910510F482E090E0E091FD
S1130C901402F091150220E030E0A0E0B0E03097BB
S1130CA039F14081518148175907B8F0481759075D
S1130CB071F482819381109729F013969C938E93FB
S1130CC012972CC0909315028093140227C021150B
S1130CD0310531F04217530718F0A901DB0101C0B7
S1130CE0EF019A01BD01DF010280F381E02DD7CF2E
S1130CF021153105F9F0281B390B2430310580F416
S1130D008A819B816115710521F0FB0193838283A4
S1130D1004C09093150280931402FE01329644C0DD
S1130D20FE01E20FF31F819391932250310939831D
S1130D3028833AC02091120230911302232B41F4EC
S1130D402091020130910301309313022093120287
S1130D5020910001309101012115310541F42DB795
S1130D603EB74091040150910501241B350BE091DD
S1130D701202F0911302E217F307A0F42E1B3F0BAB
S1130D802817390778F0AC014E5F5F4F24173507F9
S1130D9048F04E0F5F1F5093130240931202819349
S1130DA0919302C0E0E0F0E0CF01DF91CF9108958C
S1130DB0CF93DF93009709F487C0FC013297138225
S1130DC01282C0911402D0911502209781F42081DF
S1130DD03181280F391F80911202909113028217DA
S1130DE0930779F5F0931302E09312026DC0DE01CC
S1130DF020E030E0AE17BF0750F412964D915C919D
S1130E0013979D014115510509F1DA01F3CFB3831D
S1130E10A28340815181840F951F8A179B0771F427
S1130E208D919C911197840F951F029691838083D5
S1130E3012968D919C91139793838283211531058A
S1130E4029F4F0931502E09314023EC0D9011396DD
S1130E50FC93EE9312974D915D91A40FB51FEA1781
S1130E60FB0779F480819181840F951F0296D90143
S1130E7011969C938E938281938113969C938E9367
S1130E801297E0E0F0E08A819B81009719F0FE015F
S1130E90EC01F9CFCE01029628813981820F931F8C
S1130EA020911202309113022817390769F4309700
S1130EB029F4109215021092140202C013821282B5
S1130EC0D0931302C0931202DF91CF9108950F9330
S1130ED01F93CF93DF93EC018B01009731F46115DD
S1130EE0710519F480E090E038C06EE070E081E0B4
S1130EF090E00E94C509FC010097A1F380E8838378
S1130F000115110571F01387028781E883838091AD
S1130F10160290911702892B21F4F0931702E093A3
S1130F2016022097C9F0D187C087838182608383AA
S1130F308091180290911902892B71F4F09319028F
S1130F40E093180280911A0290911B02892B21F4DC
S1130F50F0931B02E0931A02CF01DF91CF911F910E
S1130F600F910895A0E0B0E0E8EBF7E00C949E0A3E
S1130F70FE01359661917191AF01809118029091B3
S1130F8019020E94F307E2E00C94BA0A0F931F932C
S1130F90CF93DF93E0911802F0911902238121FF8E
S1130FA01BC0EC0100E010E089916091180270917F
S1130FB01902DB011896ED91FC911997882331F001
S1130FC00995892B89F30FEF1FEFEECF8AE009957E
S1130FD0892B11F4C80102C08FEF9FEFDF91CF91ED
S1130FE01F910F910895ACE0B0E0E9EFF7E00C94A5
S1130FF08E0A7C016B018A01FC01178216828381AF
S113100081FFBDC1CE0101964C01F7019381F60128
S113101093FD859193FF81916F01882309F4ABC1FE
S1131020853239F493FD859193FF81916F01853267
S113103029F4B70190E00E94FE09E7CF512C312C2E
S113104020E02032A0F48B3269F030F4803259F081
S1131050833269F420612CC08D3239F0803339F445
S1131060216026C02260246023C0286021C027FD9F
S113107027C030ED380F3A3078F426FF06C0FAE086
S11310805F9E300D1124532E13C08AE0389E300D1C
S11310901124332E20620CC08E3221F426FD6BC144
S11310A0206406C08C3611F4206802C0883641F4EE
S11310B0F60193FD859193FF81916F018111C1CF59
S11310C0982F9F7D9554933028F40C5F1F4FFFE3B6
S11310D0F9830DC0833631F0833771F0833509F01D
S11310E05BC022C0F801808189830E5F1F4F4424B6
S11310F04394512C540115C03801F2E06F0E711C59
S1131100F801A080B18026FF03C0652D70E002C005
S11311106FEF7FEFC5012C870E94F3092C01830137
S11311202C852F77222E17C03801F2E06F0E711C28
S1131130F801A080B18026FF03C0652D70E002C0D5
S11311406FEF7FEFC5012C870E94E1092C012C85EC
S11311502068222E830123FC1BC0832D90E04816B7
S11311605906B0F4B70180E290E00E94FE093A9477
S1131170F4CFF50127FC859127FE81915F01B7012A
S113118090E00E94FE0931103A94F1E04F1A5108A0
S11311904114510471F7E5C0843611F0893639F5EC
S11311A0F80127FF07C060817181828193810C5F00
S11311B01F4F08C060817181882777FD8095982F23
S11311C00E5F1F4F2F76B22E97FF09C09095809522
S11311D0709561957F4F8F4F9F4F2068B22E2AE004
S11311E030E0A4010E94300AA82EA81844C0853714
S11311F029F42F7EB22E2AE030E025C0F22FF97FA9
S1131200BF2E8F36C1F018F4883579F0B4C080371A
S113121019F0883721F0AFC02F2F2061B22EB4FE11
S11312200DC08B2D8460B82E09C024FF0AC09F2FE7
S11312309660B92E06C028E030E005C020E130E019
S113124002C020E132E0F801B7FE07C0608171817D
S1131250828193810C5F1F4F06C06081718180E0A1
S113126090E00E5F1F4FA4010E94300AA82EA81818
S1131270FB2DFF77BF2EB6FE0BC02B2D2E7FA514A2
S113128050F4B4FE0AC0B2FC08C02B2D2E7E05C05B
S11312907A2C2B2D03C07A2C01C0752C24FF0DC091
S11312A0FE01EA0DF11D8081803311F4297E09C00D
S11312B022FF06C07394739404C0822F867809F0C9
S11312C0739423FD13C020FF06C05A2C731418F422
S11312D0530C5718732C731468F4B70180E290E030
S11312E02C870E94FE0973942C85F5CF731410F497
S11312F0371801C0312C24FF12C0B70180E390E0FD
S11313002C870E94FE092C8522FF17C021FF03C0F1
S113131088E590E002C088E790E0B7010CC0822F16
S1131320867859F021FD02C080E201C08BE227FDDE
S11313308DE2B70190E00E94FE09A51438F4B701CC
S113134080E390E00E94FE095A94F7CFAA94F40136
S1131350EA0DF11D8081B70190E00E94FE09A11001
S1131360F5CF332009F451CEB70180E290E00E941A
S1131370FE093A94F6CFF7018681978102C08FEF78
S11313809FEF2C96E2E10C94AA0A0F931F93CF933C
S1131390DF93869F8001879F100D969F100D112467
S11313A0C8010E944006EC01009729F0A80160E002
S11313B070E00E94EC09CE01DF91CF911F910F9153
S11313C00895FC010590615070400110D8F7809594
S11313D090958E0F9F1F0895DC0101C06D934150BD
S11313E05040E0F70895FC016150704001900110F5
S11313F0D8F7809590958E0F9F1F08950F931F9394
S1131400CF93DF93182F092FEB018B8181FD03C04C
S11314108FEF9FEF20C082FF10C04E815F812C812F
S11314203D81421753077CF4E881F9819F012F5FC6
S11314303F4F39832883108306C0E885F985812FBF
S11314400995892B29F72E813F812F5F3F4F3F83D9
S11314502E83812F902FDF91CF911F910F910895AB
S1131460FA01AA27283051F1203181F1E8946F93D1
S11314706E7F6E5F7F4F8F4F9F4FAF4FB1E03ED077
S1131480B4E03CD0670F781F891F9A1FA11D680F15
S1131490791F8A1F911DA11D6A0F711D811D911D48
S11314A0A11D20D009F468943F912AE0269F1124BD
S11314B03019305D3193DEF6CF010895462F477021
S11314C0405D4193B3E00FD0C9F7F6CF462F4F707C
S11314D0405D4A3318F0495D31FD4052419302D0DA
S11314E0A9F7EACFB4E0A695979587957795679580
S11314F0BA95C9F700976105710508959B01AC0180
S11315000A2E06945795479537952795BA95C9F7A6
S1131510620F731F841F951FA01D08952F923F9281
S11315204F925F926F927F928F929F92AF92BF92EF
S1131530CF92DF92EF92FF920F931F93CF93DF939B
S1131540CDB7DEB7CA1BDB0B0FB6F894DEBF0FBEF8
S1131550CDBF09942A88398848885F846E847D8445
S11315608C849B84AA84B984C884DF80EE80FD8047
S11315700C811B81AA81B981CE0FD11D0FB6F894BD
S1111580DEBF0FBECDBFED010895F894FFCF7E
S113158E00001C0220000401000018001200104D7F
S113159E435032353135206973204E4F5420696ED5
S11315AE20636F6E666967206D6F64652061667473
S11315BE657220726573657421004D435032353166
S11315CE35206973204E4F5420696E206E6F726DF4
S11315DE616C206D6F64652100785F706F732025D8
S11315EE6420092000795F706F7320256420092020
S11315FE00736C696465725F6C5F706F7320256431
S113160E20092000427574746F6E20256420092011
S113161E00736C69646572202564200A004F75742A
S113162E206F66206D656D6F727921204661696C3D
S113163E656420746F20637265617465206D656ED8
S113164E7500486F7720746F20737465616C004762
S113165E616C004B6F6465005553422D626F61726D
S113166E64006C75722042656E64696B006661631A
S113167E6572617065002A006A6F79737469636BB1
S10D168E20646972202564200A001C
S9030000FC
