:100000000C9438000C94C1010C9455000C947B00A6
:100010000C9455000C9455000C9455000C9455000C
:100020000C9455000C9455000C9455000C945500FC
:100030000C9455000C9455000C9455000C945500EC
:100040000C9455000C9455000C9455000C945500DC
:100050000C9455000C9455000C9455000C945500CC
:100060000C9455000C9455000C9455000C945500BC
:1000700011241FBECFEFD4E0DEBFCDBF11E0A0E062
:10008000B1E0E0E6FFE002C005900D92AA38B107AA
:10009000D9F721E0AAE8B1E001C01D92AA39B20760
:1000A000E1F70E940E030C94AE070C94000086B793
:1000B000816086BF8BB780628BBF309885B78068C0
:1000C00085BF80B7806280BF3098B898B998BA98D9
:1000D00080E090E00895E3EFF1E03197F1F700C0A0
:1000E000000084608093001480918D018823E1F3E7
:1000F0008091001408951F920F920FB60F92112451
:100100008F9381E080938D018F910F900FBE0F90A0
:100110001F901895CF93DF931F92CDB7DEB70E9443
:10012000ED0189EF90E00197F1F700C000008EE04B
:100130000E94F20189838981807E803839F088E0CD
:1001400091E00E94AF0481E090E01FC041E061E0D7
:100150008BE20E942B024FEF60E680E60E942B02AA
:1001600040E060EE8FE00E942B028EE00E94F201E0
:1001700089838981807E39F083E391E00E94AF0416
:1001800081E090E002C080E090E00F90DF91CF919D
:10019000089580E30E94F20186958695869591E008
:1001A0008927817090E00895EF92FF920F931F933B
:1001B000CF93DF937C010E94C900892BD9F1F7010D
:1001C000608166956695669581E30E940502F70158
:1001D00060816295660F607E82E30E940502F701EE
:1001E00062816F7085E30E940502F701828193812D
:1001F0008930910554F088E090E0938382838701F1
:100200000C5F1F4FC0E0D0E004C018161906BCF305
:100210000EC0F80161918F018C2F8A5C0E9405024B
:100220002196F70122813381C217D30794F381E02D
:100230000E941902DF91CF911F910F91FF90EF90D3
:10024000089540E061E08CE20E942B0240E064E00F
:100250008CE20E942B0281E080938C0108958F92A2
:100260009F92AF92BF92CF92DF92EF92FF920F9345
:100270001F93CF93DF93CDB7DEB72C970FB6F894CB
:10028000DEBF0FBECDBF84E090E00E945F025C0144
:1002900085E090E00E945F024C0186E090E00E94C1
:1002A00063026C0187E090E00E9463027C0185019B
:1002B00011271F930F9382E591E09F938F930E94E4
:1002C0009B04C40199279F938F932EE531E03F93C0
:1002D0002F930E949B04C70199279F938F938AE6CF
:1002E00091E09F938F930E949B047601FF24FF92DD
:1002F000EF928DE791E09F938F930E949B048091F2
:100300008B01081B1109C801992324F48827992718
:10031000801B910B0FB6F894DEBF0FBECDBF0B97BD
:100320006CF480918A01E81AF108C701992324F43A
:10033000882799278E199F090B9784F083E090E016
:100340009C838B83AD82CE821A821982CE01019664
:100350000E94D400A0928B01C0928A012C960FB605
:10036000F894DEBF0FBECDBFDF91CF911F910F91EB
:10037000FF90EF90DF90CF90BF90AF909F908F90C5
:1003800008951F920F920FB60F9211242F933F934F
:100390004F935F936F937F938F939F93AF93BF938D
:1003A000EF93FF930E942101FF91EF91BF91AF91D5
:1003B0009F918F917F916F915F914F913F912F917D
:1003C0000F900FBE0F901F9018950E94F00280ECC6
:1003D0000E94EB020E94F20208950E94F4020E9421
:1003E000E5010895CF93C82F0E94F00283E00E9498
:1003F000EB028C2F0E94EB0280E00E94EB02C82FE0
:100400000E94F2028C2FCF910895CF93DF93D82FC3
:10041000C62F0E94F00282E00E94EB028D2F0E9404
:10042000EB028C2F0E94EB020E94F202DF91CF912F
:100430000895CF93C82F0E94F002C83028F48C2F63
:1004400080680E94EB0203C080E80E94EB020E94D9
:10045000F202CF9108951F93CF93DF93182FD62FD9
:10046000C42F0E94F00285E00E94EB02812F0E94BF
:10047000EB028D2F0E94EB028C2F0E94EB020E9458
:10048000F202DF91CF911F9108955D9BFECF8CB951
:1004900080E090E008955F9BFECF8CB1089589B90C
:1004A00088E18AB96BE472E085E492E00E9450042E
:1004B00090938F0180938E0180E090E008950E94D8
:1004C0006B0090E008950E946B0090E00895E09129
:1004D0000601F09107018EEA8083E0910601F09118
:1004E000070181EA8083E0910601F09107018AED1E
:1004F0008083E0910601F091070182E18083E09121
:100500000601F091070188EC8083E0910601F091EB
:10051000070188EA8083E0910601F09107018FE3EB
:100520008083E0910601F091070185ED8083E091E1
:100530000601F091070180E88083E0910601F091C7
:10054000070181E88083E0910601F091070180E5D1
:100550008083E0910601F091070189ED8083E091AD
:100560000601F091070181E28083E0910601F0919C
:10057000070180E28083E0910601F091070182E0AB
:100580008083E0910601F09107018BED8083E0917B
:100590000601F091070180E38083E0910601F0916C
:1005A00007018DEA8083E0910601F0910701108236
:1005B000E0910601F091070184EA8083E091060151
:1005C000F091070186EA8083E0910601F09107012E
:1005D0008FEA808308958FB9779BFECF8FB10895FE
:1005E000C4980895C49A08956E9A6C9A709ABD9AA8
:1005F000BF9ABC9A0E94F202089585B7806885BFB1
:1006000080B7806280BF85B78E7F85BF85B78260E7
:1006100085BF8BB780648BBF8A980895F8948FE16B
:1006200090E00E944F020E94FD020E9467020E9419
:1006300057000E948A0078940E942F0180E090EF7A
:100640000197F1F780918D018823B1F310928D010C
:10065000F3CFCF93DF938230910510F482E090E0E6
:10066000E0919201F091930120E030E0A0E0B0E051
:10067000309739F14081518148175907B8F0481730
:10068000590771F482819381109729F013969C93F6
:100690008E9312972CC0909393018093920127C060
:1006A0002115310531F04217530718F0A901DB017C
:1006B00001C0EF019A01BD01DF010280F381E02D4D
:1006C000D7CF21153105F9F0281B390B243031051E
:1006D00080F48A819B816115710521F0FB01938370
:1006E000828304C09093930180939201FE0132961D
:1006F00044C0FE01E20FF31F819391932250310910
:10070000398328833AC02091900130919101232BA5
:1007100041F4209102013091030130939101209323
:10072000900120910001309101012115310541F422
:100730002DB73EB74091040150910501241B350BA4
:10074000E0919001F0919101E217F307A0F42E1BC4
:100750003F0B2817390778F0AC014E5F5F4F241725
:10076000350748F04E0F5F1F509391014093900161
:100770008193919302C0E0E0F0E0CF01DF91CF914F
:100780000895CF93DF93009709F487C0FC01329757
:1007900013821282C0919201D0919301209781F42B
:1007A00020813181280F391F809190019091910112
:1007B0008217930779F5F0939101E09390016DC052
:1007C000DE0120E030E0AE17BF0750F412964D91E5
:1007D0005C9113979D014115510509F1DA01F3CFA1
:1007E000B383A28340815181840F951F8A179B0791
:1007F00071F48D919C911197840F951F02969183AE
:10080000808312968D919C911397938382832115F7
:10081000310529F4F0939301E09392013EC0D90190
:100820001396FC93EE9312974D915D91A40FB51F13
:10083000EA17FB0779F480819181840F951F029656
:10084000D90111969C938E938281938113969C93E8
:100850008E931297E0E0F0E08A819B81009719F077
:10086000FE01EC01F9CFCE01029628813981820F79
:10087000931F20919001309191012817390769F455
:10088000309729F4109293011092920102C01382C2
:100890001282D0939101C0939001DF91CF9108957E
:1008A0000F931F93CF93DF93EC018B01009731F4EB
:1008B0006115710519F480E090E038C06EE070E0D9
:1008C00081E090E00E94AE06FC010097A1F380E871
:1008D00083830115110571F01387028781E88383F3
:1008E0008091940190919501892B21F4F0939501C9
:1008F000E09394012097C9F0D187C08783818260FB
:1009000083838091960190919701892B71F4F093E4
:100910009701E09396018091980190919901892B1C
:1009200021F4F0939901E0939801CF01DF91CF91E9
:100930001F910F910895A0E0B0E0E1EAF4E00C947B
:100940008707FE01359661917191AF018091960103
:10095000909197010E94DC04E2E00C94A3070F93AE
:100960001F93CF93DF93E0919601F091970123813C
:1009700021FF1BC0EC0100E010E08991609196011D
:1009800070919701DB011896ED91FC9119978823DE
:1009900031F00995892B89F30FEF1FEFEECF8AE035
:1009A0000995892B11F4C80102C08FEF9FEFDF91E9
:1009B000CF911F910F910895ACE0B0E0E2EEF4E02A
:1009C0000C9477077C016B018A01FC011782168267
:1009D000838181FFBDC1CE0101964C01F701938156
:1009E000F60193FD859193FF81916F01882309F4AE
:1009F000ABC1853239F493FD859193FF81916F01ED
:100A0000853229F4B70190E00E94E706E7CF512C28
:100A1000312C20E02032A0F48B3269F030F48032A7
:100A200059F0833269F420612CC08D3239F0803363
:100A300039F4216026C02260246023C0286021C0D0
:100A400027FD27C030ED380F3A3078F426FF06C076
:100A5000FAE05F9E300D1124532E13C08AE0389EB9
:100A6000300D1124332E20620CC08E3221F426FD6D
:100A70006BC1206406C08C3611F4206802C0883631
:100A800041F4F60193FD859193FF81916F018111EE
:100A9000C1CF982F9F7D9554933028F40C5F1F4F42
:100AA000FFE3F9830DC0833631F0833771F083356E
:100AB00009F05BC022C0F801808189830E5F1F4F5F
:100AC00044244394512C540115C03801F2E06F0EB8
:100AD000711CF801A080B18026FF03C0652D70E075
:100AE00002C06FEF7FEFC5012C870E94DC062C014E
:100AF00083012C852F77222E17C03801F2E06F0E6C
:100B0000711CF801A080B18026FF03C0652D70E044
:100B100002C06FEF7FEFC5012C870E94CA062C012F
:100B20002C852068222E830123FC1BC0832D90E09E
:100B300048165906B0F4B70180E290E00E94E7063B
:100B40003A94F4CFF50127FC859127FE81915F014E
:100B5000B70190E00E94E70631103A94F1E04F1A95
:100B600051084114510471F7E5C0843611F08936FB
:100B700039F5F80127FF07C0608171818281938177
:100B80000C5F1F4F08C060817181882777FD8095B9
:100B9000982F0E5F1F4F2F76B22E97FF09C09095AA
:100BA0008095709561957F4F8F4F9F4F2068B22E33
:100BB0002AE030E0A4010E941907A82EA81844C01A
:100BC000853729F42F7EB22E2AE030E025C0F22F9F
:100BD000F97FBF2E8F36C1F018F4883579F0B4C094
:100BE000803719F0883721F0AFC02F2F2061B22E47
:100BF000B4FE0DC08B2D8460B82E09C024FF0AC03E
:100C00009F2F9660B92E06C028E030E005C020E195
:100C100030E002C020E132E0F801B7FE07C0608199
:100C20007181828193810C5F1F4F06C06081718149
:100C300080E090E00E5F1F4FA4010E941907A82ECC
:100C4000A818FB2DFF77BF2EB6FE0BC02B2D2E7FD5
:100C5000A51450F4B4FE0AC0B2FC08C02B2D2E7EA1
:100C600005C07A2C2B2D03C07A2C01C0752C24FFD3
:100C70000DC0FE01EA0DF11D8081803311F4297E43
:100C800009C022FF06C07394739404C0822F867833
:100C900009F0739423FD13C020FF06C05A2C73146F
:100CA00018F4530C5718732C731468F4B70180E2CE
:100CB00090E02C870E94E70673942C85F5CF73147F
:100CC00010F4371801C0312C24FF12C0B70180E3A3
:100CD00090E02C870E94E7062C8522FF17C021FF99
:100CE00003C088E590E002C088E790E0B7010CC03F
:100CF000822F867859F021FD02C080E201C08BE28C
:100D000027FD8DE2B70190E00E94E706A51438F4B4
:100D1000B70180E390E00E94E7065A94F7CFAA94C7
:100D2000F401EA0DF11D8081B70190E00E94E70611
:100D3000A110F5CF332009F451CEB70180E290E045
:100D40000E94E7063A94F6CFF7018681978102C0A8
:100D50008FEF9FEF2C96E2E10C9493070F931F9374
:100D6000CF93DF93869F8001879F100D969F100D74
:100D70001124C8010E942903EC01009729F0A80161
:100D800060E070E00E94D506CE01DF91CF911F9107
:100D90000F910895FC010590615070400110D8F743
:100DA000809590958E0F9F1F0895DC0101C06D9373
:100DB00041505040E0F70895FC01615070400190AF
:100DC0000110D8F7809590958E0F9F1F08950F936F
:100DD0001F93CF93DF93182F092FEB018B8181FD98
:100DE00003C08FEF9FEF20C082FF10C04E815F8154
:100DF0002C813D81421753077CF4E881F9819F01E2
:100E00002F5F3F4F39832883108306C0E885F9851B
:100E1000812F0995892B29F72E813F812F5F3F4F25
:100E20003F832E83812F902FDF91CF911F910F91C0
:100E30000895FA01AA27283051F1203181F1E89470
:100E40006F936E7F6E5F7F4F8F4F9F4FAF4FB1E0BD
:100E50003ED0B4E03CD0670F781F891F9A1FA11DB8
:100E6000680F791F8A1F911DA11D6A0F711D811DB9
:100E7000911DA11D20D009F468943F912AE0269F7E
:100E800011243019305D3193DEF6CF010895462FDD
:100E90004770405D4193B3E00FD0C9F7F6CF462FBE
:100EA0004F70405D4A3318F0495D31FD4052419327
:100EB00002D0A9F7EACFB4E0A695979587957795E4
:100EC0006795BA95C9F700976105710508959B016B
:100ED000AC010A2E06945795479537952795BA95F4
:100EE000C9F7620F731F841F951FA01D08952F92CD
:100EF0003F924F925F926F927F928F929F92AF92AA
:100F0000BF92CF92DF92EF92FF920F931F93CF93F6
:100F1000DF93CDB7DEB7CA1BDB0B0FB6F894DEBF8D
:100F20000FBECDBF09942A88398848885F846E84B3
:100F30007D848C849B84AA84B984C884DF80EE80FD
:100F4000FD800C811B81AA81B981CE0FD11D0FB606
:100F5000F894DEBF0FBECDBFED010895F894FFCF2A
:100F600000009A01200000104D43503235313520E9
:100F70006973204E4F5420696E20636F6E666967F7
:100F8000206D6F646520616674657220726573659B
:100F90007421004D435032353135206973204E4F56
:100FA0005420696E206E6F726D616C206D6F646588
:100FB0002100785F706F7320256420092000795F1D
:100FC000706F7320256420092000736C696465725A
:100FD0005F6C5F706F7320256420092000736C695B
:0A0FE000646572202564200A0000F9
:00000001FF
